:020000040800F2
:100000004006002001010008F5230008F72300083E
:10001000FB230008FF230008032400080000000061
:10002000000000000000000000000000072400089D
:1000300009240008000000000B2400081901000832
:100040001B0100081B0100081B0100081B01000820
:100050001B0100081B0100081B0100081B01000810
:100060001B0100081B0100081B0100081B01000800
:100070001B0100081B0100081B0100081B010008F0
:100080001B0100081B0100081B0100081B010008E0
:100090001B0100081B0100081B0100081B010008D0
:1000A0001B0100081B0100081B0100081B010008C0
:1000B0001B0100081B0100081B0100081B010008B0
:1000C0001B0100081B0100081B0100081B010008A0
:1000D0001B010008391900081B0100081B0100085A
:1000E0001B0100081B0100081B010008DFF80CD0F1
:1000F00002F0B4FC00480047D1220008400600206E
:100100000648804706480047FEE7FEE7FEE7FEE7B1
:10011000FEE7FEE7FEE7FEE7FEE7FEE70302000874
:10012000ED0000080CB50020019000906C480068BC
:1001300040F480306A49086000BF6948006800F4F4
:10014000003000900198401C0190009818B9019867
:10015000B0F5A06FF1D16248006800F4003010B132
:100160000120009001E0002000900098012843D178
:100170005C48006840F010005A4908600846006872
:1001800020F0030008600846006840F002000860A4
:1001900053484068524948600846406848600846ED
:1001A000406840F4806048600846406820F47C1055
:1001B00048600846406840F4E81048600846006817
:1001C00040F08070086000BF4548006800F0007093
:1001D0000028F9D04248406820F0030040494860B8
:1001E0000846406840F00200486000BF3C48406854
:1001F00000F00C000828F9D10CBD10B5FFF792FFF4
:1002000010BD10B53648006840F001003449086060
:10021000084640683449084031494860084600684B
:10022000324908402E4908600846006820F48020C2
:1002300008600846406820F4FE0048604FF41F0044
:100240008860FFF7DAFF4FF000602949086010BDB1
:1002500010B5002100200022214B5B6803F00C0147
:1002600021B1042906D0082928D107E0214B224CCE
:10027000236027E01F4B204C236023E0184B5B6872
:1002800003F47010164B5B6803F48032022303EB17
:10029000904022B9194B4343174C23600DE0104B9B
:1002A0005B6803F4003323B1144B4343124C2360C7
:1002B00003E0104B4343104C236003E00D4B0E4C06
:1002C000236000BF00BF064B5B68C3F303130C4CF5
:1002D000E15C094B1B68CB40074C236010BD00005C
:1002E00000100240002002400000FFF8FFFFF6FE71
:1002F00008ED00E000127A000000002000093D0037
:100300000400002031490143314A1160704770B543
:10031000002100230F22C47804B32D4C246804F478
:10032000E064C4F5E064210AC1F10403CA404478E2
:1003300004FA03F18478144021430901254C06781E
:10034000A155047804F01F050124AC4005786D1117
:10035000AD0005F1E025C5F8004109E0047804F09E
:100360001F050124AC401C4D0678761145F8264047
:1003700070BD1A4A0A400243154B1B1F1A60704792
:1003800039B1134A121D12680243114B1B1D1A602A
:1003900006E00F4A121D126882430D4B1B1D1A60A6
:1003A0007047042808D14FF0E021096941F00401A9
:1003B0004FF0E022116107E04FF0E021096921F0E0
:1003C00004014FF0E0221161704700000000FA05BF
:1003D0000CED00E000E400E080E100E080FFFF1FA2
:1003E00010B50446FA48844208D10121401500F0B6
:1003F00057FF0021601500F053FF17E0F5488442D5
:1004000008D10121001500F04BFF0021201500F05C
:1004100047FF0BE0F048844208D10121C80300F0F7
:100420003FFF00214FF4004000F03AFF10BD30B50F
:100430000246002000235068E84C20400D790C68EB
:1004400044EA0524204350609068E54C2040D1E9FF
:1004500002542C434D7944EA450420439060D06A0D
:1004600020F470000C7C641EE4B2234340EA035085
:10047000D06230BD00210160017141718160C160B5
:1004800001210174704721B1826842F0010282604B
:1004900003E0826822F001028260704721B1826825
:1004A00042F48072826003E0826822F4807282608B
:1004B000704710B50023CBB21AB144681C434460A6
:1004C00002E044689C43446010BD816841F008012B
:1004D00081607047014600208A6802F008020AB174
:1004E000012000E000207047816841F00401816034
:1004F0007047014600208A6802F004020AB1012018
:1005000000E00020704721B1826842F4A0028260BE
:1005100003E0826822F4A002826070470146002056
:100520008A6802F480020AB1012000E000207047CE
:1005300010B50A4600210023416821F46041531E92
:1005400041EA4331416010BD21B1426842F400628A
:10055000426003E0426822F4006242607047F0B5F6
:1005600004460D4600200021092D11DDE068A5F1AB
:100570000A0606EB4607072606FA07F18843A5F1A7
:100580000A0606EB460603FA06F10843E0600CE0B3
:10059000206905EB4507072606FA07F1884305EBB6
:1005A000450603FA06F108432061072A0FDA606B5B
:1005B000561E06EB86071F2606FA07F18843561ECD
:1005C00006EB860605FA06F10843606322E00D2A71
:1005D0000FDA206BD61F06EB86071F2606FA07F1F7
:1005E0008843D61F06EB860605FA06F1084320630A
:1005F00010E0E06AA2F10D0606EB86071F2606FA58
:1006000007F18843A2F10D0606EB860605FA06F10E
:100610000843E062F0BD21B1826842F4801282603A
:1006200003E0826822F48012826070470146C86C41
:1006300080B2704766484C300068704721B142680C
:1006400042F48062426003E0426822F480624260C9
:10065000704721B1426842F48052426003E0426830
:1006600022F48052426070470A460021816821F4DA
:10067000E04111438160704721B1826842F4004239
:10068000826003E0826822F400428260704721B1F8
:10069000826842F40212826003E0826822F402124D
:1006A00082607047014600208A6802F400120AB195
:1006B000012000E000207047F0B5044615460020F8
:1006C00000220026092911DDE068A1F10A0707EBE5
:1006D000470C072707FA0CF29043A1F10A0707EB32
:1006E000470703FA07F21043E0600CE0206901EBD2
:1006F000410C072707FA0CF2904301EB410703FA7C
:1007000007F210432061A06BC0F30156EF1C06F105
:10071000010CA7EB0C0707EB870C1F2707FA0CF25D
:100720009043EF1C06F1010CA7EB0C0707EB8707C2
:1007300001FA07F21043A063F0BD10B50A4600218C
:100740000023816B21F44011531E41EA0351816360
:1007500010BD08B5002300930090009B0B4400934C
:10076000009B1A6008BD08B5024600200090009268
:1007700001F12800009B184400900098006880B2A6
:1007800008BD0A4600214168164B194011434160DB
:1007900070474162826270470A460021416821F039
:1007A0001F0111434160704740B109490831096890
:1007B00041F40001064A0832116007E0044908319B
:1007C000096821F40001024A0832116070470000F4
:1007D0000024014000280140003C0140FFFEF0FFE2
:1007E000FDF7F1FFFFFD3FFF0246002013680B40BD
:1007F0000BB1012000E000207047CA43026070473F
:1008000070B502460020002300240B125568CEB2BA
:1008100005EA060415681D4015B10CB1012000E081
:10082000002070BD00220A12D3430360704700000D
:1008300010B50446CC48844208D10121042000F0C0
:100840002FFD0021042000F02BFD46E0C748844224
:1008500008D10121082000F023FD0021082000F02C
:100860001FFD3AE0C248844208D10121102000F067
:1008700017FD0021102000F013FD2EE0BD4884423A
:1008800008D10121202000F00BFD0021202000F0E4
:1008900007FD22E0B848844208D10121402000F041
:1008A000FFFC0021402000F0FBFC16E0B34884422E
:1008B00008D10121802000F0F3FC0021802000F00D
:1008C000EFFC0AE0AE48844207D10121801500F018
:1008D000E7FC0021A01500F0E3FC10BD10B50121DC
:1008E000084600F0DDFC0021012000F0D9FC10BD1D
:1008F0002DE9F041024600250026002000230024B7
:10090000002791F803C00CF00F0591F803C00CF01C
:10091000100CBCF1000F03D091F802C04CEA0505A1
:1009200091F800C0BCF1000F31D0146800202BE01A
:100930004FF0010C0CFA00F3B1F800C00CEA03060A
:100940009E4220D183004FF00F0C0CFA03F7BC43FA
:1009500005FA03FC4CEA040491F803C0BCF1280F2B
:1009600006D14FF0010C0CFA00FCC2F814C00AE0EA
:1009700091F803C0BCF1480F05D14FF0010C0CFAFF
:1009800000FCC2F810C0401C0828D1D31460B1F894
:1009900000C0BCF1FF0F34DD546800202EE000F1F0
:1009A000080C4FF0010808FA0CF3B1F800C00CEA8B
:1009B00003069E4221D183004FF00F0C0CFA03F77F
:1009C000BC4305FA03FC4CEA040491F803C0BCF1F3
:1009D000280F05D100F1080C08FA0CF8C2F81480B1
:1009E00091F803C0BCF1480F07D100F1080C4FF09B
:1009F000010808FA0CF8C2F81080401C0828CED371
:100A00005460BDE8F0814FF6FF71018002218170D2
:100A10000421C17070470246002093680B400BB15F
:100A2000012000E0002070470146886880B27047CE
:100A300002460020D3680B400BB1012000E00020EB
:100A400070470146C86880B27047016170474161D4
:100A500070470AB1016100E041617047C1607047B1
:100A60004FF480320A4382618161826182698269C6
:100A7000704702460020434B18684FF680731840B9
:100A800040EA021008433F4B186070473E49C86176
:100A90007047F0B50A46002300240021002500F02D
:100AA0000046B6F1004F02D1364EF16901E0354EF5
:100AB0007168C0F3034583B200F44016B6F5401FD9
:100AC00008D121F070612F4E766826F070662D4FA8
:100AD0007E6012E000F48016B6F5801F06D1032672
:100AE00006FA05F4A14341F0706106E0460D3601B7
:100AF00003FA06F6B14341F0706122B1460D3601AA
:100B000003FA06F6314300F00046B6F1004F02D179
:100B10001C4EF16101E01B4E7160F0BD30B500224A
:100B20008B071C0F0F2303FA04F2164B08338C10AB
:100B300053F824309343134C08348D1044F8253077
:100B400023468C1053F824308C07240F00FA04F449
:100B500023430C4C08348D1044F8253030BD0A492D
:100B6000DC3108607047000000080140000C0140C3
:100B7000001001400014014000180140001C014019
:100B800000200140000001400000204210B5044652
:100B9000F748844209D10121480500F08EFB00216D
:100BA0004FF4001000F089FB08E00121880500F0F7
:100BB00084FB00214FF4800000F07FFB10BD2DE985
:100BC000F04385B004460D460026B1460427DFF801
:100BD000A483A6884FF6C0700640684600F0D9FA94
:100BE000DDF80880E448B8FBF0F01FFA80F946EA27
:100BF0000906A68020884FF6FE7108402080002656
:100C0000DE49286888420CD828684000B8FBF0F01C
:100C100087B2042F00DA04273E4309F10100208443
:100C200027E0E8884BF6FF71884206D1286800EB80
:100C30004000B8FBF0F087B209E0286800EBC00183
:100C400001EB0010B8FBF0F087B247F48047C7F320
:100C50000B0008B947F0010747F4004006434FF482
:100C6000967009FB00F04FF47A7190FBF1F0401C94
:100C70002084A683208840F00100208026884FF63B
:100C8000F5300640A8886989084306432680A8896C
:100C900029890843208105B0BDE8F08341F28831FD
:100CA0000160002181804BF6FF71C180002101812C
:100CB00041814FF480418181704721B1028842F027
:100CC0000102028004E002884FF6FE731A4002809F
:100CD000704721B1828842F40062828004E08288F9
:100CE0004FF2FF731A408280704721B1828842F42C
:100CF0008052828004E082884EF6FF731A40828020
:100D0000704721B1028842F48072028004E00288B8
:100D10004FF6FF631A400280704721B1028842F407
:100D20000072028004E002884FF6FF531A400280EE
:100D3000704721B1028842F48062028004E0028898
:100D40004FF6FF331A40028070470A46002181891E
:100D50004FF60173194002F0FE0319438181704779
:100D600021B1828942F00102828104E082894FF63A
:100D7000FE731A408281704721B1028842F040021E
:100D8000028004E002884FF6BF731A400280704769
:100D90001AB183880B43838002E083888B4383806E
:100DA0007047018270470146088AC0B2704712B18D
:100DB00041F0010102E04FF6FE73194001827047D5
:100DC00008B5024600200090009200980844009068
:100DD0000098008808BD21B1028842F400420280D8
:100DE00003E00288C2F30E0202807047B1F5006F83
:100DF00004D1028842F40062028004E002884FF2CB
:100E0000FF731A4002807047B1F5005F04D1028879
:100E100042F40052028004E002884DF6FF731A404B
:100E20000280704721B1028842F48052028004E0BF
:100E300002884EF6FF731A4002807047B1F5006FCA
:100E400004D1028842F40062028004E002884FF27A
:100E5000FF731A400280704721B1028842F02002DD
:100E6000028004E002884FF6DF731A400280704768
:100E70000146088B0012704721B1028842F010022F
:100E8000028004E002884FF6EF731A400280704738
:100E900021B9028842F08002028004E002884FF605
:100EA0007F731A4002807047B1F5804F05D0828B66
:100EB0004BF6FF731A40828303E0828B42F4804238
:100EC0008283704770B5024600240025002300206D
:100ED000958A138B1B0445EA030626F07F4404EA37
:100EE00001068E4201D1012000E0002070BD10B546
:100EF00001460020002300228B8A0A8B120443EA59
:100F0000020424F07F4010BD0CB5024600200023EF
:100F10000193009300920B0F019321F07F41019BFD
:100F20001BB1009B1433009303E0090C009B1833A2
:100F30000093009B1B680B400BB1012000E00020D8
:100F40000CBD002221F07F42D3438382704730B52D
:100F5000024600200023948801F0E06504EA15436E
:100F600021F07F41948A0C4054B14BB1012008E03C
:100F70000054004000127A0040420F00A086010099
:100F8000002030BD002221F07F42D343838270478E
:100F9000DF48006840F00100DD490860084640680D
:100FA000DC490840DA49486008460068DA490840E8
:100FB000D74908600846006820F480200860084689
:100FC000406820F4FE0048604FF41F0088607047BE
:100FD000CF49096821F48031CD4A11601146096872
:100FE00021F480211160B0F5803F03D0B0F5802F4F
:100FF0000ED106E0C649096841F48031C44A116047
:1010000007E0C349096841F4A021C14A116000E02A
:1010100000BF00BF704710B501460022002300202A
:101020004A11012A02D1BA4C236806E0022A02D1F1
:10103000B74C236A01E0B64C636A01F01F02012439
:1010400094401C400CB1012000E0002010BD38B5D8
:10105000002000900024002500BF3120FFF7DBFFB7
:1010600005460098401C00900098B0F5A06F01D094
:10107000002DF2D03120FFF7CEFF08B1012400E0AF
:101080000024204638BD01460020A14A106820F007
:10109000F80040EAC10010607047A049086070473E
:1010A000024600209A4B586820F47C1042EA010363
:1010B0001843974B58607047984908667047014637
:1010C0000020934A506820F00300084350607047A6
:1010D0008F48406800F00C007047014600208C4AA1
:1010E000506820F0F000084350607047014600202F
:1010F000874A506820F4E06008435060704701461A
:101100000020834A506820F4605040EAC1005060DB
:10111000704729B17E4A527A02437D4B5A7204E0ED
:101120007B4A527A82437A4B5A7270477B49D83154
:101130000860704701460020754A506820F440401E
:101140000843506070470021714A20321170704A84
:1011500082F82010012802D004280AD104E00121DD
:101160006B4A2032117005E00521694A2032117066
:1011700000E000BF00BF70476949086070476449DC
:10118000096A0143624A116270476549443908603F
:10119000704730B500210022002400235C4D6D68AB
:1011A00005F00C0121B1042905D0082923D105E05F
:1011B0005C4D056022E05B4D05601FE0544D6D689D
:1011C00005F47012524D6D6805F48034022505EB6C
:1011D00092421CB9544D554305600BE04C4D6D686F
:1011E00005F400351DB1504D5543056002E04D4DED
:1011F0005543056002E04B4D056000BF00BF444D04
:101200006D6805F0F0010909484D6B5C0568DD402B
:1012100045603F4D6D6805F4E061090A434D6B5C24
:101220004568DD4085603A4D6D6805F46051C90A36
:101230003E4D6B5C4568DD40C560354D6D6805F41D
:101240004041890B3A4D6B5CC568B5FBF3F5056110
:1012500030BD29B12E4A526902432D4B5A6104E038
:101260002B4A526982432A4B5A61704729B1284A56
:1012700092690243264B9A6104E0254A92698243AF
:10128000234B9A61704729B1214AD2690243204B0E
:10129000DA6104E01E4AD26982431D4BDA6170476D
:1012A00029B11B4AD2680243194BDA6004E0184A9C
:1012B000D2688243164BDA60704729B1144A12692A
:1012C0000243134B1A6104E0114A12698243104B26
:1012D0001A61704712494039086070470F49C86465
:1012E00070470B49C87170470948406A40F08070E8
:1012F00007494862704701460020054A92680A4043
:101300000AB1012000E0002070470149887270474F
:10131000001002400000FFF8FFFFF6FE000042420E
:101320008004424200127A0000093D0014000020AF
:101330002400002010B50446FB48844209D1012155
:101340008803FFF7ADFF00214FF48040FFF7A8FFAF
:1013500032E0F648844209D101214804FFF7ADFF8D
:1013600000214FF40030FFF7A8FF25E0F048844249
:1013700009D101218804FFF7A0FF00214FF480204C
:10138000FFF79BFF18E0EB48844209D10121C80414
:10139000FFF793FF00214FF40020FFF78EFF0BE0D3
:1013A000E548844208D101210805FFF786FF0021A6
:1013B0004FF48010FFF781FF10BD2DE9F04786B094
:1013C00005460E460024A24600BFA1460027B0896C
:1013D00000B100BF2F462C8A4CF6FF700440F08805
:1013E00004432C82AC894EF6F3100440B088318956
:1013F0000843718908430443AC81AC8A4FF6FF402F
:101400000440B0890443AC8201A8FFF7C2FEC6487D
:10141000874202D1DDF810A001E0DDF80CA0A88918
:1014200000F4004040B10AEBCA0000EB0A1031683A
:101430004900B0FBF1F807E00AEBCA0000EB0A1024
:1014400031688900B0FBF1F86420B8FBF0F00401CA
:101450002009642101FB1089A88900F4004040B1F3
:10146000322000EBC900B0FBF1F000F007000443AC
:1014700008E0322000EB09106421B0FBF1F000F02D
:101480000F0004432C8106B0BDE8F0874FF41651DD
:10149000016000218180C18001810C2141810021F6
:1014A0008181704710B502460020108A4FF2FF0379
:1014B00018400B884C8823438C882343CC882343D3
:1014C0001843108210BD0021018041808180C180BD
:1014D000704721B1828942F40052828104E08289FE
:1014E0004DF6FF731A4082817047F0B50346002421
:1014F00000260025002040F66A17B94200D100BF3F
:101500001846C1F3421401F01F06012707FA06F539
:10151000012C01D10C3004E0022C01D1103000E08C
:1015200014301AB107682F43076002E00768AF4321
:101530000760F0BD1AB1838A0B43838202E0838A7D
:101540008B4383827047028A4FF6F0731A400282FF
:10155000028A0A430282704782894FF2FF731A405F
:10156000828182890A438281704721B1828942F057
:101570000202828104E082894FF6FD731A40828163
:101580007047028A4FF6DF731A400282028A0A43CA
:101590000282704721B1028A42F48042028204E052
:1015A000028A4BF6FF731A4002827047C1F30802A9
:1015B0008280704701468888C0F30800704781899F
:1015C00041F0010181817047028BD2B20283028B0C
:1015D00042EA012202837047028B02F47F420283B7
:1015E000028B0A430283704721B1828A42F02002B3
:1015F000828204E0828A4FF6DF731A40828270474B
:1016000021B1828A42F01002828204E0828A4FF67F
:10161000EF731A408282704721B1828A42F0080239
:10162000828204E0828A4FF6F7731A408282704702
:1016300021B1828942F40042828103E08289C2F3AF
:101640000E028281704721B1828A42F40062828256
:1016500004E0828A4FF2FF731A4082827047828AC6
:101660004FF6FB731A408282828A0A438282704755
:1016700021B1828A42F00202828204E0828A4FF61D
:10168000FD731A408282704702460020B1F5007F48
:1016900000D100BF13880B400BB1012000E00020F7
:1016A000704701F40072B2F5007F00D100BFCA4359
:1016B0000280704770B502460024002300250020F8
:1016C00040F66A16B14200D100BFC1F3421501F0E5
:1016D0001F03012606FA03F3012D02D19689334038
:1016E00006E0022D02D1168A334001E0968A33408B
:1016F0000C12012606FA04F41688344013B10CB11A
:10170000012000E0002070BD10B50022002340F64B
:101710006A14A14200D100BF0A1201249440A3B26E
:10172000DC43048010BD000000380140004400404C
:1017300000480040004C00400050004010B500F050
:101740005DF800F027F800F0AFFA00F044FD00F07B
:10175000DFFB0C230AA20021084600F0B3FC0C2397
:101760000AA20021502000F0ADFC00F0E1FA4FF495
:10177000E13000F045F8642000F019F910BD0000D8
:10178000423A2020202056202C200000533A2020CE
:101790002056000008B501211020FFF767FD4FF427
:1017A0000050ADF8000010208DF8030003208DF8E4
:1017B000020069460F48FFF79BF808BD70B5044664
:1017C0000D480068401C0C490860A04210D14FF43D
:1017D00000510848FFF71FF9C0F10100C5B22A46C1
:1017E0004FF400510348FFF734F900200249086024
:1017F00070BD00000010014028000020704700006C
:1018000010B586B00446012144F20900FFF72EFD11
:1018100001210420FFF73DF94020ADF81400182005
:101820008DF8170003208DF8160005A95448FFF71E
:101830005FF88020ADF8140004208DF8170005A98A
:101840004F48FFF755F801940020ADF80800ADF8B7
:101850000A00ADF80C00ADF810000C20ADF80E0039
:1018600001A94848FFF7A9FD4FF4E060FEF74AFDE3
:1018700025208DF8000000208DF8010001208DF852
:1018800002008DF803006846FEF741FD012240F298
:1018900025513C48FFF729FE01213A48FFF719FE80
:1018A00006B010BD70B504460D46E1B23548FFF7ED
:1018B0007DFE00BF80213348FFF7E6FE0028F9D007
:1018C000204670BD10B5044600BF20212D48FFF70B
:1018D000DBFE0028F9D02B48FFF76CFE10BD70B579
:1018E00004460D4640212748FFF7DBFE80212548AE
:1018F000FFF70AFF13E021782248FFF757FE00BFE9
:1019000040212048FFF7C0FE0128F9D140211D48A1
:10191000FFF7C7FE80211B48FFF7F6FE641C281E58
:10192000A5F10105E7D170BD0022174B1A60174AD7
:101930001160174A1060704710B540F225511148E8
:10194000FFF7B8FED8B10F48FFF734FEC4B20F4816
:1019500000680D49096888420CD90D480068047078
:101960000B480068401C0A49086007480068401C92
:101970000549086040F225510248FFF7C5FE10BD39
:10198000000C0140003801403000002034000020ED
:101990002C000020002105E00A2100BF0A1EA1F151
:1019A0000101FBD1021EA0F10100F5D17047002119
:1019B00006E042F6E06100BF0A1EA1F10101FBD181
:1019C000021EA0F1010398B2F3D170472DE9F04156
:1019D0000746884615461C46069E00BF4FF4003158
:1019E0003846FFF791FA0028F8D101213846FFF771
:1019F00088F900BFC9493846FFF764FA0028F9D0D2
:101A0000002241463846FFF7D2F900BFC4493846A4
:101A1000FFF758FA0028F9D029463846FFF7C1F9F0
:101A200000BFBF49891C3846FFF74CFA0028F8D0A0
:101A300001213846FFF765F900BFB8493846FFF77E
:101A400041FA0028F9D0012241463846FFF7AFF9A4
:101A500000BFB249491C3846FFF734FA0028F8D0D5
:101A600001213846FFF765F90EE000BFAB493F3171
:101A70003846FFF727FA0028F8D03846FFF793F9E1
:101A80002070701E86B2641C012EEEDC00213846E8
:101A9000FFF74FF901213846FFF73FF900BF9F4993
:101AA0003F313846FFF70EFA0028F8D03846FFF7E6
:101AB0007AF92070BDE8F0812DE9F04107468846AB
:101AC00015461C46069E00BF4FF400313846FFF70E
:101AD0001BFA0028F8D101213846FFF712F900BFA0
:101AE0008E493846FFF7EEF90028F9D0002241462A
:101AF0003846FFF75CF900BF89493846FFF7E2F93D
:101B00000028F9D029463846FFF74BF900BF844931
:101B1000891E3846FFF7D6F90028F8D00EE0217864
:101B20003846FFF73EF900BF7D49891E3846FFF76A
:101B3000C9F90028F8D0701E86B2641C012EEEDCB4
:101B400021783846FFF72DF900BF7549891C3846C2
:101B5000FFF7B8F90028F8D001213846FFF7DDF883
:101B6000BDE8F0812DE9F04106460F4614461D46BA
:101B700000BF4FF400313046FFF7C6F90028F8D116
:101B800001213046FFF7BDF800BF64493046FFF73A
:101B900099F90028F9D0002239463046FFF707F9B5
:101BA00000BF5F493046FFF78DF90028F9D0214684
:101BB0003046FFF7F6F800BF5949891C3046FFF759
:101BC00081F90028F8D001213046FFF79AF800BFCC
:101BD00052493046FFF776F90028F9D001223946FC
:101BE0003046FFF7E4F800BF4C49491C3046FFF788
:101BF00069F90028F8D000213046FFF79AF8012152
:101C00003046FFF78AF800BF44493F313046FFF7BE
:101C100059F90028F8D03046FFF7C5F82870BDE81C
:101C2000F0812DE9F04106460F4614461D4600BFDF
:101C30004FF400313046FFF767F90028F8D1012151
:101C40003046FFF75EF800BF34493046FFF73AF9F7
:101C50000028F9D0002239463046FFF7A8F800BF27
:101C60002F493046FFF72EF90028F9D0214630469B
:101C7000FFF797F800BF2A49891E3046FFF722F97F
:101C80000028F8D029463046FFF78BF800BF2449DA
:101C9000891C3046FFF716F90028F8D0012130469C
:101CA000FFF73BF8BDE8F08100B585B0012188055C
:101CB000FFF7E9FA01210820FFF7D8FA4FF4406056
:101CC000ADF810001C208DF8130003208DF81200D1
:101CD00004A91448FEF70CFE4FF440611148FEF7CA
:101CE000B4FE114800900020ADF804004BF6FF70E0
:101CF000ADF806004FF48060ADF80A000001ADF8C1
:101D00000C000A20ADF8080069460848FEF757FFA6
:101D100001210648FEF7D1FF05B000BD0100030018
:101D200082000700000C0140801A060000580040A5
:101D300000B587B001210820FFF798FA0320ADF81D
:101D4000180000208DF81B0006A93648FEF7D0FDCC
:101D500001214802FFF78AFA0020019001208DF846
:101D6000080000208DF809004FF460200390002047
:101D7000049001208DF8140001A92B48FEF757FBB1
:101D800001212948FEF77FFB2748FEF79EFB00BF95
:101D90002548FEF79FFB0028FAD12348FEF7A4FB55
:101DA00000BF2148FEF7A5FB0028FAD101211E48FB
:101DB000FEF7A9FB07B000BD10B5044607230122BA
:101DC00021461948FEF7CBFB01211748FEF79BFB84
:101DD00000BF02211448FEF707FD0028F9D0124881
:101DE000FEF724FC10BD2DE9F04107460C46002506
:101DF000002605E03846FFF7DFFF0544701CC6B239
:101E0000A642F7DBB5FBF4F080B2BDE8F08110B577
:101E10000820FFF7D1FF10BD10B50920FFF7CCFF58
:101E200010BD0000000C01400024014070B50446C4
:101E30000D46E3B2EAB27821FE48FFF7F2FE70BD2C
:101E400070B50646002418E004F1B0000021FFF749
:101E5000EDFF00210846FFF7E9FF00211020FFF702
:101E6000E5FF002505E001213046FFF7DFFF681C94
:101E7000C5B2802DF7DB601CC4B2082CE4DB70BD5A
:101E800006E041F6650100E0491E0029FCD1401E34
:101E90000028F6D17047014605E0002001E0421C11
:101EA000D0B27B28FBDB0A1EA1F10101F5D17047FE
:101EB00070B504460D4605F1B0000021FFF7B6FFEE
:101EC000102141EA14100021FFF7B0FF04F00F00C9
:101ED0000021FFF7ABFF70BD10B500218D20FFF78B
:101EE000A5FF00211420FFF7A1FF0021AF20FFF77D
:101EF0009DFF10BD10B500218D20FFF797FF002139
:101F00001020FFF793FF0021AE20FFF78FFF10BDD9
:101F100070B5002418E004F1B0000021FFF786FF3F
:101F200000210846FFF782FF00211020FFF77EFF07
:101F3000002505E040210020FFF778FF681CC5B2AE
:101F4000802DF7DB601CC4B2082CE4DB70BD70B5DB
:101F5000002418E004F1B0000021FFF767FF002122
:101F60000846FFF763FF00211020FFF75FFF002501
:101F700005E040210120FFF759FF681CC5B2802D04
:101F8000F7DB601CC4B2082CE4DB70BD2DE9F04720
:101F900007460E469046994600250024A8F12000E9
:101FA000C5B27F2F02DD0027B01CC6B2B9F1100FF9
:101FB00024D131463846FFF77BFF002408E004EBCC
:101FC00005119D4A505C4021FFF730FF601CC4B2F0
:101FD000082CF4DB701CC1B23846FFF769FF0024FF
:101FE00009E004EB05110831934A505C4021FFF7EA
:101FF0001DFF601CC4B2082CF3DB12E031463846EA
:10200000FFF756FF00240AE005EB45018B4A02EB7F
:102010004101085D4021FFF709FF601CC4B2062C96
:10202000F2DBBDE8F08710B50246012000E0504326
:102030000B1EA1F10104E1B2F9D110BD2DE9FF5F42
:10204000074691461E460E9D4FF0000A002435E0DB
:10205000301B401EC1B20A20FFF7E5FFB9FBF0F0CC
:102060000A21B0FBF1F201FB1208BAF1000F14D102
:10207000701EA04211DDB8F1000F0CD1AB4605EB8C
:10208000DB71491001FB0471C8B22B462022019973
:10209000FFF77CFF10E04FF0010AAB4605EBDB7168
:1020A000491001FB0471C8B208F13001CAB22B46D5
:1020B0000199FFF76BFF00BF601CC4B2B442C7DBDD
:1020C000BDE8FF9F2DE9F04104460F4615469846AE
:1020D00000260FE0AA5D434639462046FFF756FF2B
:1020E00004F10800C4B2782C02DD0024B81CC7B289
:1020F000701CC6B2A85D0028ECD1BDE8F0812DE9C6
:10210000F04180460E461546002731464046FFF70F
:10211000CFFE00240AE04A4A02EB8511085D402107
:10212000FFF784FE781CC7B2601CC4B2102CF2DB2F
:10213000701CC1B24046FFF7BBFE00240CE06900F2
:10214000491C3F4A02EB4111085D4021FFF76EFE3A
:10215000781CC7B2601CC4B2102CF0DBBDE8F08163
:102160002DE9F05F06460F4690461C46DDF828A094
:102170004FF0000BE11704EB5171C910A4EBC10142
:1021800031B92046E11704EB5171C1F3C70506E0F0
:102190002046E11704EB5171C910491CCDB23D46F0
:1021A00015E029463046FFF783FEB1460BE059465D
:1021B0000BF1010B1AF801004021FFF737FE09F17E
:1021C000010000F0FF09C145F1DB681CC5B2A54262
:1021D000E7DBBDE8F09F10B5FFF766FD6420FFF771
:1021E000E6FB0021AE20FFF721FE00210846FFF7A5
:1021F0001DFE00211020FFF719FE00214020FFF7EF
:1022000015FE0021B020FFF711FE00218120FFF70D
:102210000DFE0021FF20FFF709FE0021A120FFF79E
:1022200005FE0021A620FFF701FE0021A820FFF7F0
:10223000FDFD07E000580040843600085C340008CB
:102240003800002000213F20FFF7F0FD0021C820CA
:10225000FFF7ECFD0021D320FFF7E8FD0021084641
:10226000FFF7E4FD0021D520FFF7E0FD00218020ED
:10227000FFF7DCFD0021D820FFF7D8FD0021052065
:10228000FFF7D4FD0021D920FFF7D0FD0021F12078
:10229000FFF7CCFD0021DA20FFF7C8FD0021122056
:1022A000FFF7C4FD0021DB20FFF7C0FD0021302037
:1022B000FFF7BCFD00218D20FFF7B8FD00211420A1
:1022C000FFF7B4FD0021AF20FFF7B0FD10BD000007
:1022D0008AB0FFF733FA76E03B49039800F096F8AE
:1022E00003903A49029800F091F80290029800F0A9
:1022F000D3F905460E46039800F0CEF907463A4654
:102300000B4633A0CDE9005600F016FC0520FFF780
:1023100055FA6420FFF74BFBFFF779FD0890FFF7B4
:102320007BFD0790089800F0AAF94FF066322C4B1D
:10233000CDE9000100F0C2F805460022294B00F06B
:102340002FF907460022284B00F0B8F8824600F02B
:10235000B6F90446204600F09FF905462A460B468A
:1023600022A105A800F0F8FB0C2305AA00211020EB
:10237000FFF7A8FE079800F082F982464FF0663218
:10238000174B00F09BF805460022164B00F008F9A9
:10239000074600224FF0804300F090F8CDE900019D
:1023A00000F08DF98146484600F076F905462A4648
:1023B0000B460EA104A800F0CFFB0C2304AA0021B9
:1023C0006020FFF77FFE87E7000020410000A0416A
:1023D000252E3266202C20252E32660A00000000B1
:1023E00066660A400000B0400000264025322E31CB
:1023F00066000000704700BFFEE700BFFEE700BFB9
:10240000FEE700BFFEE7704770477047F0B480EA10
:102410000102D40F4200B2EB410F02D2024608463D
:1024200011464A0042D0C30DDDB2C1F3C752AD1A06
:10243000202D35DAC1F3160141F4000204B15242F5
:10244000C5F1200602FA06F12A411044B3EBD05F31
:1024500023D0C4B1012DA0EBC35009DCF0BC4FF078
:10246000004202EAC352DBB200F5000000F093B96B
:10247000400000F1807000EBC350A0F1807040EA92
:10248000D170490009E0490841EAC071A0EBC3508E
:1024900000F50000400800EBC350F0BC00F072B93A
:1024A0006142012202EB4101001BF6E7F0BC7047DC
:1024B00081F00041AAE780F00040A7E72DE9FE4F38
:1024C00081EA030404F0004421F0004100944FF03D
:1024D000000B23F0004350EA01045ED052EA0304EB
:1024E0005BD0C3F30A54C1F30A552C44A4F2F3346D
:1024F0000194A0FB0254C1F3130141F48011C3F312
:10250000130343F4801301FB024400FB034E840ACF
:10251000970A44EA815447EA8357A4FB0768029567
:102520008D0A05FB07854FEA932C04FB0C54270505
:10253000029D4FEA065847EA1637B5EB08056EEBE1
:10254000070C870E920E47EA811742EA8312A7FB17
:102550000201B6EB0B0164EB00042B0D43EA0C33D4
:102560005E1844EB1C50DA465146E7FB0201C5F306
:1025700013044FEA0B3343EA14534FEA0432019C2D
:1025800043EA0603A4F10C040294009CCDE900B4D4
:1025900000F03EF903B0BDE8F08F00200146F9E7F6
:1025A0002DE9F04D81EA030404F0004B21F00045D1
:1025B00014464FF0000A23F0004150EA050220D0F3
:1025C00054EA01021DD0C5F30A570246C5F31303AE
:1025D000C1F31300C1F30A5640F4801543F480138D
:1025E000A7EB0608101BD64608F2FD3873EB050072
:1025F00002D308F1010801E092185B41B8F1000F25
:1026000003DA00200146BDE8F08D00204FF4801170
:10261000064684460EE0171B73EB050705D3121B15
:1026200063EB050306434CEA010C49084FEA30000E
:1026300092185B4150EA0107EDD152EA030012D033
:1026400082EA040083EA0501084305D0101BAB4170
:1026500006D20122002306E000224FF0004302E0F0
:102660006FF0010253101AEB06004CEB085110EB0F
:102670000A0041EB0B01BDE8F04D00F0BAB80EB511
:1026800040F2334102910021CDE900110A460B4688
:1026900000F0BEF803B000BD00F0004230F0004092
:1026A0000AD0C10D01F56071C0F3160042EA015174
:1026B000C20840071143704700200146704701F0EF
:1026C000004330B421F0004150EA010206D00A0D67
:1026D000A2F56072C1F31301002A02DC30BC0020B5
:1026E0007047440F44EAC104C100E01830BC00EB5D
:1026F000C25000F047B830B50B46014600202022FA
:10270000012409E021FA02F59D4205D303FA02F5FE
:10271000491B04FA02F52844151EA2F10102F1DC5E
:1027200030BD2DE9F05F0546002092469B46884665
:102730000646814640241BE028464146474622463D
:1027400000F0ADF953465A46C01A914110D31146D4
:102750001846224600F094F92D1A67EB01084F46FF
:1027600022460120002100F08BF917EB00094E41B1
:10277000201EA4F10104DFDC484631462A464346C8
:10278000BDE8F09F0029A8BF7047401C490008BF62
:1027900020F00100704710B4B0FA80FC00FA0CF091
:1027A00050EA010404BF10BC704749B1CCF12004C9
:1027B00021FA04F411FA0CF118BF01212143084356
:1027C000A3EB0C01CB1D4FEA00614FEA102042BF82
:1027D000002010BC704700EBC35010440029A4BF78
:1027E00010BC7047401C490008BF20F0010010BC1D
:1027F000704710B5141E73F1000408DA401C41F153
:10280000000192185B411A4301D120F0010010BD74
:102810002DE9F04D92469B4611B1B1FA81F202E0EA
:10282000B0FA80F22032904600F02AF904460F46B2
:1028300040EA0A0041EA0B0153465A46084313D0C6
:10284000114653EA010019D0C8F14002504600F089
:1028500026F905460E4650465946424600F010F904
:10286000084305D0012004E020463946BDE8F08D3C
:102870000020054346EAE0762C4337430A98630577
:10288000E40AA0EB08000022FD0A44EA47540A309B
:1028900002D500200146E9E7010510196941DDE98B
:1028A000084500196941BDE8F04DA2E72DE9FE4F4A
:1028B000804681EA0300C00F0C46009021F00041E1
:1028C00023F00045B8EB0200A94105D2404621465D
:1028D00090461C460B46024623F00040104347D06A
:1028E000270DC7F30A00C3F30A510290401A019062
:1028F00040286BDAC3F3130040F4801B0098924623
:1029000020B10023D2EB030A63EB0B0B019859466D
:10291000C0F14002504600F0B3F806460D4650465E
:102920005946019A00F0CBF810EB080061410024F1
:1029300087EA115284EAE7731A4340D0009A62B3DF
:10294000019A012A4FEA075215DC001B61EB0201D4
:102950004FF0004202EA0752CDE90042001C41F567
:10296000801132462B46FFF753FF03B0BDE8F08FCE
:1029700040462146F9E7001B61EB0201001C41F5CE
:10298000801300185B412018A2F5001747EB0301E4
:1029900040EAD570B6196D4111E06D084FEA360670
:1029A00045EAC0754FEA0752001B61EB0201001CAB
:1029B00041F5801149084FEA300000195141324673
:1029C0002B4603B0BDE8F04FFFF713BF009801227C
:1029D00040000023D0EB020263EBE0730098214635
:1029E0004FEAE074B8EB000061EB0401E9E783F023
:1029F00000435BE781F0004158E7C1F30A52C1F39D
:102A0000130140F2FF3341F480119A4202DA0020B0
:102A10000146704740F233439A42A2F2334202DC4D
:102A2000524200F03CB800F02BB8000030B5041E54
:102A300071F1000404DB4FF00044404264EB0101FB
:102A4000141E73F1000405DB1C464FF00043524294
:102A500063EB0403994208BF904230BD064C074D1A
:102A600006E0E06840F0010394E80700984710345E
:102A7000AC42F6D3FDF73EFB743C0008943C0008E2
:102A8000202A04DB203A00FA02F10020704791402E
:102A9000C2F1200320FA03F3194390407047202A23
:102AA00004DB203A21FA02F00021704721FA02F3F8
:102AB000D040C2F120029140084319467047202AB5
:102AC00006DBCB17203A41FA02F043EAE07306E056
:102AD00041FA02F3D040C2F1200291400843194666
:102AE000704770B58C1810F8015B15F0070301D121
:102AF00010F8013B2A1106D110F8012B03E010F861
:102B0000016B01F8016B5B1EF9D12B0705D4002383
:102B1000521E0DD401F8013BFAE710F8013BCB1A25
:102B2000921C03E013F8015B01F8015B521EF9D51A
:102B3000A142D8D3002070BD0FB4054B10B503A936
:102B4000044A029800F0EEF810BC5DF814FB000097
:102B5000A5180008380200200FB4084B10B504A9CE
:102B600002AA039800F0DEF8044602A9002000F053
:102B700070FC204610BC5DF814FB000053340008C4
:102B800002E008C8121F08C1002AFAD17047704736
:102B9000002001E001C1121F002AFBD17047000094
:102BA0002DE9FF5F82B00021DDE90430020DDDF880
:102BB00040B0034318D044F61050A2F2FF32424313
:102BC0001514119801281FD0A5EB0B00401C5FEADB
:102BD000000A4FF000064E4FDFF83891B0465046DD
:102BE00015D5CAF1000413E0119801244AA3012865
:102BF00001D16FEA0B010298119AC0E90031C0E9D6
:102C0000024206B0BDE8F09FCBF10000DFE70446CA
:102C10000021404A491842EB0450CDE9001012E06F
:102C2000E00707D032463B4640464946FFF746FCA0
:102C30008046894632463B4610461946FFF73EFC21
:102C400006460F466410002CEAD1DDE90401DDE9F7
:102C50000023BAF1000F06DAFFF730FC42464B467C
:102C6000FFF72CFC05E0FFF79BFC42464B46FFF7C5
:102C700097FC04460E460022284BFFF7D7FE03D8E8
:102C80004FF0FF30014607E00022254B2046314639
:102C9000FFF70CFEFFF7B1FE102409E0002C0ADB61
:102CA0000A220023FFF73DFD039B30321A55641EB4
:102CB00050EA0102F2D1641C039AC4F111031444D6
:102CC000119A012A03D0012208430DD10AE00843DA
:102CD00004D000204FF0110B119072E7A3EB0B050D
:102CE0006D1E0DE05B4504DD4FF0000205F10105AE
:102CF00004E003DA4FF00002A5F10105002AECD050
:102D000002981199C0E90231C0E9004579E7000055
:102D1000000014400000F03F300000000000F043CD
:102D20000000E03F2DE9FF4F95B09B4689460646DF
:102D300000250FE2252877D100242746F84A0121F3
:102D4000059400E0044316F8013F203B01FA03F02C
:102D50001042F7D130782A2811D06FF02F03307845
:102D6000A0F13002092A16D8059A44F0020402EBB9
:102D7000820203EB42021044761C0590EFE759F8FB
:102D8000042B0592002A03DA504244F400540590C3
:102D900044F00204761C30782E2816D116F8010F64
:102DA00044F004042A280DD06FF02F023078A0F1EF
:102DB0003003092B09D807EB870302EB4303C7183D
:102DC000761CF3E759F8047B761C30786C280FD01A
:102DD00006DC4C2817D068280DD06A2814D104E0EE
:102DE000742810D07A280FD10DE044F400140AE0C2
:102DF00044F4801401E044F440147278824202D119
:102E000004F58014761C761C307866280BD013DC11
:102E1000582877D009DC002875D04528F6D04628F8
:102E2000F4D047281AD19DE118E0632835D06428F2
:102E300079D0652812D195E1702873D008DC672815
:102E4000F1D069286FD06E280DD06F2806D1B5E07B
:102E500073282CD0752875D0782874D05A461799C5
:102E600090476D1C75E1C4F30250022809D0032875
:102E70000DD0D9F8001004280DD00D6009F1040917
:102E800067E1D9F80010EA17C1E90052F6E7D9F86E
:102E900000100D80F2E70D70F0E719F8041B8DF8B3
:102EA000001000208DF80100EA46012003E059F8E7
:102EB00004AB4FF0FF3061074FF0000102D40DE08A
:102EC00008F101018846B9420FDA8045F8DB1AF8AB
:102ED00008100029F4D108E008F101018846814278
:102EE000FADB1AF808100029F6D105985B46A0EB2A
:102EF000080721463846179A00F094FA284400EB58
:102F0000080507E04DE029E10DE01AF8010B5A46EB
:102F100017999047B8F10108F7D25B462146384629
:102F2000179A13E142E00A220092C4F302524FF0D2
:102F3000000A022A08D059F804CB032A4FEAEC71A0
:102F40000AD00DE029E02AE009F1070121F007028B
:102F5000F2E802C1914609E00FFA8CFC4FEAEC71ED
:102F6000042A03D14FFA8CFC4FEAEC71002907DAEE
:102F70000A460021DCF1000C61EB02012D2202E087
:102F8000220504D52B228DF80420012203E0E2075C
:102F900001D02022F7E7904659E00A2102E01022F2
:102FA0000DE010214FF0000A00910BE010224FF0CD
:102FB000000A44F004040827009203E008224FF0BE
:102FC000000A0092C4F30252022A05D059F804CB39
:102FD0000021032A08D009E009F1070121F00702C6
:102FE000F2E802C1914605E01FFA8CFC042A01D1E7
:102FF0000CF0FF0C4FF00008220728D5702806D0EF
:10300000009B83F0100353EA0A0305D00EE0402230
:103010008DF80420012208E05CEA010206D030228B
:103020008DF804208DF8050002229046009B83F065
:10303000080353EA0A030AD15CEA010201D16207DC
:1030400005D530228DF804204FF001087F1E582846
:1030500004D034A003900EA802900DE036A0F9E74A
:1030600053466046009AFFF75CFB84460398825CF7
:103070000298401E029002705CEA0100F0D10298B2
:1030800006A9081A00F1200A600702D524F480344A
:1030900000E00127574502DDA7EB0A0000E0002011
:1030A00000EB0A01009005984144401A0590E003A6
:1030B00006D45B462146179A059800F0B3F90544FB
:1030C000002706E001A85A46C05D179990476D1C7D
:1030D0007F1C4745F6DBE0030CD55B462146179A7B
:1030E000059800F09FF9054404E030205A461799EE
:1030F00090476D1C0099481E00900029F5DC08E0FF
:10310000029802995A460078491C029117999047F3
:103110006D1CBAF10001AAF1010AF1DC65E10000C1
:10312000092801003031323334353637383961629D
:103130006364656600000000303132333435363761
:1031400038394142434445460000000000F058F938
:103150000544761C307800287FF4ECAD19B0284681
:10316000BDE8F08F620700D4062709F1070222F0BC
:10317000070CFCE80223E14603F000485FEA080C74
:1031800002D00FF2702C0DE05FEA045C02D50FF262
:10319000682C07E05FEAC47C02D00FF2602C01E0EB
:1031A000AFF2700C4FF0FF3823F00043CDF850C061
:1031B00065280CD006DC452809D046281DD04728B4
:1031C0003DD13DE0662818D067287ED138E0002147
:1031D000112F01DB112000E0781CCDE9000106A9C8
:1031E0000EA8FFF7DDFCDDE90F010E9A0391002127
:1031F000009207F1010A04914DE04FF00040009762
:10320000CDE9011006A90EA8FFF7CAFCDDE90F02FF
:1032100003920E9B11990022DDF80CA000930492FA
:1032200011B9791C00EB010AB7EB0A0004D4C0F114
:10323000FF3007F1010A0490AAEB0700019044E077
:10324000012F00DA01270021112F01DD112000E0FC
:103250003846CDE9000106A90EA8FFF7A1FCDDE97B
:103260000F010E9A0391002104910092BA462107A2
:103270000CD40399514500DA8A46BAF1010F05DDF5
:10328000009AAAF10101515C302908D0B84202DA53
:1032900010F1040F06DA0121CDE9011015E0AAF1C1
:1032A0000101E9E7002805DC049901440491AAEB37
:1032B000000102E0411C514500DD8A460499401A94
:1032C000401C01904FF000400290200704D4019868
:1032D000504501DBCDF8048000208DF84F000298A6
:1032E0000DF14F07B0F1004F25D02B200E90029822
:1032F0004FF0020800280CDA404202902D200E9078
:1033000007E00A210298FFF7F6F93031029007F83A
:10331000011DB8F10001A8F10108F2DC02980028B3
:10332000EFD1791E0E980870307800F0200040F040
:10333000450007F8020D12A8C01B00F107081498F9
:10334000007800B1012000EB0A01019801EBE07167
:1033500005984144401A401E0590E00306D45B46A0
:103360002146179A059800F05DF8054414980078F6
:1033700018B15A46179990476D1CE00324D55B4657
:103380002146179A059800F04DF805441CE0049872
:10339000002807DBDDE90301884203DD0098405C7B
:1033A000179901E0179930205A469047049805F183
:1033B0000105401C04900198401E019004D12E206C
:1033C0005A46179990476D1CBAF10001AAF1010AFB
:1033D000DDDC05E017F8010B5A46179990476D1C84
:1033E000B8F10001A8F10108F4DC5B462146179A08
:1033F0000598ABE62D0000002B0000002000000027
:103400002DE9F041044600251E461746880404D4E1
:1034100005E039462020B0476D1C641EF9D52846CA
:10342000BDE8F0812DE9F041044600251E46904696
:10343000C80301D5302700E02027880404D505E023
:1034400041463846B0476D1C641EF9D52846BDE894
:10345000F0810A68531C0B60107070470000000078
:1034600000000000002F000000000700070000140B
:103470007F147F1400242A7F2A1200626408132319
:1034800000364955225000000503000000001C22B0
:103490004100000041221C000014083E08140008EE
:1034A000083E0808000000A060000008080808089E
:1034B000000060600000002010080402003E514936
:1034C000453E0000427F40000042615149460021D4
:1034D00041454B31001814127F10002745454539EE
:1034E000003C4A4949300001710905030036494949
:1034F000493600064949291E000036360000000002
:10350000563600000008142241000014141414144C
:1035100000004122140800020151090600324959F5
:10352000513E007C1211127C007F49494936003E11
:1035300041414122007F4141221C007F49494941CC
:10354000007F09090901003E4149497A007F0808C6
:10355000087F0000417F4100002040413F01007F83
:1035600008142241007F40404040007F020C027F4F
:10357000007F0408107F003E4141413E007F090961
:103580000906003E4151215E007F09192946004687
:10359000494949310001017F0101003F4040403F5E
:1035A000001F2040201F003F4038403F00631408A8
:1035B0001463000708700807006151494543000083
:1035C0007F41410000552A552A55000041417F00A6
:1035D000000402010204004040404040000001029B
:1035E0000400002054545478007F48444438003884
:1035F0004444442000384444487F0038545454180C
:1036000000087E0901020018A4A4A47C007F08041D
:1036100004780000447D4000004080847D00007FED
:10362000102844000000417F4000007C041804780A
:10363000007C0804047800384444443800FC242406
:1036400024180018242418FC007C080404080048EE
:103650005454542000043F444020003C4040207C0F
:10366000001C2040201C003C4030403C00442810FE
:103670002844001CA0A0A07C004464544C441414B2
:1036800014141414000000000000000000000000EA
:1036900000000000000000F80000000000000033FF
:1036A0003000000000100C06100C060000000000A6
:1036B0000000000040C07840C0784000043F04048F
:1036C0003F040400007088FC08300000001820FF50
:1036D000211E0000F008F000E018000000211C038B
:1036E0001E211E0000F00888700000001E21232407
:1036F0001927211010160E00000000000000000025
:1037000000000000000000E01804020000000007B4
:103710001820400000020418E000000000402018BB
:1037200007000000404080F0804040000202010F8E
:1037300001020200000000F0000000000101011F72
:1037400001010100000000000000000080B07000D6
:103750000000000000000000000000000001010166
:1037600001010101000000000000000000303000F5
:1037700000000000000000008060180400601806CF
:103780000100000000E010080810E000000F102009
:1037900020100F00001010F8000000000020203F53
:1037A00020200000007008080888700000302824DD
:1037B000222130000030088888483000001820207E
:1037C00020110E000000C02010F8000000070424A3
:1037D000243F240000F808888808080000192120E8
:1037E00020110E0000E0108888180000000F112042
:1037F00020110E0000380808C83808000000003FFB
:10380000000000000070880808887000001C222159
:1038100021221C0000E010080810E0000000312206
:1038200022110F00000000C0C000000000000030A6
:1038300030000000000000800000000000008060F8
:103840000000000000008040201008000001020479
:103850000810200040404040404040000404040460
:10386000040404000008102040800000002010081C
:1038700004020100007048080808F0000000003051
:1038800036010000C030C828E810E00007182724DF
:1038900023140B000000C038E0000000203C23028D
:1038A0000227382008F8888888700000203F2020F0
:1038B00020110E00C0300808080838000718202022
:1038C0002010080008F808080810E000203F202019
:1038D00020100F0008F88888E8081000203F2020FA
:1038E0002320180008F88888E8081000203F2000EE
:1038F00003000000C0300808083800000718202026
:10390000221E020008F808000008F808203F2101E4
:1039100001213F20000808F8080800000020203F8F
:103920002020000000000808F8080800C0808080FF
:103930007F00000008F888C028180800203F2001F8
:103940002638200008F8080000000000203F202052
:103950002020300008F8F800F8F80800203F003F69
:10396000003F200008F830C00008F808203F200081
:1039700007183F00E01008080810E0000F10202092
:1039800020100F0008F808080808F000203F210167
:1039900001010000E01008080810E0000F182424BE
:1039A00038504F0008F8888888887000203F200031
:1039B000030C3020007088080808380000382021E7
:1039C00021221C00180808F8080818000000203FF1
:1039D0002000000008F808000008F808001F202058
:1039E00020201F000878880000C838080000073829
:1039F0000E010000F80800F80008F800033C07007A
:103A0000073C0300081868808068180820302C03E1
:103A1000032C30200838C800C83808000000203FB8
:103A20002000000010080808C838080020382621A7
:103A300020201800000000FE020202000000007FAB
:103A400040404000000C30C00000000000000001B9
:103A50000638C00000020202FE00000000404040A4
:103A60007F000000000004020202040000000000C9
:103A70000000000000000000000000008080808046
:103A8000808080800002020400000000000000002E
:103A900000000000000080808080000000192422C7
:103AA00022223F2008F8008080000000003F112003
:103AB00020110E000000008080800000000E112008
:103AC00020201100000000808088F800000E1120E6
:103AD00020103F200000808080800000001F2222F4
:103AE00022221300008080F0888888180020203F60
:103AF000202000000000808080808000006B949473
:103B00009493600008F8008080800000203F21002E
:103B100000203F2000809898000000000020203FF7
:103B200020200000000000809898000000C08080E5
:103B3000807F000008F8000080808000203F240281
:103B40002D302000000808F8000000000020203F71
:103B5000202000008080808080808000203F200026
:103B60003F20003F8080008080800000203F2100B7
:103B700000203F200000808080800000001F202067
:103B800020201F00808000808000000080FFA12096
:103B900020110E000000008080808000000E1120A7
:103BA00020A0FF80808080008080800020203F2136
:103BB00020000100000080808080800000332424E9
:103BC00024241900008080E0808000000000001F95
:103BD000202000008080000000808000001F202046
:103BE00020103F20808080000080808000010E3007
:103BF0000806010080800080008080800F300C0368
:103C00000C300F0000808000808080000020312E6A
:103C10000E312000808080000080808080818E7046
:103C20001806010000808080808080000021302CF8
:103C30002221300000000000807C02020000000011
:103C4000003F404000000000FF00000000000000B6
:103C5000FF0000000002027C800000000040403FA6
:103C60000000000000060101020204040000000040
:103C700000000000943C0008000000203C0200000E
:103C8000E22A00088C3D00083C02002004040000E9
:103C9000902B00081184A24A04680901020304065B
:103CA0000708090C69100510020406081540404277
:103CB000CC000B1440A09E8282829EA02020000D8A
:103CC000113F908840432C1028464180801C100CE6
:103CD00044012B45C606041144140C3809804020C9
:103CE0001E2040407F2003124040380908884828A1
:103CF000180FE8080109111F2B0809013AFF0609EE
:103D0000112139C0000A1304F49494FF9494F4042C
:103D1000080E1040201F20484442415F4142444861
:103D20008029764C88780F7F0911601E2010484644
:103D300041012A7F050911C029350B18C838402ECA
:103D400008040201FF3C19010213FF080E12C8B853
:103D50008FE888C820900C030C902060161808FF8C
:103D600004041A3FC204144040702809FC2424248F
:103D7000FC2526240802110400101540308F808491
:0C3D80004C55252525554C808080000006
:04000005080000ED02
:00000001FF
