:020000040800F2
:1000000098080020E1010008A1240008A3240008AA
:10001000A7240008AB240008AF240008000000005B
:10002000000000000000000000000000B3240008F1
:10003000B524000800000000B7240008F9010008FA
:10004000FB010008FB010008FB010008FB010008A0
:10005000FB010008FB010008FB010008FB01000890
:10006000FB010008FB010008FB010008FB01000880
:10007000FB010008FB010008FB010008FB01000870
:10008000FB010008FB010008FB010008FB01000860
:10009000FB010008FB010008FB010008FB01000850
:1000A000FB010008FB010008FB010008FB01000840
:1000B000FB010008FB010008FB010008FB01000830
:1000C000FB010008FB010008FB010008FB01000820
:1000D000FB010008311A0008FB010008FB010008C1
:1000E000FB010008FB010008FB01000800F002F81A
:1000F00000F067F80AA090E8000C82448344AAF15B
:100100000107DA4501D100F05CF8AFF2090EBAE858
:100110000F0013F0010F18BFFB1A43F0010318473B
:100120002C4300004C4300000A444FF0000C10F830
:10013000013B13F0070408BF10F8014B1D1108BF65
:1001400010F8015B641E05D010F8016B641E01F805
:10015000016BF9D113F0080F1EBF10F8014BAD1C55
:100160000C1B09D16D1E58BF01F801CBFAD505E073
:1001700014F8016B01F8016B6D1EF9D59142D6D3CD
:10018000704700000023002400250026103A28BFF5
:1001900078C1FBD8520728BF30C148BF0B607047F9
:1001A000662903F0FB84002070471FB502F076FC3F
:1001B00004000020002103F0C9F9E0601FBD10B564
:1001C00010BD02F06BFD1146FFF7EFFF02F0FCF8E7
:1001D00002F089FD03B4FFF7F2FF03BC02F0CCFD8F
:1001E0000948804709480047FEE7FEE7FEE7FEE7CB
:1001F000FEE7FEE7FEE7FEE7FEE7FEE70448054907
:10020000054A064B70470000FF020008ED00000899
:1002100098020020980800209804002098040020EC
:100220000CB50020019000906C48006840F48030CC
:100230006A49086000BF6948006800F40030009017
:100240000198401C0190009818B90198B0F5A06F72
:10025000F1D16248006800F4003010B10120009034
:1002600001E0002000900098012843D15C4800681C
:1002700040F010005A4908600846006820F003006A
:1002800008600846006840F0020008605348406873
:10029000524948600846406848600846406840F453
:1002A000806048600846406820F47C10486008463A
:1002B000406840F4E81048600846006840F08070EC
:1002C000086000BF4548006800F000700028F9D0C1
:1002D0004248406820F003004049486008464068B2
:1002E00040F00200486000BF3C48406800F00C004D
:1002F0000828F9D10CBD10B5FFF792FF10BD10B55D
:100300003648006840F001003449086008464068FB
:10031000344908403149486008460068324908407D
:100320002E4908600846006820F4802008600846CE
:10033000406820F4FE0048604FF41F008860FFF71B
:10034000DAFF4FF000602949086010BD10B50021A8
:1003500000200022214B5B6803F00C0121B104292D
:1003600006D0082928D107E0214B224C236027E042
:100370001F4B204C236023E0184B5B6803F4701084
:10038000164B5B6803F48032022303EB904022B9E2
:10039000194B4343174C23600DE0104B5B6803F48B
:1003A000003323B1144B4343124C236003E0104B42
:1003B0004343104C236003E00D4B0E4C236000BF01
:1003C00000BF064B5B68C3F303130C4CE15C094BA5
:1003D0001B68CB40074C236010BD0000001002409A
:1003E000002002400000FFF8FFFFF6FE08ED00E0ED
:1003F00000127A000000002000093D0004000020E7
:1004000031490143314A1160704770B50021002322
:100410000F22C47804B32D4C246804F4E064C4F5BE
:10042000E064210AC1F10403CA40447804FA03F1EC
:100430008478144021430901254C0678A15504789D
:1004400004F01F050124AC4005786D11AD0005F1E5
:10045000E025C5F8004109E0047804F01F050124F7
:10046000AC401C4D0678761145F8264070BD1A4AFE
:100470000A400243154B1B1F1A60704739B1134ADB
:10048000121D12680243114B1B1D1A6006E00F4A31
:10049000121D126882430D4B1B1D1A607047042801
:1004A00008D14FF0E021096941F004014FF0E0224A
:1004B000116107E04FF0E021096921F004014FF0DC
:1004C000E0221161704700000000FA050CED00E029
:1004D00000E400E080E100E080FFFF1F10B504466B
:1004E000FA48844208D10121401500F057FF00214D
:1004F000601500F053FF17E0F548844208D1012150
:10050000001500F04BFF0021201500F047FF0BE025
:10051000F048844208D10121C80300F03FFF0021C8
:100520004FF4004000F03AFF10BD30B50246002005
:1005300000235068E84C20400D790C6844EA0524FB
:10054000204350609068E54C2040D1E902542C4390
:100550004D7944EA450420439060D06A20F470004D
:100560000C7C641EE4B2234340EA0350D06230BDE9
:1005700000210160017141718160C160012101743C
:10058000704721B1826842F00102826003E0826814
:1005900022F001028260704721B1826842F48072C9
:1005A000826003E0826822F480728260704710B536
:1005B0000023CBB21AB144681C43446002E0446893
:1005C0009C43446010BD816841F008018160704720
:1005D000014600208A6802F008020AB1012000E00A
:1005E00000207047816841F0040181607047014636
:1005F00000208A6802F004020AB1012000E0002015
:10060000704721B1826842F4A002826003E08268F0
:1006100022F4A00282607047014600208A6802F43A
:1006200080020AB1012000E00020704710B50A46A0
:1006300000210023416821F46041531E41EA433107
:10064000416010BD21B1426842F40062426003E0A3
:10065000426822F4006242607047F0B504460D46DD
:1006600000200021092D11DDE068A5F10A0606EB46
:100670004607072606FA07F18843A5F10A0606EBA6
:10068000460603FA06F10843E0600CE0206905EB3A
:100690004507072606FA07F1884305EB450603FAE6
:1006A00006F108432061072A0FDA606B561E06EB3D
:1006B00086071F2606FA07F18843561E06EB8606B4
:1006C00005FA06F10843606322E00D2A0FDA206B79
:1006D000D61F06EB86071F2606FA07F18843D61FAA
:1006E00006EB860605FA06F10843206310E0E06A8F
:1006F000A2F10D0606EB86071F2606FA07F18843CE
:10070000A2F10D0606EB860605FA06F10843E06243
:10071000F0BD21B1826842F48012826003E08268F9
:1007200022F48012826070470146C86C80B2704724
:1007300066484C300068704721B1426842F48062DC
:10074000426003E0426822F480624260704721B157
:10075000426842F48052426003E0426822F48052D0
:10076000426070470A460021816821F4E04111434C
:100770008160704721B1826842F40042826003E0E8
:10078000826822F400428260704721B1826842F49C
:100790000212826003E0826822F4021282607047D3
:1007A000014600208A6802F400120AB1012000E02C
:1007B00000207047F0B504461546002000220026B0
:1007C000092911DDE068A1F10A0707EB470C0727AB
:1007D00007FA0CF29043A1F10A0707EB470703FA67
:1007E00007F21043E0600CE0206901EB410C0727A1
:1007F00007FA0CF2904301EB410703FA07F21043AA
:100800002061A06BC0F30156EF1C06F1010CA7EBB1
:100810000C0707EB870C1F2707FA0CF29043EF1C1D
:1008200006F1010CA7EB0C0707EB870701FA07F2AB
:100830001043A063F0BD10B50A4600210023816B70
:1008400021F44011531E41EA0351816310BD08B5E4
:10085000002300930090009B0B440093009B1A60C0
:1008600008BD08B5024600200090009201F1280062
:10087000009B184400900098006880B208BD0A46AA
:1008800000214168164B1940114341607047416295
:10089000826270470A460021416821F01F0111431E
:1008A0004160704740B109490831096841F40001CD
:1008B000064A0832116007E004490831096821F44A
:1008C0000001024A08321160704700000024014014
:1008D00000280140003C0140FFFEF0FFFDF7F1FF62
:1008E000FFFD3FFF0246002013680B400BB10120C3
:1008F00000E000207047CA430260704770B50246AE
:100900000020002300240B125568CEB205EA06042D
:1009100015681D4015B10CB1012000E0002070BD2C
:1009200000220A12D34303607047000010B504464A
:10093000CC48844208D10121042000F02FFD002181
:10094000042000F02BFD46E0C748844208D1012175
:10095000082000F023FD0021082000F01FFD3AE0F0
:10096000C248844208D10121102000F017FD002167
:10097000102000F013FD2EE0BD48844208D1012173
:10098000202000F00BFD0021202000F007FD22E0D8
:10099000B848844208D10121402000F0FFFC00212A
:1009A000402000F0FBFC16E0B348844208D101214E
:1009B000802000F0F3FC0021802000F0EFFC0AE032
:1009C000AE48844207D10121801500F0E7FC0021E8
:1009D000A01500F0E3FC10BD10B50121084600F0A1
:1009E000DDFC0021012000F0D9FC10BD2DE9F04113
:1009F000024600250026002000230024002791F84D
:100A000003C00CF00F0591F803C00CF0100CBCF102
:100A1000000F03D091F802C04CEA050591F800C020
:100A2000BCF1000F31D0146800202BE04FF0010C16
:100A30000CFA00F3B1F800C00CEA03069E4220D184
:100A400083004FF00F0C0CFA03F7BC4305FA03FCCC
:100A50004CEA040491F803C0BCF1280F06D14FF012
:100A6000010C0CFA00FCC2F814C00AE091F803C0B3
:100A7000BCF1480F05D14FF0010C0CFA00FCC2F894
:100A800010C0401C0828D1D31460B1F800C0BCF1DC
:100A9000FF0F34DD546800202EE000F1080C4FF009
:100AA000010808FA0CF3B1F800C00CEA03069E42F4
:100AB00021D183004FF00F0C0CFA03F7BC4305FA69
:100AC00003FC4CEA040491F803C0BCF1280F05D1E3
:100AD00000F1080C08FA0CF8C2F8148091F803C071
:100AE000BCF1480F07D100F1080C4FF0010808FADB
:100AF0000CF8C2F81080401C0828CED35460BDE822
:100B0000F0814FF6FF710180022181700421C170D4
:100B100070470246002093680B400BB1012000E0B3
:100B2000002070470146886880B270470246002066
:100B3000D3680B400BB1012000E000207047014654
:100B4000C86880B2704701617047416170470AB15F
:100B5000016100E041617047C16070474FF480322D
:100B60000A438261816182618269826970470246BB
:100B70000020434B18684FF68073184040EA02107B
:100B800008433F4B186070473E49C8617047F0B555
:100B90000A46002300240021002500F00046B6F19B
:100BA000004F02D1364EF16901E0354E7168C0F355
:100BB000034583B200F44016B6F5401F08D121F07A
:100BC00070612F4E766826F070662D4F7E6012E0C1
:100BD00000F48016B6F5801F06D1032606FA05F448
:100BE000A14341F0706106E0460D360103FA06F6B6
:100BF000B14341F0706122B1460D360103FA06F6A9
:100C0000314300F00046B6F1004F02D11C4EF161B5
:100C100001E01B4E7160F0BD30B500228B071C0F48
:100C20000F2303FA04F2164B08338C1053F82430C8
:100C30009343134C08348D1044F8253023468C1010
:100C400053F824308C07240F00FA04F423430C4C8F
:100C500008348D1044F8253030BD0A49DC31086075
:100C60007047000000080140000C014000100140E6
:100C70000014014000180140001C01400020014008
:100C8000000001400000204210B50446F7488442AD
:100C900009D10121480500F08EFB00214FF400101E
:100CA00000F089FB08E00121880500F084FB0021A9
:100CB0004FF4800000F07FFB10BD2DE9F04385B0BC
:100CC00004460D460026B1460427DFF8A483A68813
:100CD0004FF6C0700640684600F0D9FADDF808808B
:100CE000E448B8FBF0F01FFA80F946EA0906A6804E
:100CF00020884FF6FE71084020800026DE492868D3
:100D000088420CD828684000B8FBF0F087B2042F66
:100D100000DA04273E4309F10100208427E0E88837
:100D20004BF6FF71884206D1286800EB4000B8FB03
:100D3000F0F087B209E0286800EBC00101EB001079
:100D4000B8FBF0F087B247F48047C7F30B0008B94F
:100D500047F0010747F4004006434FF4967009FB43
:100D600000F04FF47A7190FBF1F0401C2084A683D0
:100D7000208840F00100208026884FF6F53006409C
:100D8000A8886989084306432680A88929890843D9
:100D9000208105B0BDE8F08341F288310160002177
:100DA00081804BF6FF71C1800021018141814FF4A8
:100DB00080418181704721B1028842F001020280A6
:100DC00004E002884FF6FE731A400280704721B19A
:100DD000828842F40062828004E082884FF2FF73CE
:100DE0001A408280704721B1828842F4805282800A
:100DF00004E082884EF6FF731A408280704721B16A
:100E0000028842F48072028004E002884FF6FF6399
:100E10001A400280704721B1028842F400720280B9
:100E200004E002884FF6FF531A400280704721B158
:100E3000028842F48062028004E002884FF6FF33A9
:100E40001A40028070470A46002181894FF60173DB
:100E5000194002F0FE0319438181704721B1828954
:100E600042F00102828104E082894FF6FE731A404B
:100E70008281704721B1028842F04002028004E082
:100E800002884FF6BF731A40028070471AB18388F8
:100E90000B43838002E083888B4383807047018209
:100EA00070470146088AC0B2704712B141F0010193
:100EB00002E04FF6FE7319400182704708B5024602
:100EC000002000900092009808440090009800884C
:100ED00008BD21B1028842F40042028003E002888A
:100EE000C2F30E0202807047B1F5006F04D1028890
:100EF00042F40062028004E002884FF2FF731A405D
:100F000002807047B1F5005F04D1028842F40052BC
:100F1000028004E002884DF6FF731A400280704799
:100F200021B1028842F48052028004E002884EF629
:100F3000FF731A4002807047B1F5006F04D1028838
:100F400042F40062028004E002884FF2FF731A400C
:100F50000280704721B1028842F02002028004E042
:100F600002884FF6DF731A40028070470146088BF3
:100F70000012704721B1028842F01002028004E0A2
:100F800002884FF6EF731A400280704721B9028839
:100F900042F08002028004E002884FF67F731A401C
:100FA00002807047B1F5804F05D0828B4BF6FF73FE
:100FB0001A40828303E0828B42F48042828370472E
:100FC00070B502460024002500230020958A138B6B
:100FD0001B0445EA030626F07F4404EA01068E421C
:100FE00001D1012000E0002070BD10B501460020B5
:100FF000002300228B8A0A8B120443EA020424F0A5
:101000007F4010BD0CB502460020002301930093E1
:1010100000920B0F019321F07F41019B1BB1009BBC
:101020001433009303E0090C009B18330093009BDA
:101030001B680B400BB1012000E000200CBD00221A
:1010400021F07F42D3438382704730B502460020AF
:101050000023948801F0E06504EA154321F07F4104
:10106000948A0C4054B14BB1012008E00054004078
:1010700000127A0040420F00A0860100002030BD1F
:10108000002221F07F42D34383827047DF4800680B
:1010900040F00100DD49086008464068DC4908402E
:1010A000DA49486008460068DA490840D7490860CC
:1010B0000846006820F4802008600846406820F454
:1010C000FE0048604FF41F0088607047CF490968F0
:1010D00021F48031CD4A11601146096821F4802144
:1010E0001160B0F5803F03D0B0F5802F0ED106E03F
:1010F000C649096841F48031C44A116007E0C34918
:10110000096841F4A021C14A116000E000BF00BF9E
:10111000704710B501460022002300204A11012A21
:1011200002D1BA4C236806E0022A02D1B74C236AE6
:1011300001E0B64C636A01F01F02012494401C4098
:101140000CB1012000E0002010BD38B50020009057
:101150000024002500BF3120FFF7DBFF0546009883
:10116000401C00900098B0F5A06F01D0002DF2D087
:101170003120FFF7CEFF08B1012400E00024204613
:1011800038BD01460020A14A106820F0F80040EA6E
:10119000C10010607047A0490860704702460020F7
:1011A0009A4B586820F47C1042EA01031843974B8D
:1011B0005860704798490866704701460020934A76
:1011C000506820F003000843506070478F48406823
:1011D00000F00C007047014600208C4A506820F057
:1011E000F00008435060704701460020874A50686D
:1011F00020F4E06008435060704701460020834AB5
:10120000506820F4605040EAC1005060704729B136
:101210007E4A527A02437D4B5A7204E07B4A527AEC
:1012200082437A4B5A7270477B49D83108607047C5
:1012300001460020754A506820F440400843506041
:1012400070470021714A20321170704A82F82010D4
:10125000012802D004280AD104E001216B4A20327F
:10126000117005E00521694A2032117000E000BFCD
:1012700000BF70476949086070476449096A0143C3
:10128000624A11627047654944390860704730B559
:1012900000210022002400235C4D6D6805F00C0144
:1012A00021B1042905D0082923D105E05C4D056052
:1012B00022E05B4D05601FE0544D6D6805F470122F
:1012C000524D6D6805F48034022505EB92421CB93D
:1012D000544D554305600BE04C4D6D6805F40035E9
:1012E0001DB1504D5543056002E04D4D554305601D
:1012F00002E04B4D056000BF00BF444D6D6805F036
:10130000F0010909484D6B5C0568DD4045603F4DC3
:101310006D6805F4E061090A434D6B5C4568DD408A
:1013200085603A4D6D6805F46051C90A3E4D6B5CAD
:101330004568DD40C560354D6D6805F44041890B59
:101340003A4D6B5CC568B5FBF3F5056130BD29B15D
:101350002E4A526902432D4B5A6104E02B4A5269CE
:1013600082432A4B5A61704729B1284A9269024345
:10137000264B9A6104E0254A92698243234B9A6185
:10138000704729B1214AD2690243204BDA6104E057
:101390001E4AD26982431D4BDA61704729B11B4A4C
:1013A000D2680243194BDA6004E0184AD2688243DB
:1013B000164BDA60704729B1144A12690243134B85
:1013C0001A6104E0114A12698243104B1A61704796
:1013D00012494039086070470F49C86470470B498B
:1013E000C87170470948406A40F0807007494862F8
:1013F000704701460020054A92680A400AB1012060
:1014000000E00020704701498872704700100240D8
:101410000000FFF8FFFFF6FE000042428004424257
:1014200000127A0000093D00140000202400002072
:1014300010B50446FB48844209D101218803FFF717
:10144000ADFF00214FF48040FFF7A8FF32E0F648DF
:10145000844209D101214804FFF7ADFF00214FF478
:101460000030FFF7A8FF25E0F048844209D10121B0
:101470008804FFF7A0FF00214FF48020FFF79BFFB7
:1014800018E0EB48844209D10121C804FFF793FF1B
:1014900000214FF40020FFF78EFF0BE0E548844267
:1014A00008D101210805FFF786FF00214FF48010C5
:1014B000FFF781FF10BD2DE9F04786B005460E46C7
:1014C0000024A24600BFA1460027B08900B100BF9A
:1014D0002F462C8A4CF6FF700440F08804432C827F
:1014E000AC894EF6F3100440B08831890843718905
:1014F00008430443AC81AC8A4FF6FF400440B089F6
:101500000443AC8201A8FFF7C2FEC648874202D15D
:10151000DDF810A001E0DDF80CA0A88900F400407F
:1015200040B10AEBCA0000EB0A1031684900B0FB79
:10153000F1F807E00AEBCA0000EB0A1031688900F5
:10154000B0FBF1F86420B8FBF0F00401200964213D
:1015500001FB1089A88900F4004040B1322000EB63
:10156000C900B0FBF1F000F00700044308E03220AE
:1015700000EB09106421B0FBF1F000F00F00044310
:101580002C8106B0BDE8F0874FF4165101600021B0
:101590008180C18001810C214181002181817047BE
:1015A00010B502460020108A4FF2FF0318400B8846
:1015B0004C8823438C882343CC88234318431082D0
:1015C00010BD0021018041808180C180704721B120
:1015D000828942F40052828104E082894DF6FF73D1
:1015E0001A4082817047F0B503460024002600258A
:1015F000002040F66A17B94200D100BF1846C1F377
:10160000421401F01F06012707FA06F5012C01D14B
:101610000C3004E0022C01D1103000E014301AB17B
:1016200007682F43076002E00768AF430760F0BD1B
:101630001AB1838A0B43838202E0838A8B438382BD
:101640007047028A4FF6F0731A400282028A0A43F8
:101650000282704782894FF2FF731A408281828929
:101660000A438281704721B1828942F0020282815D
:1016700004E082894FF6FD731A4082817047028A26
:101680004FF6DF731A400282028A0A4302827047D1
:1016900021B1028A42F48042028204E0028A4BF6BF
:1016A000FF731A4002827047C1F3080282807047BC
:1016B00001468888C0F308007047818941F0010124
:1016C00081817047028BD2B20283028B42EA0122EF
:1016D00002837047028B02F47F420283028B0A432B
:1016E0000283704721B1828A42F02002828204E0A4
:1016F000828A4FF6DF731A408282704721B1828A54
:1017000042F01002828204E0828A4FF6EF731A40A0
:101710008282704721B1828A42F00802828204E00C
:10172000828A4FF6F7731A408282704721B182890C
:1017300042F40042828103E08289C2F30E02828178
:10174000704721B1828A42F40062828204E0828A78
:101750004FF2FF731A4082827047828A4FF6FB7302
:101760001A408282828A0A438282704721B1828A29
:1017700042F00202828204E0828A4FF6FD731A4030
:101780008282704702460020B1F5007F00D100BF81
:1017900013880B400BB1012000E00020704701F4DA
:1017A0000072B2F5007F00D100BFCA4302807047CB
:1017B00070B50246002400230025002040F66A167A
:1017C000B14200D100BFC1F3421501F01F03012651
:1017D00006FA03F3012D02D19689334006E0022D6B
:1017E00002D1168A334001E0968A33400C1201265A
:1017F00006FA04F41688344013B10CB1012000E05D
:10180000002070BD10B50022002340F66A14A142EA
:1018100000D100BF0A1201249440A3B2DC4304802B
:1018200010BD000000380140004400400048004066
:10183000004C00400050004010B500F06CF800F083
:1018400023F800F0ADFA00F042FD00F0DDFB0C23C0
:1018500008A20021084600F0B1FC0C2308A20021D8
:10186000502000F0ABFC00F0DFFA642000F01BF920
:1018700010BD0000423A2020202056202C200000DD
:10188000533A20202056000008B501211020FFF710
:101890006BFD4FF40050ADF8000010208DF80300F0
:1018A00003208DF8020069460F48FFF79FF808BD36
:1018B00070B504460D480068401C0C490860A04201
:1018C00010D14FF400510848FFF723F9C0F101008F
:1018D000C5B22A464FF400510348FFF738F90020FB
:1018E0000249086070BD000000100140280000207F
:1018F00008B54FF4E060FEF783FD19208DF8000075
:1019000001208DF801008DF802008DF80300684673
:10191000FEF77BFD08BD10B5FFF7EAFF10BD000024
:1019200010B586B00446012144F20400FFF71CFD07
:101930004FF40070ADF8140018208DF81700032044
:101940008DF8160005A94C48FFF750F84FF4806059
:10195000ADF8140004208DF8170005A94648FFF7DC
:1019600045F801940020ADF80800ADF80A00ADF884
:101970000C00ADF810000C20ADF80E0001A93F4896
:10198000FFF799FD012240F225513C48FFF72BFE5D
:1019900001213A48FFF71BFE06B010BD70B50446A2
:1019A0000D46E1B23548FFF77FFE00BF8021334886
:1019B000FFF7E8FE0028F9D0204670BD10B50446B8
:1019C00000BF20212D48FFF7DDFE0028F9D02B486D
:1019D000FFF76EFE10BD70B504460D464021274846
:1019E000FFF7DDFE80212548FFF70CFF13E021788B
:1019F0002248FFF759FE00BF40212048FFF7C2FEF2
:101A00000128F9D140211D48FFF7C9FE80211B485C
:101A1000FFF7F8FE641C281EA5F10105E7D170BD93
:101A20000022174B1A60174A1160174A106070475E
:101A300010B540F225511148FFF7BAFED8B10F4852
:101A4000FFF736FEC4B20F4800680D4909688842A6
:101A50000CD90D48006804700B480068401C0A4906
:101A6000086007480068401C0549086040F225519D
:101A70000248FFF7C7FE10BD0008014000380140D2
:101A800030000020340000202C000020002105E060
:101A90000A2100BF0A1EA1F10101FBD1021EA0F123
:101AA0000100F5D17047002106E042F6E06100BF79
:101AB0000A1EA1F10101FBD1021EA0F1010398B29F
:101AC000F3D170472DE9F0410746884615461C467C
:101AD000069E00BF4FF400313846FFF793FA002806
:101AE000F8D101213846FFF78AF900BFC9493846C5
:101AF000FFF766FA0028F9D0002241463846FFF782
:101B0000D4F900BFC4493846FFF75AFA0028F9D083
:101B100029463846FFF7C3F900BFBF49891C38463C
:101B2000FFF74EFA0028F8D001213846FFF767F991
:101B300000BFB8493846FFF743FA0028F9D0012220
:101B400041463846FFF7B1F900BFB249491C384653
:101B5000FFF736FA0028F8D001213846FFF767F979
:101B60000EE000BFAB493F313846FFF729FA0028A5
:101B7000F8D03846FFF795F92070701E86B2641CC5
:101B8000012EEEDC00213846FFF751F901213846DD
:101B9000FFF741F900BF9F493F313846FFF710FA80
:101BA0000028F8D03846FFF77CF92070BDE8F081B6
:101BB0002DE9F0410746884615461C46069E00BFA3
:101BC0004FF400313846FFF71DFA0028F8D1012103
:101BD0003846FFF714F900BF8E493846FFF7F0F991
:101BE0000028F9D0002241463846FFF75EF900BFD1
:101BF00089493846FFF7E4F90028F9D029463846E4
:101C0000FFF74DF900BF8449891E3846FFF7D8F920
:101C10000028F8D00EE021783846FFF740F900BFE1
:101C20007D49891E3846FFF7CBF90028F8D0701E91
:101C300086B2641C012EEEDC21783846FFF72FF9BE
:101C400000BF7549891C3846FFF7BAF90028F8D05B
:101C500001213846FFF7DFF8BDE8F0812DE9F041BA
:101C600006460F4614461D4600BF4FF4003130466D
:101C7000FFF7C8F90028F8D101213046FFF7BFF877
:101C800000BF64493046FFF79BF90028F9D00022D5
:101C900039463046FFF709F900BF5F493046FFF784
:101CA0008FF90028F9D021463046FFF7F8F800BF39
:101CB0005949891C3046FFF783F90028F8D00121E3
:101CC0003046FFF79CF800BF52493046FFF778F9DD
:101CD0000028F9D0012239463046FFF7E6F800BF68
:101CE0004C49491C3046FFF76BF90028F8D0002119
:101CF0003046FFF79CF801213046FFF78CF800BF13
:101D000044493F313046FFF75BF90028F8D03046B0
:101D1000FFF7C7F82870BDE8F0812DE9F0410646CD
:101D20000F4614461D4600BF4FF400313046FFF702
:101D300069F90028F8D101213046FFF760F800BFAB
:101D400034493046FFF73CF90028F9D000223946E3
:101D50003046FFF7AAF800BF2F493046FFF730F9A9
:101D60000028F9D021463046FFF799F800BF2A49EC
:101D7000891E3046FFF724F90028F8D0294630465E
:101D8000FFF78DF800BF2449891C3046FFF718F98A
:101D90000028F8D001213046FFF73DF8BDE8F0817A
:101DA00000B585B001218805FFF7EBFA0121082075
:101DB000FFF7DAFA4FF44060ADF810001C208DF800
:101DC000130003208DF8120004A91448FEF70EFE3C
:101DD0004FF440611148FEF7B6FE11480090002014
:101DE000ADF804004BF6FF70ADF806004FF48060CC
:101DF000ADF80A000001ADF80C000A20ADF80800AB
:101E000069460848FEF759FF01210648FEF7D3FF4F
:101E100005B000BD0100030082000700000C014076
:101E2000801A06000058004000B587B00121082044
:101E3000FFF79AFA0320ADF8180000208DF81B0078
:101E400006A93648FEF7D2FD01214802FFF78CFAB9
:101E50000020019001208DF8080000208DF8090075
:101E60004FF4602003900020049001208DF81400AE
:101E700001A92B48FEF759FB01212948FEF781FBF8
:101E80002748FEF7A0FB00BF2548FEF7A1FB00286E
:101E9000FAD12348FEF7A6FB00BF2148FEF7A7FBB7
:101EA0000028FAD101211E48FEF7ABFB07B000BDA8
:101EB00010B504460723012221461948FEF7CDFB41
:101EC00001211748FEF79DFB00BF02211448FEF7D1
:101ED00009FD0028F9D01248FEF726FC10BD2DE9B7
:101EE000F04107460C460025002605E03846FFF77E
:101EF000DFFF0544701CC6B2A642F7DBB5FBF4F069
:101F000080B2BDE8F08110B50820FFF7D1FF10BD09
:101F100010B50920FFF7CCFF10BD0000000C0140F8
:101F20000024014070B504460D46E3B2EAB27821C0
:101F3000FE48FFF7F2FE70BD70B50646002418E0BB
:101F400004F1B0000021FFF7EDFF00210846FFF784
:101F5000E9FF00211020FFF7E5FF002505E0012142
:101F60003046FFF7DFFF681CC5B2802DF7DB601C31
:101F7000C4B2082CE4DB70BD06E041F6650100E068
:101F8000491E0029FCD1401E0028F6D170470146A9
:101F900005E0002001E0421CD0B27B28FBDB0A1EDA
:101FA000A1F10101F5D1704770B504460D4605F168
:101FB000B0000021FFF7B6FF102141EA1410002104
:101FC000FFF7B0FF04F00F000021FFF7ABFF70BD7B
:101FD00010B500218D20FFF7A5FF00211420FFF789
:101FE000A1FF0021AF20FFF79DFF10BD10B500211C
:101FF0008D20FFF797FF00211020FFF793FF0021AE
:10200000AE20FFF78FFF10BD70B5002418E004F17B
:10201000B0000021FFF786FF00210846FFF782FF8E
:1020200000211020FFF77EFF002505E04021002061
:10203000FFF778FF681CC5B2802DF7DB601CC4B2C7
:10204000082CE4DB70BD70B5002418E004F1B0008A
:102050000021FFF767FF00210846FFF763FF00211B
:102060001020FFF75FFF002505E040210120FFF76A
:1020700059FF681CC5B2802DF7DB601CC4B2082C68
:10208000E4DB70BD2DE9F04707460E4690469946C1
:1020900000250024A8F12000C5B27F2F02DD002713
:1020A000B01CC6B2B9F1100F24D131463846FFF743
:1020B0007BFF002408E004EB05119D4A505C4021A1
:1020C000FFF730FF601CC4B2082CF4DB701CC1B2F7
:1020D0003846FFF769FF002409E004EB05110831D9
:1020E000934A505C4021FFF71DFF601CC4B2082CCE
:1020F000F3DB12E031463846FFF756FF00240AE0D2
:1021000005EB45018B4A02EB4101085D4021FFF7D9
:1021100009FF601CC4B2062CF2DBBDE8F08710B5E5
:102120000246012000E050430B1EA1F10104E1B280
:10213000F9D110BD2DE9FF5F074691461E460E9D61
:102140004FF0000A002435E0301B401EC1B20A20C7
:10215000FFF7E5FFB9FBF0F00A21B0FBF1F201FB5C
:102160001208BAF1000F14D1701EA04211DDB8F1AF
:10217000000F0CD1AB4605EBDB71491001FB04717C
:10218000C8B22B4620220199FFF77CFF10E04FF0E8
:10219000010AAB4605EBDB71491001FB0471C8B2C3
:1021A00008F13001CAB22B460199FFF76BFF00BF5F
:1021B000601CC4B2B442C7DBBDE8FF9F2DE9F0410B
:1021C00004460F461546984600260FE0AA5D434692
:1021D00039462046FFF756FF04F10800C4B2782CB8
:1021E00002DD0024B81CC7B2701CC6B2A85D00286E
:1021F000ECD1BDE8F0812DE9F04180460E46154650
:10220000002731464046FFF7CFFE00240AE04A4A45
:1022100002EB8511085D4021FFF784FE781CC7B2F0
:10222000601CC4B2102CF2DB701CC1B24046FFF738
:10223000BBFE00240CE06900491C3F4A02EB41113F
:10224000085D4021FFF76EFE781CC7B2601CC4B267
:10225000102CF0DBBDE8F0812DE9F05F06460F465B
:1022600090461C46DDF828A04FF0000BE11704EB68
:102270005171C910A4EBC10131B92046E11704EB3B
:102280005171C1F3C70506E02046E11704EB517117
:10229000C910491CCDB23D4615E029463046FFF72E
:1022A00083FEB1460BE059460BF1010B1AF8010011
:1022B0004021FFF737FE09F1010000F0FF09C14599
:1022C000F1DB681CC5B2A542E7DBBDE8F09F10B5A5
:1022D000FFF766FD6420FFF7E6FB0021AE20FFF765
:1022E00021FE00210846FFF71DFE00211020FFF708
:1022F00019FE00214020FFF715FE0021B020FFF756
:1023000011FE00218120FFF70DFE0021FF20FFF7C5
:1023100009FE0021A120FFF705FE0021A620FFF7FE
:1023200001FE0021A820FFF7FDFD07E00058004056
:10233000C83D0008A03B00083800002000213F20D5
:10234000FFF7F0FD0021C820FFF7ECFD0021D320AE
:10235000FFF7E8FD00210846FFF7E4FD0021D52046
:10236000FFF7E0FD00218020FFF7DCFD0021D820F1
:10237000FFF7D8FD00210520FFF7D4FD0021D9206B
:10238000FFF7D0FD0021F120FFF7CCFD0021DA207E
:10239000FFF7C8FD00211220FFF7C4FD0021DB205C
:1023A000FFF7C0FD00213020FFF7BCFD00218D208C
:1023B000FFF7B8FD00211420FFF7B4FD0021AF2086
:1023C000FFF7B0FD10BD000088B0FFF735FA5CE004
:1023D0000520FFF76DFAFFF796FD0690FFF798FDD1
:1023E00005906420FFF75FFB069801F04FFA054661
:1023F0004FF06632254B01F05DFA82460022244BF5
:1024000001F0ECF80022234BCDE9000101F052FA73
:10241000074601F0B1F80446204601F049FB0546A5
:102420002A460B461CA103A800F046F80C2303AA79
:1024300000211020FFF7C2FE059801F027FA4FF0A7
:102440006632124BCDE9000101F034FA0746002252
:102450000F4B01F0C3F8054600224FF0804301F016
:1024600029FA824601F088F88146484601F020FBAF
:1024700005462A460B4608A102A800F01DF80C23C9
:1024800002AA00216020FFF799FEA1E766660A40D4
:102490000000B0400000264025322E3166000000CA
:1024A000704700BFFEE700BFFEE700BFFEE700BFCA
:1024B000FEE77047704770470FB41CB5074B06AA7C
:1024C0007B4469460090059800F0CFFA00206946E9
:1024D00000F0DEFA1CBC5DF814FB0000CD05000026
:1024E00070B5044685690068C10601D5302600E054
:1024F0002026C00707D070BDD4E90121304690479F
:10250000206A401C20626D1EF6D570BD70B5044671
:1025100085690078C00707D170BDD4E9012120206A
:102520009047206A401C20626D1EF6D570BD2DE9D3
:10253000F0474FF0000A89460446C0F820A0204624
:10254000E1688847002876D0252806D0D4E9012103
:102550009047206A401C2062F1E7E1682046002590
:102560008847C4F81CA006460027C4F818A02A2EE5
:1025700009D0304600F0E3FF38B304EB8708303E63
:10258000C8F8186019E059F8041B204604EB8702CC
:102590009161E1688847012F064618D1E06900285B
:1025A00020DA25F020051DE0D8F8180000EB8000A7
:1025B00006EB40003038C8F818002046E16888472C
:1025C000064600F0BCFF0028EED1012F0AD02E2EC7
:1025D00008D12046E16888477F1C0646022F45F057
:1025E0002005C4DBA069002803DA404245F001055C
:1025F000A061E80701D025F01005B6B1A6F14100B1
:10260000192802D8203645F400654A46314620464E
:1026100025604D46FDF7C4FD58B1012806D0ED1DDB
:1026200025F0070000F1080989E704E005F1040935
:1026300085E730468AE7206ABDE8F0877047704733
:10264000704770472DE9FF4F0C461E464FF0FF378D
:102650008BB0D2E90001DDF860800A908A46C1F3B0
:102660000A5505B93D46002108464FF00000BAF171
:10267000000F00F4400005DA00EB80004FF4400149
:1026800001EA50004FEA9059B9F1010F00DDB94657
:102690000A9850EA4A000ED044F61050A5F2FF35D1
:1026A00045432F14B8F1000F1ED07542291E1EDDC0
:1026B000C9F100021CE0B8F1010F4FF0000001D099
:1026C000302103E0F24305E02154401CB042FBDB23
:1026D00030460022002121540B99C1F80880C1E93D
:1026E00000200FB0BDE8F08FBD1B6D1CDEE74A4631
:1026F00000DA694206A800F05BFA06AB93E807002F
:1027000003AB83E8070050460A9900F03CFB8DE8D4
:102710000700A0F500501F3800900398002D0ADD37
:1027200042F21F014A460844002303A90390684669
:1027300000F0A5FD09E0A0F500504A461F3800232F
:1027400003A90390684600F0AFFD8DE80700000480
:10275000000C03D04FF0FF30410800E01046B8F104
:10276000000F03D00022009215461EE0751E05D40E
:1027700000F098F9303262556D1EF9D5B34601224A
:10278000084302D000227F1C04E02078302801D1C9
:1027900000227F1E002A099784D01DE0112D07DA40
:1027A00000F080F9303262556D1C50EA0102F5D11B
:1027B000084302D00098C8B10EE00021681E05E071
:1027C000235C625C63542254401E491C8142F7DB47
:1027D000AB46A81B401E0990002004F80B000B9884
:1027E000099AC0F80880C0E9002B7AE711264FF05B
:1027F000000857E72DE9F04F88460446D21D22F025
:10280000070191B0D1E90001CDE90A0100F083FE92
:1028100002460B98C00F01D02D2007E020688107E9
:1028200001D52B2002E0202101EAC000032A0990F3
:1028300001D0072A05DB03464146204600F078F91F
:102840000BE12078800601D5E06900E00620B8F1B0
:10285000650F814606D0B8F1660F18D0B8F1670F42
:1028600070D131E00020B9F1110F009001DB11238C
:1028700001E009F101030AAA01A90CA8FFF7E2FE91
:10288000DDE90C70002609F10105834647E00120CF
:102890004B4600904FF000470AAA01A90CA8FFF789
:1028A000D1FEDDE90DB00C995D46002610B909F1A5
:1028B00001000D18B9EB050003D4C0F1FF3609F192
:1028C0000105A5EB09002BE0B9F1010F01DA4FF08A
:1028D00001090020B9F1110F0090484601DD1123D4
:1028E00000E003460AAA01A90CA8FFF7ABFEDDE948
:1028F0000C704D4600268346207800070AD4AB456D
:1029000000DA5D4601A8012D04DD411911F8011C12
:10291000302907D04F4502DA17F1040F04DA0120FD
:1029200082460FE06D1EEEE7002F02DCED1B3E44F9
:1029300003E0781CA84200DD7D1CB81B00F1010AF1
:102940004FF000472078000703D4AA4501DB4FF081
:10295000FF3A0021B7F1004F0DF143088DF8431005
:1029600024D002202B23002F01DA7F422D230A21BD
:10297000021EA0F1010000DC5FB197FBF1FC97FBA8
:10298000F1F201FB1C7C17460CF1300C08F801CD6C
:10299000EEE7A8F1010003702188090501D5452162
:1029A00000E06521A0F1010800F8011C09980FA9B9
:1029B000A1EB0807FF1D00B10120411901EBEA70EE
:1029C000A1693844081A401EA0612078C00602D4CC
:1029D0002046FFF785FD099828B1D4E901219047E9
:1029E000206A401C20622078C00622D52046FFF7CE
:1029F00077FD1EE0002E04DBB34502DD01A8805DFB
:102A000000E03020D4E901219047206A401C206278
:102A1000761CAAF101005FEA000A0AD100F03EF834
:102A2000C0680168405CD4E901219047206A401CDD
:102A30002062281EA5F10105DCDC07E0D4E90121B4
:102A400018F8010B9047206A401C2062381EA7F13D
:102A50000107F3DC2046FFF759FD032011B041E6E2
:102A600001694A1C02610878704700B58FB0CDE952
:102A700001310021059105497944CDE90310114642
:102A80006846FFF754FD0FB000BD0000E5FFFFFFF3
:102A90000A6802F8010B0A6070470000004870479E
:102AA0005802002030B5B0F10A024FEA900E71F1E1
:102AB00000034EEA817EB0EB0E0061EB91014FEA1C
:102AC000101E4EEA017E10EB0E0041EB11114FEA91
:102AD000102E4EEA016E10EB0E0041EB11214FEA71
:102AE000104E4EEA014E10EB0E0041EB1141401822
:102AF00041F100014FEAD00040EA41704FEAD101B4
:102B000010EB80054FEA810444EA907444EB010421
:102B10006D1944EB0404521BA3414FF0000348BF5E
:102B20000A3200D530BD401C41F1000130BD00002B
:102B30002DE9F0411F46044603260168072A01F4E7
:102B4000006004DB08B116A505E016A503E008B196
:102B500015A500E015A521F010002060A069C01E99
:102B6000A0610FB1401EA0612046FFF7B9FC4FB134
:102B7000D4E9012138469047206A401C2062C01CDD
:102B8000206206E0206AFAE7D4E9012115F8010B7A
:102B90009047761EF8D22046FFF7B8FCBDE8F081DA
:102BA0004E414E006E616E00494E4600696E6600F1
:102BB0002DE9F047814616468AB0354878440DC85D
:102BC0008DE80D0032487844801C03AC0DC884E8C1
:102BD0000D0041F69B300844372190FBF1F290FB49
:102BE000F1F5A5F1800501FB12041B3C02D56442FE
:102BF000012000E00020DFF898A080460027FA447A
:102C0000AAF1BE0A0EE0E0070AD03246684607EB9A
:102C1000470101230AEB810100F046FB8DE8070024
:102C200064107F1C002CEED1194F7F44AE3F19E099
:102C3000E80715D007EB04100DF1180A90E80E0014
:102C40008AE80E00C068F04201D198190890324617
:102C5000012306A903A800F027FB03AB83E80700C4
:102C60006D10641C002DE3D14FF00103324669461C
:102C7000B8F1000F03A802D000F001FB01E000F062
:102C800013FBC9E90001C9F808200AB0BDE8F087C4
:102C90007418000000487047380200207546FFF79E
:102CA000F9FFAE4605006946534620F00700854609
:102CB00018B020B5FDF7A2FABDE820404FF000069D
:102CC0004FF000074FF000084FF0000B21F0070114
:102CD000AC46ACE8C009ACE8C009ACE8C009ACE857
:102CE000C0098D46704710B50446AFF300802046FA
:102CF000BDE81040FDF76EBA4FF0013C50F8042BD0
:102D000051F8043B9A4221D1A2EB0C03934313EAFE
:102D1000CC1317D150F8042B51F8043B9A4215D12B
:102D2000A2EB0C03934313EACC130BD150F8042B02
:102D300051F8043B9A4209D1A2EB0C03934313EAE6
:102D4000CC13DBD04FF00000704700BFD01A01BA9F
:102D5000B1FA81F101F0180122FA01F0CB40C1F182
:102D60002001DBB2C0B2C01A2CFA01F3D11A914390
:102D700011EAC311E6D1704701491820ABBEFEE746
:102D80002600020070475FEA400C08BF91F0000F78
:102D90004FEA8C234FEAC12243EA51514FEA1C50BB
:102DA00018BF00F5F0404FEA300018BF41F0004175
:102DB0005FEA6C5C00F02980BCF1FF3F08BF40F087
:102DC00080407047130C06BF12044FF0100C4FF0F8
:102DD000000C130E04BF12020CF1080C130F04BFF9
:102DE00012010CF1040C930F04BF92000CF1020CC1
:102DF000D30F04BF52000CF1010C11464FF000023A
:102E0000A0F11F00A0EB0C00704711F0004F08BFAD
:102E1000704731F000413FF4D5AF0B0C06BF0904F9
:102E20004FF0100C4FF0000C0B0E04BF09020CF118
:102E3000080C0B0F04BF09010CF1040C8B0F04BF2D
:102E400089000CF1020CCB0F04BF49000CF1010CFE
:102E5000CCF12003A0EB0C0022FA03F302FA0CF2EF
:102E600041EA030100F10100704720F07F4C80EA45
:102E7000030023F07F47ACEB070303F57C5300F01E
:102E8000004003F1FF032DE980494FEA154B09B4D7
:102E90004FEA144325EA0B4E24EA03480FF20426B6
:102EA00006EB132749083E785FEA320203FB066708
:102EB000C7F5000707FB06F64FEA54374FEAD64638
:102EC00006F1020607FB066CCCF1005C4FEA1C47DA
:102ED0002CEA074C07FB06F40CFB06F504EB154641
:102EE0004FEA961634BF00204FF000404FEAD1372A
:102EF00006FB07FC4FEA1C4C0CFB0BF7D21B03FB39
:102F00000CF761EB07010CFB0EF7B0EB074072EB1F
:102F100017420CFB08F734BFA2EB0742B2EB0742A3
:102F200061EB17414FEA0C444FEA910706FB07FC9F
:102F30004FEA1C4C0CFB0BF7B0EBC74072EB57325F
:102F400003FB0CF734BFA2EBC742B2EBC74261EB05
:102F500057310CFB0EF7B0EBC70072EB57720CFB4E
:102F600008F734BFA2EBC702B2EBC70261EB57719F
:102F7000039F4FEA816141EA921104EBCC044FEACE
:102F8000D1374FEA826206FB07FC42EA90124FEA11
:102F900080604FEA1C4C0CFB0BF7D21B03FB0CF7B9
:102FA00061EB07010CFB0EF7B0EB074072EB174229
:102FB0000CFB08F734BFA2EB0742B2EB074261EB10
:102FC00017414FEA8C554FEA910704EB9C2406FB0E
:102FD00007FC4FEA1C4C0CFB0BF7B0EBC74072EB45
:102FE000573203FB0CF734BFA2EBC742B2EBC74228
:102FF00061EB57310CFB0EF7B0EBC70072EB577269
:103000000CFB08F734BFA2EBC702B2EBC70261EBBF
:10301000577115EB4C254FEA816141EA92114FEA55
:1030200082624FEAD13742EA901206FB07FC44F174
:1030300000044FEA80604FEA1C4C0CFB0BF7D21BDC
:1030400003FB0CF761EB07010CFB0EF7B0EB07403D
:1030500072EB17420CFB08F734BFA2EB0742B2EB4E
:10306000074261EB174115EB1C154FEA813141EA2C
:1030700092414FEA823242EA90424FEA80304FEA70
:103080000C7644F1000448EA03434EEA0B484FF043
:10309000000EB2EB080C71EB030724BF6246394601
:1030A0004EEB0E0E4FF0000B0018524149414BEB16
:1030B0000B0BB2EB080C71EB03077BF1000B24BF89
:1030C000624639464EEB0E0E4FF0000B001852418F
:1030D00049414BEB0B0BB2EB080C71EB03077BF197
:1030E000000B24BF624639464EEB0E0E51EA020732
:1030F00018BF46F0010616EB0E7655F1000254F1AA
:10310000000103D5BDE88901BDE80088BDE889015B
:10311000BDE80048B619524141EB0101A3F101039A
:10312000704780807F7E7D7C7B7A79787776767534
:103130007473727171706F6E6E6D6C6C6B6A6A69AC
:103140006868676666656464636362616160605F46
:103150005F5E5E5D5D5C5C5B5B5A5A5959585857BF
:103160005756565555555454535352525251515027
:1031700050504F4F4F4E4E4D4D4D4C4C4C4B4B4B7A
:103180004A4A4A49494948484847474747464646C0
:1031900045454544444444434343434242424241FB
:1031A0004141002B9C4630D477002BD01CB54FEA10
:1031B000370703B44FF010004FF01001BAF1000FC1
:1031C00006D0BCF1000FDCBF40F0080040F0080161
:1031D0004FF000000FBCBDE810400BF1010BBBF13C
:1031E000010F08BF5FEA170722BF12F1010211F1B8
:1031F00001014FF0004143F1000300F0004043EAB9
:1032000000007047F9D35708D0E746EA064613F1A5
:10321000400F4FEA16461FDD13F1200FDFBF1643A4
:103220000A46002120335B42BED0C3F1200746EAA4
:10323000064602FA07F74FEA164646EA0706C3F1C2
:10324000200722FA03F201FA07F721FA03F14FF0FF
:10325000000342EA0702A7E746EA020646EA0646F4
:103260004FEA164646EA0106BCBF46EA0646360C59
:103270004FF000034FF000024FF0000194E72DE9FA
:10328000804C9A46934670B491E8380007C831EAFA
:10329000400C48BF34EA430C03D5FFF7E6FDFFF7C7
:1032A00080FFF0BCBDE8008C2DE9804C9A46934627
:1032B00070B491E8380007C810F0804F08BF13F0D1
:1032C000804F03D100F005F8FFF76BFFF0BCBDE8BD
:1032D000008C20F07F4780EA030023F07F4C07EB4F
:1032E0000C03A3F57C5300F00040A3F1FE0392F021
:1032F000000F00F0B38095F0000F00F077802DE90B
:1033000001494FEA11404FEA144621EA004800FB08
:1033100006FC24EA064708FB06F607FB08F800FB54
:1033200007F718EB06484CEB164C4FEA124B18EB1C
:1033300007484FEA15464CEB174022EA0B4E0BFBB1
:1033400006FC25EA06470EFB06F607FB0EFE0BFB06
:1033500007F71EEB064E4CEB164C4FF000061EEB2B
:10336000074E4CEB174B18EB0B0840F1000018EB25
:103370000E0B58EB000840F100008F1A4FF00001CF
:103380003CBFC943661B14BFB5EB040C00213CBF16
:10339000C943F61B4FEA17444EEA8E0E27EA04454E
:1033A0004FEA1C4704FB07622CEA074C05FB07F7B2
:1033B0000CFB05F604FB0CFC16EB074642EB174230
:1033C00016EB0C4642EB1C421BEB060658EB0202C6
:1033D000414146EA9E0601D5BDE80189B619524130
:1033E00041EB0101A3F10103BDE801894FEA144556
:1033F0004FEA114724EA054621EA074C05FB07F48A
:1034000006FB07F70CFB06F105FB0CFC11EB074173
:1034100044EB17444FEA124711EB0C4144EB1C44B8
:1034200022EA074C05FB07F206FB07F70CFB06F642
:1034300005FB0CFC16EB074642EB174216EB0C465D
:1034400042EB1C456A1854F1000148BF7047B61999
:10345000524141EB0101A3F10103704795F0000FC8
:1034600037D04FEA11424FEA144721EA024624EAD4
:10347000074C02FB07F106FB07F70CFB06F402FB07
:103480000CFC14EB074441EB17414FEA154714EBD2
:103490000C4441EB1C4125EA074C02FB07F506FBF7
:1034A00007F70CFB06F602FB0CFC16EB074645EB98
:1034B000174516EB0C4645EB1C42121951F1000161
:1034C00048BF7047B619524141EB0101A3F1010316
:1034D00070474FEA14454FEA114724EA054621EAAE
:1034E000074C05FB07F106FB07F70CFB06F24FF054
:1034F000000605FB0CFC12EB074241EB174112EBF7
:103500000C4251EB1C4148BF7047921841EB01013E
:10351000A3F101037047490050EAC12018BF0420FD
:103520004A0D18BF40F0010040F2FF72B2EB515F4C
:1035300008BF40F00200012808BF0520704730385E
:103540000A2801D2012070470020704710B50029D9
:103550000AD00878002807D005487844FFF7CCFB4C
:10356000002801D0002010BD0248784410BD0000A2
:10357000120F00000A0F000021F00042A2F1605279
:10358000B2F5801F01F0004328BFD2F17F6C0BD948
:103590005FEA001C43EAC20242EB507018BF70475A
:1035A00028BF20F001007047B2F5801FBCBF18464D
:1035B00070474FEA410C1CF5001F02D2084600F08C
:1035C000E8BA70B500F020FA00000089FFF7F6BFF6
:1035D0004FF00040A0F58000704700002DE9C04189
:1035E00030B4DFF8A0C23CEA111418BF3CEA13144F
:1035F00000F0EC8081EA03051CEA111444EAD5745A
:1036000018BF1CEA131500F0C780A4EB05044FF0A7
:10361000004545EAC12145EAC32341EA505143EA46
:10362000525304F17F74994204F500344FEAC020EC
:103630004FEAC22208BF904200F09C804FEA136517
:103640000FF24016765D4FEA134506FB05F7C7F10A
:10365000807706FB07F74FEAD737A7FB0368764268
:10366000C8F58038A7FB06CE38BFA8F1010807FBD4
:1036700008E64FF0000EA6FB028CE6FB03CEDCF161
:10368000000CCEF1004E38BFAEF1010EA6FB0C5877
:103690004FF000074FF00005E6FB0E87A1FB08C6C0
:1036A000A0FB07CE16EB0E0645F10005E1FB076512
:1036B00015F1E04E7EBFA4F580345FEA46066D4109
:1036C00016F1800745F100054FEA17274FEA066615
:1036D00047EA0567A6F1DE46B6F1805F4FEA152599
:1036E0001FD9384624F0010C05EBC471BCF1FE6F04
:1036F00001EB0C1102D8F0BCBDE8008124425CBF94
:1037000001F5801E9EEAC47F02D4F0BCBDE80081B2
:10371000244238D4F0BCA1F1C041BDE8004100F022
:10372000C1B94FEAD22242EA43524FEAD323A7FB60
:1037300002864FEAD02040EA415007FB03661EEAAA
:103740000E0F4FEAD12105FB026658BFA6EB0056CB
:10375000B6EB00564FEA520E4EEAC37E18EB0E0E41
:1037600056EB530EBDD518EB02085E417F1C55F198
:103770000005B6E74FF480154FF000074FF0000644
:103780004FF00008ADE7F0BC4FF0000001F1C04180
:1037900001F00041BDE8008111EA0C1F0CEA13158D
:1037A00000D00CE013EA0C1F00F025804FF0000061
:1037B000F0BC81EA030101F00041BDE80081F0BCEA
:1037C000BDE8004181EA030100F06CB9F0BCBDE83E
:1037D000004170B500F018F9097EFC3E00F007B812
:1037E00081EA03014FF0000001F00041704781EAD7
:1037F000030100F057B9F0BCBDE800414FF00000F4
:1038000021497047FFFDFBF9F7F5F4F2F0EEEDEB1F
:10381000E9E8E6E4E3E1E0DEDDDBDAD8D7D5D4D3CE
:10382000D1D0CFCDCCCBCAC8C7C6C5C4C2C1C0BF1A
:10383000BEBDBCBBBAB9B8B7B6B5B4B3B2B1B0AF20
:10384000AEADACABAAA9A8A8A7A6A5A4A3A3A2A104
:10385000A09F9F9E9D9C9C9B9A99999897979695BF
:1038600095949393929191908F8F8E8E8D8C8C8B5B
:103870008B8A8989888887878685858484838382E3
:10388000828181800000FF070000F87FB0FA80F39A
:1038900010FA03F10AD0C3F11D0303F580634FEA68
:1038A00041504FEA035202EBD12170474FF0000024
:1038B00070470000DFF848C170B51CEA111E1EBF3A
:1038C0001CEA13159EEA0C0F95EA0C0F00F06F80AE
:1038D00081EA030423EA4C134EEAD47E21EA4C1118
:1038E00041F4801143F48013AE44A1FB024CA0FBD1
:1038F0000365AEF17F7E361955EB0C05A1FB034C39
:103900004CF10003A0FB021C16EB0C06654153F1C1
:103910000003094218BF46F0010613F4007F0BD1E3
:103920004FEA03314FEA0530340341EA155140EACA
:1039300016506FF003020AE04FEAC3214FEAC52098
:10394000F40241EA555140EA56506FF0020202EB90
:103950002E4201EB025585EACE710AD05FEA440C93
:1039600018BF24F0004450F1000041F1000120EAAA
:10397000D47040F2FE7C624500D270BDA84214BFF4
:103980004FF080444FF04044002E08BF0024BEF1A9
:10399000806FA8BFA1F1C041BDE8704080F2828075
:1039A0004FF0000001F1C04101F0004170479EEA74
:1039B0000C0F0CEA131518BF95EA0C0F06D04FF048
:1039C000000081EA030E0EF0004170BD00F01CF80B
:1039D0008900013E00F007B800F009B84FEA430C37
:1039E0005FEA5C5C08D081EA030100F05BB84FEA53
:1039F000410C5FEA5C5CF6D14FF000000149704772
:103A00000000FF070000F87F0EF1020E2EF0030EFB
:103A10005EF8046B364205D4012A43EB030515F525
:103A2000001F12D8012841EB010C1CF5001F0CD817
:103A30000ED14FEAD17C15F5001F0CEB4C0C0CF1AC
:103A4000020C08BF4CEBD37C04E04FF0080C01E003
:103A50004FEAD37C0CEB4C0526FA05F606F0070678
:103A6000B6F1040C06D20EEB860CBDE870404CF0AB
:103A7000010C6047DFE80CF0090B02024FF0004137
:103A80004FF00000A1F5002170BD19461046012835
:103A900051EB010418BFD4F5001484BF002001F0DD
:103AA000004170BD0808A0F500114FEA31017047D0
:103AB00043004FEAD30C4FEA3C0C43401FBF400782
:103AC0000CF1605113F0FE4F70471CF0006F03D1F2
:103AD00000200CF0004170470CF0004343EA5070A6
:103AE00010B540EACC0000F00EF800BF00000092D4
:103AF0004FEA0001FFF7D6BF4FF000414FF0000042
:103B0000A1F5002170470EF1020E2EF0030E5EF8B3
:103B1000044B244204D44FEA4102B2F17F4F11D842
:103B20004FEA4003B3F17F4F0CD80ED14FEAD07C5F
:103B3000B2F17F4F0CEB4C0C0CF1020C08BF4CEBBC
:103B4000D17C04E04FF0080C01E04FEAD17C0CEB93
:103B50004C0324FA03F404F00704B4F1040C06D275
:103B60000EEB840CBDE810404CF0010C6047DFE820
:103B70000CF0070802024FF00040A0F5800010BDD5
:103B80000846420018BFD2F1807288BF00F00040A2
:103B900010BDFF2141EAD050C0057047FEF72ABE94
:103BA0000000000000000000002F000000000700DF
:103BB000070000147F147F1400242A7F2A12006259
:103BC0006408132300364955225000000503000005
:103BD00000001C224100000041221C000014083E8D
:103BE00008140008083E0808000000A06000000853
:103BF00008080808000060600000002010080402A7
:103C0000003E5149453E0000427F40000042615164
:103C10004946002141454B31001814127F100027FE
:103C200045454539003C4A494930000171090503C1
:103C300000364949493600064949291E00003636F2
:103C40000000000056360000000814224100001455
:103C50001414141400004122140800020151090632
:103C600000324959513E007C1211127C007F4949B3
:103C70004936003E41414122007F4141221C007FE4
:103C800049494941007F09090901003E4149497AF2
:103C9000007F0808087F0000417F4100002040416C
:103CA0003F01007F08142241007F40404040007FD8
:103CB000020C027F007F0408107F003E4141413E1C
:103CC000007F09090906003E4151215E007F091964
:103CD00029460046494949310001017F0101003F61
:103CE0004040403F001F2040201F003F4038403FE1
:103CF0000063140814630007087008070061514945
:103D0000454300007F41410000552A552A550000D7
:103D100041417F0000040201020400404040404055
:103D2000000001020400002054545478007F4844ED
:103D3000443800384444442000384444487F003824
:103D40005454541800087E0901020018A4A4A47C4D
:103D5000007F080404780000447D40000040808417
:103D60007D00007F102844000000417F4000007C5F
:103D700004180478007C080404780038444444386B
:103D800000FC242424180018242418FC007C0804B7
:103D9000040800485454542000043F444020003C90
:103DA0004040207C001C2040201C003C4030403C17
:103DB000004428102844001CA0A0A07C00446454A7
:103DC0004C441414141414140000000000000000EB
:103DD0000000000000000000000000F800000000EB
:103DE000000000333000000000100C06100C06002C
:103DF000000000000000000040C07840C078400093
:103E0000043F04043F040400007088FC08300000F4
:103E1000001820FF211E0000F008F000E01800004C
:103E200000211C031E211E0000F008887000000005
:103E30001E2123241927211010160E000000000057
:103E40000000000000000000000000E01804020074
:103E5000000000071820400000020418E0000000E5
:103E60000040201807000000404080F080404000E3
:103E70000202010F01020200000000F00000000039
:103E80000101011F0101010000000000000000000D
:103E900080B0700000000000000000000000000082
:103EA000000101010101010100000000000000000B
:103EB00000303000000000000000000080601804A6
:103EC000006018060100000000E010080810E00083
:103ED000000F102020100F00001010F8000000004C
:103EE0000020203F20200000007008080888700093
:103EF0000030282422213000003008888848300013
:103F00000018202020110E000000C02010F8000032
:103F100000070424243F240000F8088888080800CB
:103F20000019212020110E0000E0108888180000E0
:103F3000000F112020110E0000380808C8380800B2
:103F40000000003F00000000007088080888700032
:103F5000001C222121221C0000E010080810E000B3
:103F60000000312222110F00000000C0C00000003C
:103F70000000003030000000000000800000000061
:103F80000000806000000000000080402010080059
:103F90000001020408102000404040404040400022
:103FA00004040404040404000008102040800000FD
:103FB0000020100804020100007048080808F00002
:103FC0000000003036010000C030C828E810E000D2
:103FD0000718272423140B000000C038E00000005D
:103FE000203C23020227382008F8888888700000C7
:103FF000203F202020110E00C0300808080838009B
:10400000071820202010080008F808080810E00011
:10401000203F202020100F0008F88888E8081000B2
:10402000203F20202320180008F88888E808100086
:10403000203F200003000000C030080808380000BE
:1040400007182020221E020008F808000008F808BF
:10405000203F210101213F20000808F80808000046
:104060000020203F2020000000000808F808080079
:10407000C08080807F00000008F888C028180800F1
:10408000203F20012638200008F80800000000002A
:10409000203F20202020300008F8F800F8F8080021
:1040A000203F003F003F200008F830C00008F8081B
:1040B000203F200007183F00E01008080810E0002B
:1040C0000F10202020100F0008F808080808F00042
:1040D000203F210101010000E01008080810E00065
:1040E0000F18242438504F0008F8888888887000FA
:1040F000203F2000030C302000708808080838009A
:104100000038202121221C00180808F8080818008F
:104110000000203F2000000008F808000008F80810
:10412000001F202020201F000878880000C83808C1
:10413000000007380E010000F80800F80008F80039
:10414000033C0700073C03000818688080681808D3
:1041500020302C03032C30200838C800C838080051
:104160000000203F2000000010080808C8380800A0
:104170002038262120201800000000FE0202020044
:104180000000007F40404000000C30C000000000F4
:10419000000000010638C00000020202FE0000001C
:1041A000004040407F0000000000040202020400C2
:1041B00000000000000000000000000000000000FF
:1041C00080808080808080800002020400000000E7
:1041D00000000000000000000000808080800000DF
:1041E0000019242222223F2008F8008080000000CD
:1041F000003F112020110E00000000808080000090
:10420000000E112020201100000000808088F8009E
:10421000000E112020103F200000808080800000D0
:10422000001F222222221300008080F08888881834
:104230000020203F2020000000008080808080003F
:10424000006B94949493600008F8008080800000D4
:10425000203F210000203F200080989800000000AF
:104260000020203F202000000000008098980000DF
:1042700000C08080807F000008F8000080808000FF
:10428000203F24022D302000000808F80000000024
:104290000020203F202000008080808080808000DF
:1042A000203F20003F20003F808000808080000071
:1042B000203F210000203F200000808080800000FF
:1042C000001F202020201F00808000808000000030
:1042D00080FFA12020110E0000000080808080005F
:1042E000000E112020A0FF80808080008080800050
:1042F00020203F212000010000008080808080007D
:104300000033242424241900008080E080800000F1
:104310000000001F2020000080800000008080003E
:10432000001F202020103F2080808000008080809F
:1043300000010E300806010080800080008080802F
:104340000F300C030C300F00008080008080800054
:104350000020312E0E31200080808000008080807F
:1043600080818E701806010000808080808080002F
:104370000021302C2221300000000000807C02024D
:1043800000000000003F404000000000FF0000006F
:1043900000000000FF0000000002027C800000001E
:1043A0000040403F0000000000060101020204043A
:1043B000000000000000000002400000000000A01B
:1043C0000000000005400000000000C800000000E0
:1043D0000C4000000000409C00000000194000005C
:1043E0000020BCBE0000000034400000BFC91B8E8E
:1043F00000000004B5400000504BCFD06607E2CF6C
:10440000010000006C4100003E8251AADFEEA7349B
:1044100001000000D9420000DCB5A0E23A301F974D
:10442000FFFFFFFFB4450000FD25A0C8E9A3C14F71
:10443000FFFFFFFFFF3F00000000008000000000C2
:10444000FF3F0000000000800000000088440008DA
:104450000000002038020000280100088045000804
:104460003802002060060000840100081C000000E3
:1044700043000000F8FFFFFF0C0000000E000000EA
:104480000F0000002E0000001184A24A04680901F8
:10449000020304060708090C691005100204060847
:1044A00015404042CC000B1440A09E8282829EA008
:1044B0002020000D113F908840432C102846418059
:1044C000801C100C44012B45C606041144140C3802
:1044D000098040201E2040407F20031240403809C0
:1044E00008884828180FE8080109111F2B0809013E
:1044F0003AFF0609112139C0000A1304F49494FF0D
:104500009494F404080E1040201F20484442415F58
:10451000414244488029764C88780F7F0911601EFB
:104520002010484641012A7F050911C029350B1882
:10453000C838402E08040201FF3C19010213FF088D
:104540000E12C8B88FE888C820900C030C90206029
:10455000161808FF04041A3FC204144040702809CA
:10456000FC242424FC2526240802110400101140F8
:10457000308F80844C55252525554C808080000047
:04000005080000ED02
:00000001FF
