:020000040800F2
:10000000D006002001010008B93D0008BB3D0008F2
:10001000BF3D0008C33D0008C73D000800000000C8
:10002000000000000000000000000000CB3D0008C0
:10003000CD3D000800000000CF3D0008C13500089C
:100040001B0100081B0100081B0100081B01000820
:100050001B0100081B0100081B0100081B01000810
:100060001B0100081B0100081B0100081B01000800
:100070001B0100081B0100081B0100081B010008F0
:100080001B0100081B0100081B0100081B010008E0
:100090001B0100081B0100081B0100081B010008D0
:1000A0001B0100081B0100081B0100081B010008C0
:1000B0001B0100081B0100081B0100081B010008B0
:1000C0001B0100081B0100081B0100081B010008A0
:1000D0001B0100080D2800081B0100081B01000877
:1000E0001B0100081B0100081B010008DFF80CD0F1
:1000F00004F030FA00480047593C0008D0060020C0
:100100000648804706480047FEE7FEE7FEE7FEE7B1
:10011000FEE7FEE7FEE7FEE7FEE7FEE70302000874
:10012000ED0000080CB50020019000906C480068BC
:1001300040F480306A49086000BF6948006800F4F4
:10014000003000900198401C0190009818B9019867
:10015000B0F5A06FF1D16248006800F4003010B132
:100160000120009001E0002000900098012843D178
:100170005C48006840F010005A4908600846006872
:1001800020F0030008600846006840F002000860A4
:1001900053484068524948600846406848600846ED
:1001A000406840F4806048600846406820F47C1055
:1001B00048600846406840F4E81048600846006817
:1001C00040F08070086000BF4548006800F0007093
:1001D0000028F9D04248406820F0030040494860B8
:1001E0000846406840F00200486000BF3C48406854
:1001F00000F00C000828F9D10CBD10B5FFF792FFF4
:1002000010BD10B53648006840F001003449086060
:10021000084640683449084031494860084600684B
:10022000324908402E4908600846006820F48020C2
:1002300008600846406820F4FE0048604FF41F0044
:100240008860FFF7DAFF4FF000602949086010BDB1
:1002500010B5002100200022214B5B6803F00C0147
:1002600021B1042906D0082928D107E0214B224CCE
:10027000236027E01F4B204C236023E0184B5B6872
:1002800003F47010164B5B6803F48032022303EB17
:10029000904022B9194B4343174C23600DE0104B9B
:1002A0005B6803F4003323B1144B4343124C2360C7
:1002B00003E0104B4343104C236003E00D4B0E4C06
:1002C000236000BF00BF064B5B68C3F303130C4CF5
:1002D000E15C094B1B68CB40074C236010BD00005C
:1002E00000100240002002400000FFF8FFFFF6FE71
:1002F00008ED00E000127A000000002000093D0037
:100300000400002031490143314A1160704770B543
:10031000002100230F22C47804B32D4C246804F478
:10032000E064C4F5E064210AC1F10403CA404478E2
:1003300004FA03F18478144021430901254C06781E
:10034000A155047804F01F050124AC4005786D1117
:10035000AD0005F1E025C5F8004109E0047804F09E
:100360001F050124AC401C4D0678761145F8264047
:1003700070BD1A4A0A400243154B1B1F1A60704792
:1003800039B1134A121D12680243114B1B1D1A602A
:1003900006E00F4A121D126882430D4B1B1D1A60A6
:1003A0007047042808D14FF0E021096941F00401A9
:1003B0004FF0E022116107E04FF0E021096921F0E0
:1003C00004014FF0E0221161704700000000FA05BF
:1003D0000CED00E000E400E080E100E080FFFF1FA2
:1003E00010B50446FA48844208D10121401500F0B6
:1003F00057FF0021601500F053FF17E0F5488442D5
:1004000008D10121001500F04BFF0021201500F05C
:1004100047FF0BE0F048844208D10121C80300F0F7
:100420003FFF00214FF4004000F03AFF10BD30B50F
:100430000246002000235068E84C20400D790C68EB
:1004400044EA0524204350609068E54C2040D1E9FF
:1004500002542C434D7944EA450420439060D06A0D
:1004600020F470000C7C641EE4B2234340EA035085
:10047000D06230BD00210160017141718160C160B5
:1004800001210174704721B1826842F0010282604B
:1004900003E0826822F001028260704721B1826825
:1004A00042F48072826003E0826822F4807282608B
:1004B000704710B50023CBB21AB144681C434460A6
:1004C00002E044689C43446010BD816841F008012B
:1004D00081607047014600208A6802F008020AB174
:1004E000012000E000207047816841F00401816034
:1004F0007047014600208A6802F004020AB1012018
:1005000000E00020704721B1826842F4A0028260BE
:1005100003E0826822F4A002826070470146002056
:100520008A6802F480020AB1012000E000207047CE
:1005300010B50A4600210023416821F46041531E92
:1005400041EA4331416010BD21B1426842F400628A
:10055000426003E0426822F4006242607047F0B5F6
:1005600004460D4600200021092D11DDE068A5F1AB
:100570000A0606EB4607072606FA07F18843A5F1A7
:100580000A0606EB460603FA06F10843E0600CE0B3
:10059000206905EB4507072606FA07F1884305EBB6
:1005A000450603FA06F108432061072A0FDA606B5B
:1005B000561E06EB86071F2606FA07F18843561ECD
:1005C00006EB860605FA06F10843606322E00D2A71
:1005D0000FDA206BD61F06EB86071F2606FA07F1F7
:1005E0008843D61F06EB860605FA06F1084320630A
:1005F00010E0E06AA2F10D0606EB86071F2606FA58
:1006000007F18843A2F10D0606EB860605FA06F10E
:100610000843E062F0BD21B1826842F4801282603A
:1006200003E0826822F48012826070470146C86C41
:1006300080B2704766484C300068704721B142680C
:1006400042F48062426003E0426822F480624260C9
:10065000704721B1426842F48052426003E0426830
:1006600022F48052426070470A460021816821F4DA
:10067000E04111438160704721B1826842F4004239
:10068000826003E0826822F400428260704721B1F8
:10069000826842F40212826003E0826822F402124D
:1006A00082607047014600208A6802F400120AB195
:1006B000012000E000207047F0B5044615460020F8
:1006C00000220026092911DDE068A1F10A0707EBE5
:1006D000470C072707FA0CF29043A1F10A0707EB32
:1006E000470703FA07F21043E0600CE0206901EBD2
:1006F000410C072707FA0CF2904301EB410703FA7C
:1007000007F210432061A06BC0F30156EF1C06F105
:10071000010CA7EB0C0707EB870C1F2707FA0CF25D
:100720009043EF1C06F1010CA7EB0C0707EB8707C2
:1007300001FA07F21043A063F0BD10B50A4600218C
:100740000023816B21F44011531E41EA0351816360
:1007500010BD08B5002300930090009B0B4400934C
:10076000009B1A6008BD08B5024600200090009268
:1007700001F12800009B184400900098006880B2A6
:1007800008BD0A4600214168164B194011434160DB
:1007900070474162826270470A460021416821F039
:1007A0001F0111434160704740B109490831096890
:1007B00041F40001064A0832116007E0044908319B
:1007C000096821F40001024A0832116070470000F4
:1007D0000024014000280140003C0140FFFEF0FFE2
:1007E000FDF7F1FFFFFD3FFF0246002013680B40BD
:1007F0000BB1012000E000207047CA43026070473F
:1008000070B502460020002300240B125568CEB2BA
:1008100005EA060415681D4015B10CB1012000E081
:10082000002070BD00220A12D3430360704700000D
:1008300010B50446CC48844208D10121042000F0C0
:100840002FFD0021042000F02BFD46E0C748844224
:1008500008D10121082000F023FD0021082000F02C
:100860001FFD3AE0C248844208D10121102000F067
:1008700017FD0021102000F013FD2EE0BD4884423A
:1008800008D10121202000F00BFD0021202000F0E4
:1008900007FD22E0B848844208D10121402000F041
:1008A000FFFC0021402000F0FBFC16E0B34884422E
:1008B00008D10121802000F0F3FC0021802000F00D
:1008C000EFFC0AE0AE48844207D10121801500F018
:1008D000E7FC0021A01500F0E3FC10BD10B50121DC
:1008E000084600F0DDFC0021012000F0D9FC10BD1D
:1008F0002DE9F041024600250026002000230024B7
:10090000002791F803C00CF00F0591F803C00CF01C
:10091000100CBCF1000F03D091F802C04CEA0505A1
:1009200091F800C0BCF1000F31D0146800202BE01A
:100930004FF0010C0CFA00F3B1F800C00CEA03060A
:100940009E4220D183004FF00F0C0CFA03F7BC43FA
:1009500005FA03FC4CEA040491F803C0BCF1280F2B
:1009600006D14FF0010C0CFA00FCC2F814C00AE0EA
:1009700091F803C0BCF1480F05D14FF0010C0CFAFF
:1009800000FCC2F810C0401C0828D1D31460B1F894
:1009900000C0BCF1FF0F34DD546800202EE000F1F0
:1009A000080C4FF0010808FA0CF3B1F800C00CEA8B
:1009B00003069E4221D183004FF00F0C0CFA03F77F
:1009C000BC4305FA03FC4CEA040491F803C0BCF1F3
:1009D000280F05D100F1080C08FA0CF8C2F81480B1
:1009E00091F803C0BCF1480F07D100F1080C4FF09B
:1009F000010808FA0CF8C2F81080401C0828CED371
:100A00005460BDE8F0814FF6FF71018002218170D2
:100A10000421C17070470246002093680B400BB15F
:100A2000012000E0002070470146886880B27047CE
:100A300002460020D3680B400BB1012000E00020EB
:100A400070470146C86880B27047016170474161D4
:100A500070470AB1016100E041617047C1607047B1
:100A60004FF480320A4382618161826182698269C6
:100A7000704702460020434B18684FF680731840B9
:100A800040EA021008433F4B186070473E49C86176
:100A90007047F0B50A46002300240021002500F02D
:100AA0000046B6F1004F02D1364EF16901E0354EF5
:100AB0007168C0F3034583B200F44016B6F5401FD9
:100AC00008D121F070612F4E766826F070662D4FA8
:100AD0007E6012E000F48016B6F5801F06D1032672
:100AE00006FA05F4A14341F0706106E0460D3601B7
:100AF00003FA06F6B14341F0706122B1460D3601AA
:100B000003FA06F6314300F00046B6F1004F02D179
:100B10001C4EF16101E01B4E7160F0BD30B500224A
:100B20008B071C0F0F2303FA04F2164B08338C10AB
:100B300053F824309343134C08348D1044F8253077
:100B400023468C1053F824308C07240F00FA04F449
:100B500023430C4C08348D1044F8253030BD0A492D
:100B6000DC3108607047000000080140000C0140C3
:100B7000001001400014014000180140001C014019
:100B800000200140000001400000204210B5044652
:100B9000F748844209D10121480500F08EFB00216D
:100BA0004FF4001000F089FB08E00121880500F0F7
:100BB00084FB00214FF4800000F07FFB10BD2DE985
:100BC000F04385B004460D460026B1460427DFF801
:100BD000A483A6884FF6C0700640684600F0D9FA94
:100BE000DDF80880E448B8FBF0F01FFA80F946EA27
:100BF0000906A68020884FF6FE7108402080002656
:100C0000DE49286888420CD828684000B8FBF0F01C
:100C100087B2042F00DA04273E4309F10100208443
:100C200027E0E8884BF6FF71884206D1286800EB80
:100C30004000B8FBF0F087B209E0286800EBC00183
:100C400001EB0010B8FBF0F087B247F48047C7F320
:100C50000B0008B947F0010747F4004006434FF482
:100C6000967009FB00F04FF47A7190FBF1F0401C94
:100C70002084A683208840F00100208026884FF63B
:100C8000F5300640A8886989084306432680A8896C
:100C900029890843208105B0BDE8F08341F28831FD
:100CA0000160002181804BF6FF71C180002101812C
:100CB00041814FF480418181704721B1028842F027
:100CC0000102028004E002884FF6FE731A4002809F
:100CD000704721B1828842F40062828004E08288F9
:100CE0004FF2FF731A408280704721B1828842F42C
:100CF0008052828004E082884EF6FF731A40828020
:100D0000704721B1028842F48072028004E00288B8
:100D10004FF6FF631A400280704721B1028842F407
:100D20000072028004E002884FF6FF531A400280EE
:100D3000704721B1028842F48062028004E0028898
:100D40004FF6FF331A40028070470A46002181891E
:100D50004FF60173194002F0FE0319438181704779
:100D600021B1828942F00102828104E082894FF63A
:100D7000FE731A408281704721B1028842F040021E
:100D8000028004E002884FF6BF731A400280704769
:100D90001AB183880B43838002E083888B4383806E
:100DA0007047018270470146088AC0B2704712B18D
:100DB00041F0010102E04FF6FE73194001827047D5
:100DC00008B5024600200090009200980844009068
:100DD0000098008808BD21B1028842F400420280D8
:100DE00003E00288C2F30E0202807047B1F5006F83
:100DF00004D1028842F40062028004E002884FF2CB
:100E0000FF731A4002807047B1F5005F04D1028879
:100E100042F40052028004E002884DF6FF731A404B
:100E20000280704721B1028842F48052028004E0BF
:100E300002884EF6FF731A4002807047B1F5006FCA
:100E400004D1028842F40062028004E002884FF27A
:100E5000FF731A400280704721B1028842F02002DD
:100E6000028004E002884FF6DF731A400280704768
:100E70000146088B0012704721B1028842F010022F
:100E8000028004E002884FF6EF731A400280704738
:100E900021B9028842F08002028004E002884FF605
:100EA0007F731A4002807047B1F5804F05D0828B66
:100EB0004BF6FF731A40828303E0828B42F4804238
:100EC0008283704770B5024600240025002300206D
:100ED000958A138B1B0445EA030626F07F4404EA37
:100EE00001068E4201D1012000E0002070BD10B546
:100EF00001460020002300228B8A0A8B120443EA59
:100F0000020424F07F4010BD0CB5024600200023EF
:100F10000193009300920B0F019321F07F41019BFD
:100F20001BB1009B1433009303E0090C009B1833A2
:100F30000093009B1B680B400BB1012000E00020D8
:100F40000CBD002221F07F42D3438382704730B52D
:100F5000024600200023948801F0E06504EA15436E
:100F600021F07F41948A0C4054B14BB1012008E03C
:100F70000054004000127A0040420F00A086010099
:100F8000002030BD002221F07F42D343838270478E
:100F9000DF48006840F00100DD490860084640680D
:100FA000DC490840DA49486008460068DA490840E8
:100FB000D74908600846006820F480200860084689
:100FC000406820F4FE0048604FF41F0088607047BE
:100FD000CF49096821F48031CD4A11601146096872
:100FE00021F480211160B0F5803F03D0B0F5802F4F
:100FF0000ED106E0C649096841F48031C44A116047
:1010000007E0C349096841F4A021C14A116000E02A
:1010100000BF00BF704710B501460022002300202A
:101020004A11012A02D1BA4C236806E0022A02D1F1
:10103000B74C236A01E0B64C636A01F01F02012439
:1010400094401C400CB1012000E0002010BD38B5D8
:10105000002000900024002500BF3120FFF7DBFFB7
:1010600005460098401C00900098B0F5A06F01D094
:10107000002DF2D03120FFF7CEFF08B1012400E0AF
:101080000024204638BD01460020A14A106820F007
:10109000F80040EAC10010607047A049086070473E
:1010A000024600209A4B586820F47C1042EA010363
:1010B0001843974B58607047984908667047014637
:1010C0000020934A506820F00300084350607047A6
:1010D0008F48406800F00C007047014600208C4AA1
:1010E000506820F0F000084350607047014600202F
:1010F000874A506820F4E06008435060704701461A
:101100000020834A506820F4605040EAC1005060DB
:10111000704729B17E4A527A02437D4B5A7204E0ED
:101120007B4A527A82437A4B5A7270477B49D83154
:101130000860704701460020754A506820F440401E
:101140000843506070470021714A20321170704A84
:1011500082F82010012802D004280AD104E00121DD
:101160006B4A2032117005E00521694A2032117066
:1011700000E000BF00BF70476949086070476449DC
:10118000096A0143624A116270476549443908603F
:10119000704730B500210022002400235C4D6D68AB
:1011A00005F00C0121B1042905D0082923D105E05F
:1011B0005C4D056022E05B4D05601FE0544D6D689D
:1011C00005F47012524D6D6805F48034022505EB6C
:1011D00092421CB9544D554305600BE04C4D6D686F
:1011E00005F400351DB1504D5543056002E04D4DED
:1011F0005543056002E04B4D056000BF00BF444D04
:101200006D6805F0F0010909484D6B5C0568DD402B
:1012100045603F4D6D6805F4E061090A434D6B5C24
:101220004568DD4085603A4D6D6805F46051C90A36
:101230003E4D6B5C4568DD40C560354D6D6805F41D
:101240004041890B3A4D6B5CC568B5FBF3F5056110
:1012500030BD29B12E4A526902432D4B5A6104E038
:101260002B4A526982432A4B5A61704729B1284A56
:1012700092690243264B9A6104E0254A92698243AF
:10128000234B9A61704729B1214AD2690243204B0E
:10129000DA6104E01E4AD26982431D4BDA6170476D
:1012A00029B11B4AD2680243194BDA6004E0184A9C
:1012B000D2688243164BDA60704729B1144A12692A
:1012C0000243134B1A6104E0114A12698243104B26
:1012D0001A61704712494039086070470F49C86465
:1012E00070470B49C87170470948406A40F08070E8
:1012F00007494862704701460020054A92680A4043
:101300000AB1012000E0002070470149887270474F
:10131000001002400000FFF8FFFFF6FE000042420E
:101320008004424200127A0000093D0014000020AF
:101330002400002010B50446FE48844208D1012153
:10134000C014FFF7ADFF0021E014FFF7A9FFC4E0D0
:10135000B4F1804F08D101210846FFF7AEFF00210C
:101360000120FFF7AAFFB8E0F348844208D1012129
:101370000220FFF7A2FF00210220FFF79EFFACE052
:10138000EE48844208D101210420FFF796FF002196
:101390000420FFF792FFA0E0E948844208D1012130
:1013A0000820FFF78AFF00210820FFF786FF94E05E
:1013B000E448844208D101211020FFF77EFF00217C
:1013C0001020FFF77AFF88E0DF48844208D101212E
:1013D0002020FFF772FF00212020FFF76EFF7CE046
:1013E000DA48844208D101214014FFF759FF002157
:1013F0006014FFF755FF70E0D548844209D1012100
:10140000C804FFF74DFF00214FF40020FFF748FF0D
:1014100063E0D048844209D101210805FFF740FF6D
:1014200000214FF48010FFF73BFF56E0CA4884428A
:1014300009D101214805FFF733FF00214FF40010C7
:10144000FFF72EFF49E0C548844208D10121402022
:10145000FFF733FF00214020FFF72FFF3DE0C0489A
:10146000844208D101218020FFF727FF002180203E
:10147000FFF723FF31E0BB48844208D101218015EA
:10148000FFF71BFF0021A015FFF717FF25E0B64867
:10149000844209D101210804FFF702FF00214FF423
:1014A0008030FFF7FDFE18E0B048844209D10121E9
:1014B0004804FFF7F5FE00214FF40030FFF7F0FE7F
:1014C0000BE0AB48844208D101218804FFF7E8FE15
:1014D00000214FF48020FFF7E3FE10BD00220288B8
:1014E000944B98420ED0994B98420BD0B0F1804F5C
:1014F00008D0914B984205D0904B984202D0904B27
:10150000984204D14FF68F731A404B881A438D4B83
:10151000984207D08C4B984204D04FF6FF431A40B4
:10152000CB881A4302808B8883850B880385814B87
:1015300098420BD0854B984208D08B4B984205D0EF
:101540008A4B984202D08A4B984201D10B7A03868B
:1015500001238382704770B5002400220023058C8C
:101560004FF6FE7635400584028C8388048B4FF657
:101570008F752C40B51E2C400D882C43751E2A40BB
:101580000D892A434D882A436A4DA8420BD06F4DDE
:10159000A84208D0744DA84205D0744DA84202D08C
:1015A000734DA84213D14FF6F7752A404D892A434F
:1015B0004FF6FB752A408D882A434FF6FF652B4076
:1015C0004FF6FF552B408D892B43CD892B438380CC
:1015D0000483CD888586028470BD70B50024002206
:1015E0000023058C4FF6EF7635400584028C838806
:1015F000048B48F6FF752C404FF6FF452C400D88B4
:101600004FF6FF7606EA05252C434FF6DF752A4094
:101610000D8906EA05152A434D8806EA05152A4371
:10162000444DA84202D0494DA8421DD14FF67F75C6
:101630002A404D894FF6FF7606EA05152A434FF6F4
:10164000BF752A408D8806EA05152A434FF6FF35F7
:101650002B404FF2FF752B408D8906EA85052B4301
:10166000CD8906EA85052B4383800483CD880587D1
:10167000028470BD70B5002400220023058C4FF653
:10168000FF6635400584028C8388848B4FF68F7506
:101690002C404FF6FC752C400D882C434FF6FF551F
:1016A0002A400D894FF6FF7606EA05252A434D8824
:1016B00006EA05252A431F4DA84202D0234DA84221
:1016C0001DD14FF2FF752A404D894FF6FF7606EA8D
:1016D00005252A434FF6FF352A408D8806EA052561
:1016E0002A434EF6FF752B404DF6FF752B408D8932
:1016F00006EA05152B43CD8906EA05152B438380A1
:101700008483CD888587028470BD70B50022002354
:101710000024058C4EF6FF7635400584038C8488C2
:10172000828B48F6FF752A404FF6FF452A400D8808
:1017300020E00000002C01400004004000080040B0
:10174000000C004000100040001400400034014034
:10175000004C01400050014000540140001800407E
:10176000001C0040002000400040014000440140B7
:10177000004801404FF6FF7606EA05252A434DF65C
:10178000FF752B400D8906EA05352B434D8806EA87
:1017900005352B43FA4DA84202D0FA4DA84208D194
:1017A0004BF6FF752C408D894FF6FF7606EA8515BE
:1017B0002C4384808283CD88A0F84050038470BD80
:1017C000828B4FF2FF331A408283828B4FF6FF7376
:1017D00003EA01231A4382837047F0B50C4615468D
:1017E000002200210026078C4EF6FF7C07EA0C073A
:1017F0000784828B018C4FF6FF7707EA043640F6A8
:10180000FF473A404FF6FF7707EA05273A434FF67E
:10181000FF7707EA03373A43D94FB8420ED0D94F82
:10182000B8420BD0B0F1804F08D0D74FB84205D0A6
:10183000D64FB84202D0D64FB84206D14DF6FF7708
:10184000394046F48057394305E047F6FF573940A1
:1018500044F48057394382830184F0BD828B4FF674
:10186000F3731A408283828B0A4382837047F0B5F8
:101870000C461546002200210026078C4FF6FF6C0F
:1018800007EA0C070784828B018C4FF6FF7707EA83
:1018900004264FF60C773A404FF6FF7707EA031716
:1018A0002F433A43B64FB8420ED0B64FB8420BD092
:1018B000B0F1804F08D0B44FB84205D0B34FB84212
:1018C00002D0B34FB84206D14FF6FF57394046F425
:1018D0008077394305E04FF2FF57394044F4807771
:1018E000394382830184F0BD028B4FF2FF331A40EB
:1018F0000283028B4FF6FF7303EA01231A4302832C
:101900007047F0B50C461546002200210026078CD2
:101910004FF6EF7C07EA0C070784028B018C4FF629
:10192000FF7707EA041640F6FF473A404FF6FF7785
:1019300007EA03373A434FF6FF7707EA05273A43AA
:101940008F4FB8420ED08F4FB8420BD0B0F1804FBE
:1019500008D08D4FB84205D08C4FB84202D08C4F82
:10196000B84206D14FF6DF77394046F010073943C9
:1019700005E04FF65F77394044F0100739430283A2
:101980000184F0BD028B4FF6F3731A400283028B81
:101990000A4302837047F0B50C4615460022002129
:1019A000068C4FF6FE773E400684028B018C4FF684
:1019B0000C7632407E1C06EA03162E433243704EEC
:1019C000B0420ED06F4EB0420BD0B0F1804F08D075
:1019D0006D4EB04205D06D4EB04202D06C4EB0425A
:1019E00006D14FF6FD76314044F00106314305E063
:1019F0004FF6F576314044F001063143028301840D
:101A0000F0BD70B505460C465D4885420ED05D4878
:101A100085420BD0B5F1804F08D05B48854205D098
:101A20005A48854202D05A48854200D100E000BFA2
:101A3000208850B92389A28861882846FFF7ABFF28
:101A4000E1882846FFF79EFF25E0208804280AD178
:101A50002389A28861882846FFF753FFE18828463A
:101A6000FFF742FF17E0208808280AD12389A288BF
:101A700061882846FFF7FBFEE1882846FFF7EEFE67
:101A800009E02389A28861882846FFF7A6FEE1883D
:101A90002846FFF795FE70BD2DE9F04105460C463E
:101AA00000260127608808B9022600E00026A088E9
:101AB000012801D1022700E001272088A0B923894D
:101AC000A28861882846FFF766FFE1882846FFF76D
:101AD00059FF23893A4631462846FFF712FFE1882D
:101AE0002846FFF701FF13E02389A2886188284672
:101AF000FFF707FFE1882846FFF7F6FE23893A46FD
:101B000031462846FFF747FFE1882846FFF73AFFAE
:101B1000BDE8F0810A884B881A438B881A43CB882A
:101B20001A430B891A434B891A438B891A43A0F82D
:101B3000442070474FF6FF71818000210180C180F1
:101B40004180017270470021018041808180C18005
:101B5000018141818181C1817047002101804180E3
:101B6000012181800021C180018170470021018015
:101B700041808180C1800181418181817047000065
:101B8000002C0140003401400004004000080040E7
:101B9000000C004021B1028842F00102028004E002
:101BA00002884FF6FE731A400280704731B1B0F8D8
:101BB000442042F40042A0F8442005E0B0F844205C
:101BC000C2F30E02A0F8442070471AB183890B4378
:101BD000838102E083898B438381704781827047D0
:101BE00041EA0203A0F8483070471AB183890B43D9
:101BF000838102E083898B438381704701894FF69B
:101C0000F8721140018170470A46002101894FF6A0
:101C10008F73194011430181704730B504460D465A
:101C200029462046FFF7F0FF208940F00700208179
:101C300030BD2DE9F04104460D4616461F46602D85
:101C400006D13B46012231462046FFF75AFE05E009
:101C50003B46012231462046FFF79DFE294620469D
:101C6000FFF7D2FF208940F007002081BDE8F08116
:101C700030B50C4600210189C9B24FF6FF7505EA5F
:101C80000325154325432943018130BD2DE9F0414A
:101C900005460E4617469846002443463A463146C6
:101CA0002846FFF7E5FF2C894FF6F870044044F012
:101CB00007044FF68F70044044F070042C81BDE897
:101CC000F081F0B504460D4616461F463B463246A7
:101CD00029462046FFF7CCFF208940F48040208130
:101CE000F0BD0185828270470A46002101884FF6C7
:101CF0008F731940114301807047F0B50C461546AB
:101D00001E460021002200230189028B038C4FF61E
:101D1000F877394021434FF6FC473A4040F201172B
:101D20003A434FF6DD773B404FF6FF7707EA061759
:101D30002F433B43018102830384F0BD0A46002107
:101D4000018B4FF68F7319401143018370470A4688
:101D50000021018B48F6FF7319404FF6FF7303EA29
:101D600002231943018370470A460021818B4FF6F5
:101D70008F7319401143818370470A460021818B7C
:101D800048F6FF7319404FF6FF7303EA0223194325
:101D90008183704721B1028842F08002028004E012
:101DA00002884FF67F731A400280704721B1828803
:101DB00042F00402828004E082884FF6FB731A40EE
:101DC0008280704721B1828842F00802828004E05C
:101DD00082884FF6F7731A408280704721B182885B
:101DE00042F00102828004E082884FF6FE731A40BE
:101DF000828070470A460021018B4FF6F773194025
:101E00001143018370470A460021018B4FF2FF7393
:101E100019404FF6FF7303EA022319430183704709
:101E20000A460021818B4FF6F773194011438183D5
:101E300070470A460021818B4FF2FF7319404FF61D
:101E4000FF7303EA02231943818370470A46002186
:101E5000018B4FF6FB7319401143018370470A460B
:101E60000021018B4FF6FF3319404FF6FF7303EA51
:101E700002231943018370470A460021818B4FF6E4
:101E8000FB7319401143818370470A460021818BFF
:101E90004FF6FF3319404FF6FF7303EA022319434D
:101EA000818370470A460021018B4FF67F731940EA
:101EB0001143018370470A460021018BC1F30E01D3
:101EC0004FF6FF7303EA02231943018370470A4662
:101ED0000021818B4FF67F73194011438183704736
:101EE0000A460021818BC1F30E014FF6FF7303EA0E
:101EF00002231943818370470A460021018C4FF663
:101F0000FD7319401143018470470A460021018C7A
:101F10004FF6F77319401143018470470A460021B8
:101F2000018C4FF6DF7319404FF6FF7303EA02137B
:101F30001943018470470A460021018C4FF67F73D4
:101F400019404FF6FF7303EA0213194301847047E7
:101F50000A460021018C4FF6FF5319404FF6FF73DC
:101F600003EA02231943018470470A460021018CC9
:101F70004FF2FF7319404FF6FF7303EA0223194330
:101F8000018470470A460021018C4DF6FF73194009
:101F90004FF6FF7303EA023319430184704730B5EB
:101FA000002301248C40A3B2048C9C430484048C41
:101FB00002FA01F5ADB22C43048430BD30B50023E4
:101FC00004248C40A3B2048C9C430484048C02FA45
:101FD00001F5ADB22C43048430BD70B5034600203A
:101FE00000241846183001258D40ACB21D8CA54345
:101FF0001D8409B1082909D100EB6100056825F0AD
:10200000700505600568154305600EE00D1FC5F3FA
:102010004E052844056825F4E045056005684FF63F
:10202000FF7606EA02263543056070BD21B10288BD
:1020300042F00202028004E002884FF6FD731A406B
:102040000280704721B1028842F00402028004E05D
:1020500002884FF6FB731A400280704721B18288D4
:1020600042F08002828004E082884FF67F731A403B
:102070008280704702884FF6F7731A400280028808
:102080000A430280704782884FF68F731A4082801D
:1020900082880A438280704702894FF6F8731A409B
:1020A000028102890A430281704702894FF67F73D9
:1020B0001A40028102890A43028170478184704775
:1020C0008185704781867047018770478187704797
:1020D000A0F84010704702884FF6FF431A40028074
:1020E00002880A43028070470146888E7047014685
:1020F000088F70470146888F70470146B1F840004D
:1021000070470146888C70470146088D704702462B
:102110000020138A0B400BB1012000E00020704723
:10212000CA430282704730B50246002000230024D3
:10213000158A05EA0103958905EA010413B10CB17A
:10214000012000E0002030BDCA4302827047000039
:1021500010B50446FB48844209D101218803FFF7EA
:102160009FF800214FF48040FFF79AF832E0F648DC
:10217000844209D101214804FFF79FF800214FF460
:102180000030FFF79AF825E0F048844209D1012198
:102190008804FFF792F800214FF48020FFF78DF8B4
:1021A00018E0EB48844209D10121C804FFF785F803
:1021B00000214FF40020FFF780F80BE0E54884424F
:1021C00008D101210805FFF778F800214FF48010AD
:1021D000FFF773F810BD2DE9F04786B005460E46AF
:1021E0000024A24600BFA1460027B08900B100BF6D
:1021F0002F462C8A4CF6FF700440F08804432C8252
:10220000AC894EF6F3100440B088318908437189D7
:1022100008430443AC81AC8A4FF6FF400440B089C8
:102220000443AC8201A8FEF7B4FFC648874202D13E
:10223000DDF810A001E0DDF80CA0A88900F4004052
:1022400040B10AEBCA0000EB0A1031684900B0FB4C
:10225000F1F807E00AEBCA0000EB0A1031688900C8
:10226000B0FBF1F86420B8FBF0F004012009642110
:1022700001FB1089A88900F4004040B1322000EB36
:10228000C900B0FBF1F000F00700044308E0322081
:1022900000EB09106421B0FBF1F000F00F000443E3
:1022A0002C8106B0BDE8F0874FF416510160002183
:1022B0008180C18001810C21418100218181704791
:1022C00010B502460020108A4FF2FF0318400B8819
:1022D0004C8823438C882343CC88234318431082A3
:1022E00010BD0021018041808180C180704721B1F3
:1022F000828942F40052828104E082894DF6FF73A4
:102300001A4082817047F0B503460024002600255C
:10231000002040F66A17B94200D100BF1846C1F349
:10232000421401F01F06012707FA06F5012C01D11E
:102330000C3004E0022C01D1103000E014301AB14E
:1023400007682F43076002E00768AF430760F0BDEE
:102350001AB1838A0B43838202E0838A8B43838290
:102360007047028A4FF6F0731A400282028A0A43CB
:102370000282704782894FF2FF731A4082818289FC
:102380000A438281704721B1828942F00202828130
:1023900004E082894FF6FD731A4082817047028AF9
:1023A0004FF6DF731A400282028A0A4302827047A4
:1023B00021B1028A42F48042028204E0028A4BF692
:1023C000FF731A4002827047C1F30802828070478F
:1023D00001468888C0F308007047818941F00101F7
:1023E00081817047028BD2B20283028B42EA0122C2
:1023F00002837047028B02F47F420283028B0A43FE
:102400000283704721B1828A42F02002828204E076
:10241000828A4FF6DF731A408282704721B1828A26
:1024200042F01002828204E0828A4FF6EF731A4073
:102430008282704721B1828A42F00802828204E0DF
:10244000828A4FF6F7731A408282704721B18289DF
:1024500042F40042828103E08289C2F30E0282814B
:10246000704721B1828A42F40062828204E0828A4B
:102470004FF2FF731A4082827047828A4FF6FB73D5
:102480001A408282828A0A438282704721B1828AFC
:1024900042F00202828204E0828A4FF6FD731A4003
:1024A0008282704702460020B1F5007F00D100BF54
:1024B00013880B400BB1012000E00020704701F4AD
:1024C0000072B2F5007F00D100BFCA43028070479E
:1024D00070B50246002400230025002040F66A164D
:1024E000B14200D100BFC1F3421501F01F03012624
:1024F00006FA03F3012D02D19689334006E0022D3E
:1025000002D1168A334001E0968A33400C1201262C
:1025100006FA04F41688344013B10CB1012000E02F
:10252000002070BD10B50022002340F66A14A142BD
:1025300000D100BF0A1201249440A3B2DC430480FE
:1025400010BD000000380140004400400048004039
:10255000004C00400050004010B500F0B9F800F009
:1025600071F802212648FEF770FA00F007FB00F030
:10257000FFFD00F06BFC0C2322A20021084600F0B6
:1025800066FD0C2322A20021502000F060FD0C23E8
:1025900021A20121002000F05AFD0C2320A20121DC
:1025A000402000F054FD0C231FA20221002000F067
:1025B0004EFD0C231FA20321002000F048FD00F077
:1025C00021FB4FF4E13000F085F800F0BDFE00F093
:1025D0000BFF022000F0C8FF00F072FF032000F0A4
:1025E000C3FF00F08DFB642000F04BF9022104488A
:1025F000FEF72DFA4FF4FA7000F043F910BD000019
:1026000000080140423A2020202056202C200000C3
:10261000533A202020560000423A2020202C00006F
:10262000413A2020200000005345543A2020202029
:1026300052504D004C433A202020202020202020C2
:10264000434D000008B501211020FEF70FFE4FF4A6
:102650000050ADF8000010208DF8030003208DF825
:10266000020069461748FEF743F901210420FEF7EE
:10267000FDFD0220ADF8000010208DF803000320BE
:102680008DF8020069461048FEF732F908BD70B5B2
:1026900004460E480068401C0C490860A04210D156
:1026A0004FF400510748FEF7B6F9C0F10100C5B27A
:1026B0002A464FF400510348FEF7CBF900200349A6
:1026C000086070BD00100140000801402800002093
:1026D0007047000010B586B00446012144F209009D
:1026E000FEF7C4FD01210420FEF7D3F94020ADF828
:1026F000140018208DF8170003208DF8160005A986
:102700005448FEF7F5F88020ADF8140004208DF849
:10271000170005A94F48FEF7EBF801940020ADF82B
:102720000800ADF80A00ADF80C00ADF810000C2060
:10273000ADF80E0001A94848FFF74DFD4FF4E060E9
:10274000FDF7E0FD25208DF8000000208DF8010048
:1027500001208DF802008DF803006846FDF7D7FDD3
:10276000012240F225513C48FFF7CDFD01213A48B6
:10277000FFF7BDFD06B010BD70B504460D46E1B2D1
:102780003548FFF721FE00BF80213348FFF78AFE5E
:102790000028F9D0204670BD10B5044600BF2021A6
:1027A0002D48FFF77FFE0028F9D02B48FFF710FED9
:1027B00010BD70B504460D4640212748FFF77FFE47
:1027C00080212548FFF7AEFE13E021782248FFF76D
:1027D000FBFD00BF40212048FFF764FE0128F9D12E
:1027E00040211D48FFF76BFE80211B48FFF79AFE32
:1027F000641C281EA5F10105E7D170BD0022174B0E
:102800001A60174A1160174A1060704710B540F2FD
:1028100025511148FFF75CFED8B10F48FFF7D8FDEE
:10282000C4B20F4800680D49096888420CD90D48A8
:10283000006804700B480068401C0A49086007489B
:102840000068401C0549086040F225510248FFF726
:1028500069FE10BD000C014000380140300000202E
:10286000340000202C000020002105E00A2100BFD8
:102870000A1EA1F10101FBD1021EA0F10100F5D158
:102880007047002106E042F6E06100BF0A1EA1F198
:102890000101FBD1021EA0F1010398B2F3D17047F0
:1028A0002DE9F0410746884615461C46069E00BFA6
:1028B0004FF400313846FEF727FB0028F8D10121FC
:1028C0003846FEF71EFA00BFC9493846FEF7FAFA45
:1028D0000028F9D0002241463846FEF768FA00BFCA
:1028E000C4493846FEF7EEFA0028F9D029463846A2
:1028F000FEF757FA00BFBF49891C3846FEF7E2FAD7
:102900000028F8D001213846FEF7FBF900BFB8498E
:102910003846FEF7D7FA0028F9D00122414638465A
:10292000FEF745FA00BFB249491C3846FEF7CAFA1D
:102930000028F8D001213846FEF7FBF90EE000BF71
:10294000AB493F313846FEF7BDFA0028F8D038468B
:10295000FEF729FA2070701E86B2641C012EEEDC90
:1029600000213846FEF7E5F901213846FEF7D5F992
:1029700000BF9F493F313846FEF7A4FA0028F8D03F
:102980003846FEF710FA2070BDE8F0812DE9F041DD
:102990000746884615461C46069E00BF4FF4003188
:1029A0003846FEF7B1FA0028F8D101213846FEF783
:1029B000A8F900BF8E493846FEF784FA0028F9D0FE
:1029C000002241463846FEF7F2F900BF89493846F1
:1029D000FEF778FA0028F9D029463846FEF7E1F9E3
:1029E00000BF8449891E3846FEF76CFA0028F8D0EB
:1029F0000EE021783846FEF7D4F900BF7D49891EE4
:102A00003846FEF75FFA0028F8D0701E86B2641CC4
:102A1000012EEEDC21783846FEF7C3F900BF754978
:102A2000891C3846FEF74EFA0028F8D001213846B6
:102A3000FEF773F9BDE8F0812DE9F04106460F4637
:102A400014461D4600BF4FF400313046FEF75CFAD5
:102A50000028F8D101213046FEF753F900BF644940
:102A60003046FEF72FFA0028F9D0002239463046CA
:102A7000FEF79DF900BF5F493046FEF723FA0028B4
:102A8000F9D021463046FEF78CF900BF5949891C20
:102A90003046FEF717FA0028F8D001213046FEF73D
:102AA00030F900BF52493046FEF70CFA0028F9D041
:102AB000012239463046FEF77AF900BF4C49491CDD
:102AC0003046FEF7FFF90028F8D000213046FEF727
:102AD00030F901213046FEF720F900BF44493F316B
:102AE0003046FEF7EFF90028F8D03046FEF75BF9E4
:102AF0002870BDE8F0812DE9F04106460F461446E6
:102B00001D4600BF4FF400313046FEF7FDF90028A6
:102B1000F8D101213046FEF7F4F800BF34493046C1
:102B2000FEF7D0F90028F9D0002239463046FEF7EA
:102B30003EF900BF2F493046FEF7C4F90028F9D00E
:102B400021463046FEF72DF900BF2A49891E30463E
:102B5000FEF7B8F90028F8D029463046FEF721F9EB
:102B600000BF2449891C3046FEF7ACF90028F8D094
:102B700001213046FEF7D1F8BDE8F08100B585B0FF
:102B800001218805FEF77FFB01210820FEF76EFB7F
:102B90004FF44060ADF810001C208DF813000320A6
:102BA0008DF8120004A91448FDF7A2FE4FF440610D
:102BB0001148FDF74AFF114800900020ADF80400CD
:102BC0004BF6FF70ADF806004FF48060ADF80A00D8
:102BD0000001ADF80C000A20ADF80800694608486D
:102BE000FDF7EDFF01210648FEF767F805B000BDCF
:102BF0000100030082000700000C0140801A06005B
:102C00000058004000B587B001210820FEF72EFBD8
:102C10000320ADF8180000208DF81B0006A93648E7
:102C2000FDF766FE01214802FEF720FB002001901F
:102C300001208DF8080000208DF809004FF4602075
:102C400003900020049001208DF8140001A92B4866
:102C5000FDF7EDFB01212948FDF715FC2748FDF79D
:102C600034FC00BF2548FDF735FC0028FAD1234885
:102C7000FDF73AFC00BF2148FDF73BFC0028FAD1E4
:102C800001211E48FDF73FFC07B000BD10B504460A
:102C90000723012221461948FDF761FC012117484D
:102CA000FDF731FC00BF02211448FDF79DFD00280F
:102CB000F9D01248FDF7BAFC10BD2DE9F0410746E6
:102CC0000C460025002605E03846FFF7DFFF0544E7
:102CD000701CC6B2A642F7DBB5FBF4F080B2BDE8CB
:102CE000F08110B50820FFF7D1FF10BD10B5092005
:102CF000FFF7CCFF10BD0000000C01400024014094
:102D000030B5164800686422B0FBF2F1B1F1807F63
:102D100001D301201DE021F07F40401E4FF0E02252
:102D2000506150170F22002807DA13071D0E0C4BB5
:102D300000F00F04241F1D5503E013071C0E094B60
:102D40001C5400BF00204FF0E0229061072010616A
:102D5000002008B100BFFEE730BD000000000020E9
:102D600018ED00E000E400E070B504460D46E3B263
:102D7000EAB27821FA48FFF7BEFE70BD70B506468C
:102D8000002418E004F1B0000021FFF7EDFF00215E
:102D90000846FFF7E9FF00211020FFF7E5FF0025B7
:102DA00005E001213046FFF7DFFF681CC5B2802D2A
:102DB000F7DB601CC4B2082CE4DB70BD06E041F612
:102DC000650100E0491E0029FCD1401E0028F6D113
:102DD0007047014605E0002001E0421CD0B27B288C
:102DE000FBDB0A1EA1F10101F5D1704770B5044665
:102DF0000D4605F1B0000021FFF7B6FF102141EAB2
:102E000014100021FFF7B0FF04F00F000021FFF7BE
:102E1000ABFF70BD10B500218D20FFF7A5FF00218D
:102E20001420FFF7A1FF0021AF20FFF79DFF10BD89
:102E300010B500218D20FFF797FF00211020FFF72C
:102E400093FF0021AE20FFF78FFF10BD70B5002467
:102E500018E004F1B0000021FFF786FF00210846CA
:102E6000FFF782FF00211020FFF77EFF002505E01D
:102E700040210020FFF778FF681CC5B2802DF7DBEA
:102E8000601CC4B2082CE4DB70BD70B5002418E0EF
:102E900004F1B0000021FFF767FF00210846FFF7AB
:102EA00063FF00211020FFF75FFF002505E04021B0
:102EB0000120FFF759FF681CC5B2802DF7DB601CAD
:102EC000C4B2082CE4DB70BD2DE9F04707460E467E
:102ED0009046994600250024A8F12000C5B27F2F16
:102EE00002DD0027B01CC6B2B9F1100F24D1314663
:102EF0003846FFF77BFF002408E004EB0511994AF0
:102F0000505C4021FFF730FF601CC4B2082CF4DB9A
:102F1000701CC1B23846FFF769FF002409E004EBDA
:102F2000051108318F4A505C4021FFF71DFF601CDE
:102F3000C4B2082CF3DB12E031463846FFF756FFE7
:102F400000240AE005EB4501874A02EB4101085DD8
:102F50004021FFF709FF601CC4B2062CF2DBBDE87C
:102F6000F08710B50246012000E050430B1EA1F18E
:102F70000104E1B2F9D110BD2DE9FF5F074691468A
:102F80001E460E9D4FF0000A002435E0301B401E07
:102F9000C1B20A20FFF7E5FFB9FBF0F00A21B0FB50
:102FA000F1F201FB1208BAF1000F14D1701EA04219
:102FB00011DDB8F1000F0CD1AB4605EBDB71491008
:102FC00001FB0471C8B22B4620220199FFF77CFF58
:102FD00010E04FF0010AAB4605EBDB71491001FB35
:102FE0000471C8B208F13001CAB22B460199FFF74B
:102FF0006BFF00BF601CC4B2B442C7DBBDE8FF9FDB
:103000002DE9F84305460F4614469846089E002CC5
:1030100006DA33462D2239462846FFF755FF05E0EC
:1030200033462B2239462846FFF74EFF201E01DB90
:10303000014600E04142894605F10801C8B2434615
:103040004A4639460096FFF797FFBDE8F8832DE919
:10305000F04104460F461546984600260FE0AA5D4B
:10306000434639462046FFF72FFF04F10800C4B25B
:10307000782C02DD0024B81CC7B2701CC6B2A85D53
:103080000028ECD1BDE8F0812DE9F04180460E46E4
:103090001546002731464046FFF7A8FE00240AE007
:1030A000324A02EB8511085D4021FFF75DFE781C76
:1030B000C7B2601CC4B2102CF2DB701CC1B2404617
:1030C000FFF794FE00240CE06900491C274A02EB3C
:1030D0004111085D4021FFF747FE781CC7B2601C14
:1030E000C4B2102CF0DBBDE8F0812DE9F05F06469C
:1030F0000F4690461C46DDF828A04FF0000BE11764
:1031000004EB5171C910A4EBC10131B92046E1179C
:1031100004EB5171C1F3C70506E02046E11704EB4B
:103120005171C910491CCDB23D4615E029463046C3
:10313000FFF75CFEB1460BE059460BF1010B1AF8A4
:1031400001004021FFF710FE09F1010000F0FF0926
:10315000C145F1DB681CC5B2A542E7DBBDE8F09FC5
:10316000005800401C510008F44E000838000020B0
:1031700010B5FFF703FD6420FFF783FB0021AE20AD
:10318000FFF7F2FD00210846FFF7EEFD00211020B9
:10319000FFF7EAFD00214020FFF7E6FD0021B02007
:1031A000FFF7E2FD00218120FFF7DEFD0021FF2077
:1031B000FFF7DAFD0021A120FFF7D6FD0021A620B0
:1031C000FFF7D2FD0021A820FFF7CEFD00213F2010
:1031D000FFF7CAFD0021C820FFF7C6FD0021D3205C
:1031E000FFF7C2FD00210846FFF7BEFD0021D520F4
:1031F000FFF7BAFD00218020FFF7B6FD0021D8209F
:10320000FFF7B2FD00210520FFF7AEFD0021D92018
:10321000FFF7AAFD0021F120FFF7A6FD0021DA202B
:10322000FFF7A2FD00211220FFF79EFD0021DB2009
:10323000FFF79AFD00213020FFF796FD00218D2039
:10324000FFF792FD00211420FFF78EFD0021AF2033
:10325000FFF78AFD10BD000008B501210820FEF728
:1032600005F84FF47040ADF8000010208DF8030011
:1032700003208DF8020069465948FDF739FB08BD67
:1032800030B589B005460C4601210820FDF7EEFF58
:103290004FF44070ADF8040018208DF807000320AB
:1032A0008DF8060001A94E48FDF722FB01210420FC
:1032B000FDF7E9FF681E80B2ADF80C00601E80B219
:1032C000ADF808000020ADF80E00ADF80A0002A924
:1032D0004448FEF703F901214248FEF721FF01228D
:1032E00011464048FEF771FC6020ADF81400012043
:1032F000ADF816000020ADF81A00ADF81C0005A9C5
:103300003848FEF7B7F908213648FEF721FE60205D
:10331000ADF814000120ADF816000020ADF81A0039
:10332000ADF81C0005A92F48FEF7EFF908212D483C
:10333000FEF728FE01212B48FEF72CFD012129482C
:10334000FEF728FC09B030BD10B501214FF4E15063
:10335000FFF796FFFFF780FF10BD10B50446002C65
:103360000DDB4FF480411E48FDF771FB4FF4004127
:103370001B48FDF76AFB1B4940310C800DE04FF400
:1033800080411748FDF761FB4FF400411448FDF7F9
:103390005EFB604213494031088010BD10B5044601
:1033A000002C0DDB4FF400510D48FDF750FB4FF49E
:1033B00080510B48FDF749FB0A493C310C800DE078
:1033C0004FF400510648FDF740FB4FF4805104488C
:1033D000FDF73DFB604203493C31088010BD000011
:1033E000000C01400008004000B587B001210D200D
:1033F000FDF73CFF01216C48FDF74BFB01216B48B9
:10340000FDF747FB0820ADF8180048208DF81B0099
:1034100003208DF81A0006A96548FDF769FA4FF4F4
:103420000040ADF8180048208DF81B0003208DF8EF
:103430001A0006A95F48FDF75BFA01210846FDF76F
:1034400022FF4FF08040FDF775FF03A8FEF772FBE7
:103450000020ADF80C004FF6FF70ADF81000002012
:10346000ADF81200ADF80E008DF8140003A94FF06E
:103470008040FEF733F86846FEF76FFB0020ADF89A
:1034800000000F20ADF8080069464FF08040FEF7BD
:10349000B8FA0420ADF800000F20ADF80800694626
:1034A0004FF08040FEF7ADFA0223002203215807B7
:1034B000FEF723FC01218807FEF76CFB07B000BD77
:1034C00000B587B001210920FDF7D0FE3020ADF80E
:1034D000180004208DF81B0003208DF81A0006A99F
:1034E0003348FDF705FA01210220FDF7CCFE01214A
:1034F0003148FDF7CEFA3148FDF71CFF03A8FEF76F
:1035000019FB0020ADF80C004FF6FF70ADF810006D
:103510000020ADF81200ADF80E0003A92748FDF712
:10352000DDFF6846FEF719FB0020ADF800000F2014
:10353000ADF8080069462148FEF763FA0420ADF8AB
:1035400000000F20ADF8080069461C48FEF759FA44
:103550000223002203211948FEF7CFFB012117485F
:10356000FEF718FB07B000BD70B50546022D02D06E
:10357000032D14D10AE04FF08040FEF7C2FD04B2E3
:1035800000214FF08040FEF799FD0AE00B48FEF75E
:10359000B8FD04B200210948FEF790FD01E00024C7
:1035A00000BF00BF204670BD0002300000031800BD
:1035B000000C01400008014000081A00000400400F
:1035C0002DE9F04F87B03220FFF761F861480078AD
:1035D000401C6049087060480078401C5E490870D3
:1035E0005E480078401C5D49087000F055FA5C495F
:1035F00008605A48007805287EDB0020574908708B
:103600000220FFF7B1FF4042564908600320FFF750
:10361000ABFF5549086052480168002000F08FF95F
:10362000044600F00EFE5149086008460068C0F1EB
:1036300064004F4908604D48006864304D49086097
:103640004848008801B24A48008800B200F0B0F84B
:10365000044600F0F6FD484908604348008801B27E
:103660004448008800B200F0A3F8044600F0E9FDE9
:10367000424908604048008800B2FFF76EFE3F48AC
:10368000008800B2FFF78AFE364800684FF4966162
:1036900048433B49098890FBF1F03A4908603248B9
:1036A00000684FF4966148433549098890FBF1F072
:1036B0003549086033490968334A1268881800F0B0
:1036C000A2FD8046314A324B00F0B3FC0022314B60
:1036D000CDE9000100F01FFD064600222E4B00F050
:1036E000A8FC00224FF08043CDE9020100F013FD59
:1036F00004460D46294800E00DE0006800F0BAFDE0
:10370000824622462B4600F0EDFBCDE9040100F095
:10371000C4FD224908600F480078642805DB0020BA
:103720000C49087001201E4908700B480078C82811
:103730000DDBFFF7D6FA1B490880FFF7D7FA1A49C5
:10374000088000200449087001201849087007B05B
:10375000BDE8F08F390200203A0200203D0200202F
:1037600070020020480200204C0200206C02002061
:10377000780200207C020020600200206402002009
:103780005802002050020020540200209A99999972
:103790009999A93F00004E40008036406802002001
:1037A0003C0200203E020020420200203B0200209A
:1037B0002DE9F05F04460D46601B00F01BFD9649A5
:1037C0000860084601689548006800F001FB9349CD
:1037D0000860084600689249086092498F4800686E
:1037E00000F082FD02D28F488C4908608E498B48D8
:1037F000006800F06FFD02D28B48884908608B4852
:1038000001688548006800F035FB814688480168FA
:103810008848006800F034FB8246494600F030FBDF
:103820000746854801688348006800F029FB834605
:103830007A480168584600F023FB81467F480168BA
:103840007C48006800F01CFB8346734801685846BA
:1038500000F016FB8246494600F0BAFA8046394627
:1038600000F0B6FA06466C48006870490860744972
:10387000304600F039FD00D8714E7249304600F0F4
:1038800029FD00D86F4E3046BDE8F09F2DE9F04786
:1038900004460D46601B00F0ADFC6B49086008460D
:1038A00001686A48006800F093FA684908605D4959
:1038B0006648006800F018FD02D25A486349086063
:1038C00059496248006800F005FD02D256485F4938
:1038D00008605F4801685C48006800F0CBFA8146E8
:1038E0005C480168484600F0CBFA07465748016833
:1038F0005948006800F0C4FA8146534801685748A7
:10390000006800F0BDFA8246494600F061FA804640
:10391000394600F05DFA06464B4800684C4908609D
:103920004749304600F0E0FC00D8454E4549304656
:1039300000F0D0FC00D8434E3046BDE8F0872DE9BA
:10394000F84F04460D46601B00F054FC44490860E3
:10395000084601684348006800F03AFA41490860A7
:1039600030494048006800F0BFFC02D22D483D4974
:1039700008602D493B48006800F0ACFC02D22A48A0
:1039800038490860384801683548006800F072FA24
:1039900082463648B0F9000000F02CFC83465146C0
:1039A00000F06EFA814623480168484600F068FA44
:1039B00007462F48B0F9000000F01CFC0090294891
:1039C0000168009800F05CFA83461A48016858467E
:1039D00000F056FA81462748B0F9000000F00AFCD2
:1039E00000901F480168009800F04AFA8346114889
:1039F0000168584600F044FA8246494600F0E8F96A
:103A00008046394600F0E4F9064615480068164934
:103A100008603046BDE8F88FA8020020B002002000
:103A2000A40200200000FA440000FAC4AC02002006
:103A300088020020A00200208402002080020020D2
:103A400000E0DD4500E0DDC5B4020020BC0200203E
:103A5000B802002094020020900200208C02002076
:103A6000C0020020C8020020C40200209C020020E6
:103A70009A0200209802002008B501210420FDF7D9
:103A8000F5FBF020ADF8000028208DF80300694612
:103A90007048FCF72DFF08BD10B5002480216D484B
:103AA000FCF7B9FF88B940216A48FCF7B4FF012848
:103AB0000BD120216748FCF7AEFF012805D110216A
:103AC0006448FCF7A8FF00B9C2E080216148FCF718
:103AD000A2FF88B940215F48FCF79DFF60B9202113
:103AE0005C48FCF798FF012806D110215948FCF7E3
:103AF00092FF08B90124ABE080215648FCF78BFF08
:103B000090B940215348FCF786FF68B920215148FD
:103B1000FCF781FF012807D110214E48FCF77BFFFD
:103B2000012801D1022493E080214A48FCF773FF69
:103B300088B940214748FCF76EFF60B9202145480D
:103B4000FCF769FF38B910214248FCF764FF0128EF
:103B500001D105247CE080213E48FCF75CFF98B948
:103B600040213C48FCF757FF01280DD1202139485E
:103B7000FCF751FF012807D110213648FCF74BFF15
:103B8000012801D1042463E080213248FCF743FF7F
:103B900090B940212F48FCF73EFF01280CD120218D
:103BA0002C48FCF738FF38B910212A48FCF733FFBE
:103BB00010B94FF0FF344BE080212648FCF72BFF73
:103BC000012812D140212348FCF725FF01280CD100
:103BD00020212048FCF71FFF38B910211D48FCF7B1
:103BE0001AFF10B96FF0010432E080211948FCF788
:103BF00012FF012811D140211648FCF70CFF60B9D3
:103C000020211448FCF707FF38B910211148FCF7B0
:103C100002FF10B96FF004041AE080210D48FCF790
:103C2000FAFE012813D140210A48FCF7F4FE0128CE
:103C30000DD120210748FCF7EEFE012807D1102105
:103C40000448FCF7E8FE10B96FF0030400E000241C
:103C5000204610BD0008014088B0FEF77DFC8CE0D6
:103C60004648007801282ED10020444908700C20D5
:103C7000042300904248012102681020FFF7C0F998
:103C80000C20042300903F48012102685020FFF7D8
:103C9000B7F90C20042300903B4802210268202041
:103CA000FFF7AEF93948006800F0E4FA05462A4605
:103CB0000B4637A102A800F09BFC0C2302AA0321AB
:103CC0001820FFF7C4F934480078012855D10020A6
:103CD000314908703148008800F0A6FA07464FF0D5
:103CE00066322F4B00F0A5F900222E4BCDE90001E2
:103CF00000F011FA054600222B4B00F09AF982469B
:103D000000F0CBFA0446204600F0B4FA05462A46F5
:103D10000B4626A105A800F06BFC0C2305AA002188
:103D20001020FFF794F92348008800F07DFA05463B
:103D30004FF066321A4B00F07CF907460022194B0F
:103D400000F0E9F9824600224FF0804300F071F95B
:103D5000CDE9000100F0A1FA8146484600F08AFA58
:103D600005462A460B4611A104A800F041FC0C238D
:103D700004AA00216020FFF76AF971E73C020020E5
:103D800054020020500200205C0200206802002043
:103D900025362E32660000003B0200203E02002045
:103DA00066660A400000B0400000264025322E31F1
:103DB0006600000042020020704700BFFEE700BF1F
:103DC000FEE700BFFEE700BFFEE7704770477047A1
:103DD000F0B480EA0102D40F4200B2EB410F02D2EC
:103DE0000246084611464A0042D0C30DDDB2C1F377
:103DF000C752AD1A202D35DAC1F3160141F4000285
:103E000004B15242C5F1200602FA06F12A411044DB
:103E1000B3EBD05F23D0C4B1012DA0EBC35009DCBC
:103E2000F0BC4FF0004202EAC352DBB200F50000E2
:103E300000F0D5BA400000F1807000EBC350A0F153
:103E4000807040EAD170490009E0490841EAC07138
:103E5000A0EBC35000F50000400800EBC350F0BCDD
:103E600000F0B4BA6142012202EB4101001BF6E707
:103E7000F0BC704781F00041AAE780F00040A7E75E
:103E800080EA010210B502F00043400022D04A004F
:103E90001FD0010E01EB1261C0F35600C2F35602AF
:103EA00040F4000042F40002A0FB022000047F392D
:103EB000140400D0401C50EA124001D44000491EB6
:103EC000C2B20C0604EBD010401C4008802A02D07D
:103ED00003E0002010BD20F00100002900DA0020DE
:103EE000184310BD2DE9FE4F804681EA0300C00F44
:103EF0000C46009021F0004123F00045B8EB020091
:103F0000A94105D24046214690461C460B46024632
:103F100023F00040104347D0270DC7F30A00C3F336
:103F20000A510290401A019040286BDAC3F3130043
:103F300040F4801B0098924620B10023D2EB030A84
:103F400063EB0B0B01985946C0F14002504600F05C
:103F50001CFA06460D4650465946019A00F024FACE
:103F600010EB08006141002487EA115284EAE773EC
:103F70001A4340D0009A62B3019A012A4FEA0752CD
:103F800015DC001B61EB02014FF0004202EA075210
:103F9000CDE90042001C41F5801132462B4600F06D
:103FA0005BFA03B0BDE8F08F40462146F9E7001BFD
:103FB00061EB0201001C41F5801300185B412018E1
:103FC000A2F5001747EB030140EAD570B6196D4121
:103FD00011E06D084FEA360645EAC0754FEA075210
:103FE000001B61EB0201001C41F5801149084FEAFA
:103FF00030000019514132462B4603B0BDE8F04F66
:1040000000F01BBA0098012240000023D0EB02020E
:1040100063EBE073009821464FEAE074B8EB0000D0
:1040200061EB0401E9E783F000435BE781F00041C5
:1040300058E72DE9FE4F81EA030404F0004421F023
:10404000004100944FF0000B23F0004350EA0104BC
:104050005ED052EA03045BD0C3F30A54C1F30A559D
:104060002C44A4F2F3340194A0FB0254C1F31301D5
:1040700041F48011C3F3130343F4801301FB0244A2
:1040800000FB034E840A970A44EA815447EA8357A7
:10409000A4FB076802958D0A05FB07854FEA932C60
:1040A00004FB0C542705029D4FEA065847EA1637D1
:1040B000B5EB08056EEB070C870E920E47EA8117E9
:1040C00042EA8312A7FB0201B6EB0B0164EB00048A
:1040D0002B0D43EA0C335E1844EB1C50DA46514674
:1040E000E7FB0201C5F313044FEA0B3343EA145311
:1040F0004FEA0432019C43EA0603A4F10C04029443
:10410000009CCDE900B400F0A7F903B0BDE8F08F42
:1041100000200146F9E72DE9F04D81EA030404F09F
:10412000004B21F0004514464FF0000A23F00041F7
:1041300050EA050220D054EA01021DD0C5F30A5707
:104140000246C5F31303C1F31300C1F30A5640F44A
:10415000801543F48013A7EB0608101BD64608F21F
:10416000FD3873EB050002D308F1010801E0921855
:104170005B41B8F1000F03DA00200146BDE8F08D85
:1041800000204FF48011064684460EE0171B73EBA7
:10419000050705D3121B63EB050306434CEA010C2C
:1041A00049084FEA300092185B4150EA0107EDD10F
:1041B00052EA030012D082EA040083EA05010843B0
:1041C00005D0101BAB4106D20122002306E00022DD
:1041D0004FF0004302E06FF0010253101AEB0600AB
:1041E0004CEB085110EB0A0041EB0B01BDE8F04D20
:1041F00000F023B9C10F80EAE0700844CA07962393
:10420000002100F0ECB80EB5C10F80EAE070084460
:10421000CA07002140F233438DE80E000A460B46E0
:1042200000F01AF903B000BD0EB540F2334102911F
:104230000021CDE900110A460B4600F00DF903B04C
:1042400000BD00F0004220F00040C10DC0F3160098
:1042500040F400007F2901DA00207047962903DC32
:10426000C1F19601C84001E096398840002AF4D097
:104270004042704700F0004230F000400AD0C10DCB
:1042800001F56071C0F3160042EA0151C20840070F
:104290001143704700200146704701F0004330B4DD
:1042A00021F0004150EA010206D00A0DA2F5607229
:1042B000C1F31301002A02DC30BC00207047440F18
:1042C00044EAC104C100E01830BC00EBC25000F069
:1042D0007DB80000002801DBC0F10040002901DBAF
:1042E000C1F1004181427047002801DBC0F100406C
:1042F000002901DBC1F100418842704730B50B460F
:10430000014600202022012409E021FA02F59D4205
:1043100005D303FA02F5491B04FA02F52844151ED9
:10432000A2F10102F1DC30BD2DE9F05F054600206D
:1043300092469B4688460646814640241BE0284616
:1043400041464746224600F017F953465A46C01ADE
:10435000914110D311461846224600F016F82D1A46
:1043600067EB01084F4622460120002100F00DF8BE
:1043700017EB00094E41201EA4F10104DFDC484682
:1043800031462A464346BDE8F09F202A04DB203A06
:1043900000FA02F1002070479140C2F1200320FA98
:1043A00003F3194390407047202A06DBCB17203ACD
:1043B00041FA02F043EAE07306E041FA02F3D0402A
:1043C000C2F1200291400843194670470029A8BF56
:1043D0007047401C490008BF20F00100704710B42E
:1043E000B0FA80FC00FA0CF050EA010404BF10BCE3
:1043F000704749B1CCF1200421FA04F411FA0CF110
:1044000018BF012121430843A3EB0C01CB1D4FEA48
:1044100000614FEA102042BF002010BC704700EB43
:10442000C35010440029A4BF10BC7047401C490071
:1044300008BF20F0010010BC704710B5141E73F1C6
:10444000000408DA401C41F1000192185B411A4354
:1044500001D120F0010010BD2DE9F04D92469B46A0
:1044600011B1B1FA81F202E0B0FA80F22032904646
:10447000FFF78BFF04460F4640EA0A0041EA0B01B2
:1044800053465A46084313D0114653EA010019D047
:10449000C8F14002504600F06FF805460E465046FF
:1044A00059464246FFF771FF084305D0012004E05A
:1044B00020463946BDE8F08D0020054346EAE07607
:1044C0002C4337430A986305E40AA0EB0800002256
:1044D000FD0A44EA47540A3002D500200146E9E7C4
:1044E000010510196941DDE9084500196941BDE878
:1044F000F04DA2E7C1F30A52C1F3130140F2FF33BA
:1045000041F480119A4202DA00200146704740F2DD
:1045100033439A42A2F2334202DC524200F02CB8FA
:10452000FFF733BF30B5041E71F1000404DB4FF018
:104530000044404264EB0101141E73F1000405DBEA
:104540001C464FF00043524263EB0403994208BFFC
:10455000904230BD064C074D06E0E06840F0010394
:1045600094E8070098471034AC42F6D3FBF7C2FD3D
:104570000C5700082C570008202A04DB203A21FAA7
:1045800002F00021704721FA02F3D040C2F120026C
:10459000914008431946704770B58C1810F8015BBC
:1045A00015F0070301D110F8013B2A1106D110F8CC
:1045B000012B03E010F8016B01F8016B5B1EF9D1D0
:1045C0002B0705D40023521E0DD401F8013BFAE756
:1045D00010F8013BCB1A921C03E013F8015B01F8C1
:1045E000015B521EF9D5A142D8D3002070BD000056
:1045F0000FB4084B10B504A902AA039800F0DEF826
:10460000044602A9002000F070FC204610BC5DF8B2
:1046100014FB0000EB4E000802E008C8121F08C19E
:10462000002AFAD170477047002001E001C1121F33
:10463000002AFBD1704700002DE9FF5F82B0002106
:10464000DDE90430020DDDF840B0034318D044F634
:104650001050A2F2FF3242431514119801281FD0C6
:10466000A5EB0B00401C5FEA000A4FF000064E4F1E
:10467000DFF83891B046504615D5CAF1000413E072
:10468000119801244AA3012801D16FEA0B01029875
:10469000119AC0E90031C0E9024206B0BDE8F09FBE
:1046A000CBF10000DFE704460021404A491842EB05
:1046B0000450CDE9001012E0E00707D032463B4637
:1046C00040464946FFF7B5FC8046894632463B46A0
:1046D00010461946FFF7ADFC06460F466410002C45
:1046E000EAD1DDE90401DDE90023BAF1000F06DAC1
:1046F000FFF79FFC42464B46FFF79BFC05E0FFF7A8
:104700000AFD42464B46FFF706FD04460E460022D0
:10471000284BFFF707FF03D84FF0FF30014607E0B3
:104720000022254B20463146FFF7DCFBFFF7E2FE77
:10473000102409E0002C0ADB0A220023FFF7F4FD15
:10474000039B30321A55641E50EA0102F2D1641CF8
:10475000039AC4F111031444119A012A03D00122CF
:1047600008430DD10AE0084304D000204FF0110B9C
:10477000119072E7A3EB0B056D1E0DE05B4504DDA8
:104780004FF0000205F1010504E003DA4FF00002EA
:10479000A5F10105002AECD002981199C0E9023177
:1047A000C0E9004579E70000000014400000F03F38
:1047B000300000000000F0430000E03F2DE9FF4F13
:1047C00095B09B468946064600250FE2252877D1FD
:1047D00000242746F84A0121059400E0044316F816
:1047E000013F203B01FA03F01042F7D130782A282C
:1047F00011D06FF02F033078A0F13002092A16D8BB
:10480000059A44F0020402EB820203EB42021044D8
:10481000761C0590EFE759F8042B0592002A03DA7D
:10482000504244F40054059044F00204761C307861
:104830002E2816D116F8010F44F004042A280DD0B2
:104840006FF02F023078A0F13003092B09D807EB65
:10485000870302EB4303C718761CF3E759F8047B80
:10486000761C30786C280FD006DC4C2817D06828CE
:104870000DD06A2814D104E0742810D07A280FD102
:104880000DE044F400140AE044F4801401E044F420
:1048900040147278824202D104F58014761C761C92
:1048A000307866280BD013DC582877D009DC002834
:1048B00075D04528F6D04628F4D047281AD19DE176
:1048C00018E0632835D0642879D0652812D195E1A5
:1048D000702873D008DC6728F1D069286FD06E2863
:1048E0000DD06F2806D1B5E073282CD0752875D06F
:1048F000782874D05A46179990476D1C75E1C4F317
:104900000250022809D003280DD0D9F8001004283D
:104910000DD00D6009F1040967E1D9F80010EA171C
:10492000C1E90052F6E7D9F800100D80F2E70D70EA
:10493000F0E719F8041B8DF8001000208DF8010035
:10494000EA46012003E059F804AB4FF0FF3061075D
:104950004FF0000102D40DE008F101018846B94290
:104960000FDA8045F8DB1AF808100029F4D108E0C6
:1049700008F1010188468142FADB1AF80810002983
:10498000F6D105985B46A0EB080721463846179AF2
:1049900000F094FA284400EB080507E04DE029E117
:1049A0000DE01AF8010B5A4617999047B8F1010823
:1049B000F7D25B4621463846179A13E142E00A22B5
:1049C0000092C4F302524FF0000A022A08D059F8AC
:1049D00004CB032A4FEAEC710AD00DE029E02AE06B
:1049E00009F1070121F00702F2E802C1914609E04E
:1049F0000FFA8CFC4FEAEC71042A03D14FFA8CFCBD
:104A00004FEAEC71002907DA0A460021DCF1000CBC
:104A100061EB02012D2202E0220504D52B228DF844
:104A20000420012203E0E20701D02022F7E79046AC
:104A300059E00A2102E010220DE010214FF0000A97
:104A400000910BE010224FF0000A44F00404082704
:104A5000009203E008224FF0000A0092C4F30252D1
:104A6000022A05D059F804CB0021032A08D009E016
:104A700009F1070121F00702F2E802C1914605E0C1
:104A80001FFA8CFC042A01D10CF0FF0C4FF0000837
:104A9000220728D5702806D0009B83F0100353EA24
:104AA0000A0305D00EE040228DF80420012208E020
:104AB0005CEA010206D030228DF804208DF8050052
:104AC00002229046009B83F0080353EA0A030AD1AE
:104AD0005CEA010201D1620705D530228DF804207D
:104AE0004FF001087F1E582804D034A003900EA870
:104AF00002900DE036A0F9E753466046009AFFF7B2
:104B000013FC84460398825C0298401E0290027057
:104B10005CEA0100F0D1029806A9081A00F1200A07
:104B2000600702D524F4803400E00127574502DDF8
:104B3000A7EB0A0000E0002000EB0A0100900598B6
:104B40004144401A0590E00306D45B462146179A7B
:104B5000059800F0B3F90544002706E001A85A467D
:104B6000C05D179990476D1C7F1C4745F6DBE0033D
:104B70000CD55B462146179A059800F09FF905442D
:104B800004E030205A46179990476D1C0099481E42
:104B900000900029F5DC08E0029802995A46007856
:104BA000491C0291179990476D1CBAF10001AAF1B6
:104BB000010AF1DC65E100000928010030313233DF
:104BC0003435363738396162636465660000000049
:104BD0003031323334353637383941424344454633
:104BE0000000000000F058F90544761C30780028D9
:104BF0007FF4ECAD19B02846BDE8F08F620700D411
:104C0000062709F1070222F0070CFCE80223E1461F
:104C100003F000485FEA080C02D00FF2702C0DE0A0
:104C20005FEA045C02D50FF2682C07E05FEAC47CFF
:104C300002D00FF2602C01E0AFF2700C4FF0FF38A1
:104C400023F00043CDF850C065280CD006DC452881
:104C500009D046281DD047283DD13DE0662818D010
:104C600067287ED138E00021112F01DB112000E000
:104C7000781CCDE9000106A90EA8FFF7DDFCDDE9EF
:104C80000F010E9A03910021009207F1010A04918D
:104C90004DE04FF000400097CDE9011006A90EA8A5
:104CA000FFF7CAFCDDE90F0203920E9B1199002267
:104CB000DDF80CA00093049211B9791C00EB010AF5
:104CC000B7EB0A0004D4C0F1FF3007F1010A0490E9
:104CD000AAEB0700019044E0012F00DA0127002130
:104CE000112F01DD112000E03846CDE9000106A9B1
:104CF0000EA8FFF7A1FCDDE90F010E9A0391002138
:104D000004910092BA4621070CD40399514500DA68
:104D10008A46BAF1010F05DD009AAAF10101515C42
:104D2000302908D0B84202DA10F1040F06DA012166
:104D3000CDE9011015E0AAF10101E9E7002805DC41
:104D4000049901440491AAEB000102E0411C514581
:104D500000DD8A460499401A401C01904FF0004043
:104D60000290200704D40198504501DBCDF804805F
:104D700000208DF84F0002980DF14F07B0F1004F61
:104D800025D02B200E9002984FF0020800280CDA54
:104D9000404202902D200E9007E00A210298FFF772
:104DA000ADFA3031029007F8011DB8F10001A8F109
:104DB0000108F2DC02980028EFD1791E0E980870E5
:104DC000307800F0200040F0450007F8020D12A8EE
:104DD000C01B00F107081498007800B1012000EB17
:104DE0000A01019801EBE07105984144401A401E08
:104DF0000590E00306D45B462146179A059800F01B
:104E00005DF805441498007818B15A4617999047F0
:104E10006D1CE00324D55B462146179A059800F0E7
:104E20004DF805441CE00498002807DBDDE9030188
:104E3000884203DD0098405C179901E01799302003
:104E40005A469047049805F10105401C04900198CA
:104E5000401E019004D12E205A46179990476D1C90
:104E6000BAF10001AAF1010ADDDC05E017F8010B37
:104E70005A46179990476D1CB8F10001A8F1010836
:104E8000F4DC5B462146179A0598ABE62D0000003E
:104E90002B000000200000002DE9F0410446002511
:104EA0001E461746880404D405E039462020B04742
:104EB0006D1C641EF9D52846BDE8F0812DE9F0414E
:104EC000044600251E469046C80301D5302700E061
:104ED0002027880404D505E041463846B0476D1CBC
:104EE000641EF9D52846BDE8F0810A68531C0B60A2
:104EF000107070470000000000000000002F00004C
:104F000000000700070000147F147F1400242A7F8C
:104F10002A1200626408132300364955225000000B
:104F20000503000000001C224100000041221C007B
:104F30000014083E08140008083E0808000000A0FD
:104F400060000008080808080000606000000020F9
:104F500010080402003E5149453E0000427F4000D7
:104F6000004261514946002141454B31001814125D
:104F70007F10002745454539003C4A49493000012A
:104F80007109050300364949493600064949291E79
:104F900000003636000000005636000000081422DB
:104FA00041000014141414140000412214080002DB
:104FB0000151090600324959513E007C1211127C00
:104FC000007F49494936003E41414122007F41412D
:104FD000221C007F49494941007F09090901003E1F
:104FE0004149497A007F0808087F0000417F41005D
:104FF000002040413F01007F08142241007F4040D3
:105000004040007F020C027F007F0408107F003EBA
:105010004141413E007F09090906003E4151215EA0
:10502000007F091929460046494949310001017F9D
:105030000101003F4040403F001F2040201F003F33
:105040004038403F006314081463000708700807E5
:1050500000615149454300007F41410000552A55F8
:105060002A55000041417F00000402010204004073
:105070004040404000000102040000205454547895
:10508000007F4844443800384444442000384444B5
:10509000487F00385454541800087E090102001853
:1050A000A4A4A47C007F080404780000447D400090
:1050B000004080847D00007F102844000000417F74
:1050C0004000007C04180478007C08040478003850
:1050D0004444443800FC242424180018242418FCD8
:1050E000007C0804040800485454542000043F4441
:1050F0004020003C4040207C001C2040201C003C04
:105100004030403C004428102844001CA0A0A07C53
:10511000004464544C44141414141414000000008B
:10512000000000000000000000000000000000F887
:1051300000000000000000333000000000100C06EA
:10514000100C0600000000000000000040C0784085
:10515000C0784000043F04043F040400007088FC51
:1051600008300000001820FF211E0000F008F000A9
:10517000E018000000211C031E211E0000F008881A
:10518000700000001E2123241927211010160E0084
:10519000000000000000000000000000000000E02F
:1051A0001804020000000007182040000002041844
:1051B000E00000000040201807000000404080F0A0
:1051C000804040000202010F01020200000000F0D6
:1051D000000000000101011F0101010000000000AA
:1051E0000000000080B0700000000000000000001F
:1051F00000000000000101010101010100000000A8
:10520000000000000030300000000000000000003E
:1052100080601804006018060100000000E010081B
:105220000810E000000F102020100F00001010F8F0
:10523000000000000020203F20200000007008082F
:1052400008887000003028242221300000300888AF
:10525000884830000018202020110E000000C020D7
:1052600010F8000000070424243F240000F80888F8
:10527000880808000019212020110E0000E0108885
:1052800088180000000F112020110E0000380808B7
:10529000C83808000000003F0000000000708808C7
:1052A00008887000001C222121221C0000E0100848
:1052B0000810E0000000312222110F00000000C0A1
:1052C000C00000000000003030000000000000803E
:1052D000000000000000806000000000000080402E
:1052E0002010080000010204081020004040404047
:1052F000404040000404040404040400000810209A
:1053000040800000002010080402010000704808DE
:105310000808F0000000003036010000C030C82846
:10532000E810E0000718272423140B000000C03801
:10533000E0000000203C23020227382008F888887B
:1053400088700000203F202020110E00C030080887
:1053500008083800071820202010080008F808085E
:105360000810E000203F202020100F0008F8888857
:10537000E8081000203F20202320180008F8888823
:10538000E8081000203F200003000000C03008089B
:105390000838000007182020221E020008F8080024
:1053A0000008F808203F210101213F20000808F8EB
:1053B000080800000020203F20200000000008080E
:1053C000F8080800C08080807F00000008F888C0CE
:1053D00028180800203F20012638200008F808007F
:1053E00000000000203F20202020300008F8F800B6
:1053F000F8F80800203F003F003F200008F830C0C8
:105400000008F808203F200007183F00E0100808B7
:105410000810E0000F10202020100F0008F80808E6
:105420000808F000203F210101010000E0100808F9
:105430000810E0000F18242438504F0008F888881E
:1054400088887000203F2000030C302000708808FE
:10545000080838000038202121221C00180808F80C
:10546000080818000000203F2000000008F808008D
:105470000008F808001F202020201F00087888005E
:1054800000C83808000007380E010000F80800F8CE
:105490000008F800033C0700073C03000818688078
:1054A0008068180820302C03032C30200838C800EE
:1054B000C83808000000203F20000000100808083D
:1054C000C83808002038262120201800000000FEDF
:1054D000020202000000007F40404000000C30C08B
:1054E00000000000000000010638C00000020202B7
:1054F000FE000000004040407F0000000000040269
:105500000202040000000000000000000000000093
:105510000000000080808080808080800002020483
:10552000000000000000000000000000000080807B
:10553000808000000019242222223F2008F80080E9
:1055400080000000003F112020110E0000000080AC
:1055500080800000000E112020201100000000803B
:105560008088F800000E112020103F20000080806D
:1055700080800000001F222222221300008080F081
:10558000888888180020203F2020000000008080AC
:1055900080808000006B94949493600008F80080F1
:1055A00080800000203F210000203F20008098984C
:1055B000000000000020203F2020000000000080AC
:1055C0009898000000C08080807F000008F80000EC
:1055D00080808000203F24022D302000000808F841
:1055E000000000000020203F2020000080808080FC
:1055F00080808000203F20003F20003F808000808E
:1056000080800000203F210000203F20000080809B
:1056100080800000001F202020201F00808000804C
:105620008000000080FFA12020110E0000000080FB
:1056300080808000000E112020A0FF8080808000EC
:105640008080800020203F21200001000000808019
:10565000808080000033242424241900008080E00E
:10566000808000000000001F2020000080800000DB
:1056700000808000001F202020103F2080808000BC
:105680000080808000010E300806010080800080CC
:10569000008080800F300C030C300F0000808000F1
:1056A000808080000020312E0E312000808080001C
:1056B0000080808080818E701806010000808080CC
:1056C000808080000021302C22213000000000006A
:1056D000807C020200000000003F4040000000000B
:1056E000FF00000000000000FF0000000002027C3C
:1056F000800000000040403F000000000006010163
:105700000202040400000000000000002C57000802
:1057100000000020CC020000984500083C5800081A
:10572000CC02002004040000284600081184A24A8C
:1057300004680901020304060708090C6910051032
:105740000204060815404042CC000B1440A09E8283
:1057500082829EA02020000D113F908840432C1093
:1057600028464180801C100C44012B45C6060411BC
:1057700044140C38098040201E2040407F20031232
:105780004040380908884828180FE8080109111F07
:105790002B0809013AFF0609112139C0000A130438
:1057A000F49494FF9494F404080E1040201F2048B1
:1057B0004442415F414244488029764C88780F7FBB
:1057C0000911601E2010484641012A7F050911C0B9
:1057D00029350B18C838402E08040201FF3C190176
:1057E0000213FF080E12C8B88FE888C820900C0377
:1057F0000C902060161808FF04041A3FC2041440DD
:1058000040702809FC242424FC25262408021104C5
:1058100000103140308F80844C55252525554C8013
:1058200080801A40D302253C239643EB48420C2348
:0C583000580232320528CDCCCC3D0000DF
:04000005080000ED02
:00000001FF
