:020000040800F2
:1000000098080020C9010008571E0008591E000862
:100010005D1E0008611E0008651E0008000000004B
:10002000000000000000000000000000691E000841
:100030006B1E0008000000006D1E0008E1010008B2
:10004000E3010008E3010008E3010008E301000800
:10005000E3010008E3010008E3010008E3010008F0
:10006000E3010008E3010008E3010008E3010008E0
:10007000E3010008E3010008E3010008E3010008D0
:10008000E3010008E3010008E3010008E3010008C0
:10009000E3010008E3010008E3010008E3010008B0
:1000A000E3010008E3010008E3010008E3010008A0
:1000B000E3010008E3010008E3010008E301000890
:1000C000E3010008E3010008E3010008E301000880
:1000D000E3010008A9150008E3010008E301000896
:1000E000E3010008E3010008E301000800F002F862
:1000F00000F05AF80AA090E8000C82448344AAF168
:100100000107DA4501D100F04FF8AFF2090EBAE865
:100110000F0013F0010F18BFFB1A43F0010318473B
:10012000E0250000002600000A444FF0000C10F803
:10013000013B13F0070408BF10F8014B1D1108BF65
:1001400010F8015B641E05D010F8016B641E01F805
:10015000016BF9D113F0080F1EBF10F8014BAD1C55
:100160000C1B09D16D1E58BF01F801CBFAD505E073
:1001700014F8016B01F8016B6D1EF9D59142D6D3CD
:10018000704700000023002400250026103A28BFF5
:1001900078C1FBD8520728BF30C148BF0B607047F9
:1001A0001FB51FBD10B510BD01F064FE1146FFF76D
:1001B000F7FF01F046FE01F082FE03B4FFF7F2FF05
:1001C00003BC01F089FE0000094880470948004748
:1001D000FEE7FEE7FEE7FEE7FEE7FEE7FEE7FEE7F7
:1001E000FEE7FEE704480549054A064B7047000054
:1001F000E7020008ED00000898020020980800209F
:1002000098040020980400200CB500200190009074
:100210006C48006840F480306A49086000BF694853
:10022000006800F4003000900198401C0190009894
:1002300018B90198B0F5A06FF1D16248006800F4D8
:10024000003010B10120009001E0002000900098E3
:10025000012843D15C48006840F010005A4908600A
:100260000846006820F0030008600846006840F077
:100270000200086053484068524948600846406898
:1002800048600846406840F480604860084640681E
:1002900020F47C1048600846406840F4E81048604C
:1002A0000846006840F08070086000BF454800685C
:1002B00000F000700028F9D04248406820F00300A8
:1002C000404948600846406840F00200486000BF6E
:1002D0003C48406800F00C000828F9D10CBD10B56E
:1002E000FFF792FF10BD10B53648006840F00100DE
:1002F000344908600846406834490840314948603C
:1003000008460068324908402E49086008460068DF
:1003100020F4802008600846406820F4FE00486011
:100320004FF41F008860FFF7DAFF4FF000602949A3
:10033000086010BD10B5002100200022214B5B6831
:1003400003F00C0121B1042906D0082928D107E0C7
:10035000214B224C236027E01F4B204C236023E0DD
:10036000184B5B6803F47010164B5B6803F4803223
:10037000022303EB904022B9194B4343174C2360EF
:100380000DE0104B5B6803F4003323B1144B43437F
:10039000124C236003E0104B4343104C236003E0F6
:1003A0000D4B0E4C236000BF00BF064B5B68C3F3D0
:1003B00003130C4CE15C094B1B68CB40074C2360DA
:1003C00010BD000000100240002002400000FFF8B5
:1003D000FFFFF6FE08ED00E000127A0000000020AA
:1003E00000093D000400002031490143314A1160F9
:1003F000704770B5002100230F22C47804B32D4C40
:10040000246804F4E064C4F5E064210AC1F1040343
:10041000CA40447804FA03F1847814402143090166
:10042000254C0678A155047804F01F050124AC4042
:1004300005786D11AD0005F1E025C5F8004109E032
:10044000047804F01F050124AC401C4D0678761199
:1004500045F8264070BD1A4A0A400243154B1B1F3F
:100460001A60704739B1134A121D12680243114BCA
:100470001B1D1A6006E00F4A121D126882430D4BC5
:100480001B1D1A607047042808D14FF0E02109694C
:1004900041F004014FF0E022116107E04FF0E0214C
:1004A000096921F004014FF0E0221161704700005A
:1004B0000000FA050CED00E000E400E080E100E05F
:1004C00080FFFF1F10B50446CC48844208D10121AB
:1004D000042000F02FFD0021042000F02BFD46E059
:1004E000C748844208D10121082000F023FD0021E3
:1004F000082000F01FFD3AE0C248844208D10121E3
:10050000102000F017FD0021102000F013FD2EE058
:10051000BD48844208D10121202000F00BFD0021BC
:10052000202000F007FD22E0B848844208D10121D4
:10053000402000F0FFFC0021402000F0FBFC16E012
:10054000B348844208D10121802000F0F3FC00214F
:10055000802000F0EFFC0AE0AE48844207D1012180
:10056000801500F0E7FC0021A01500F0E3FC10BDB1
:1005700010B50121084600F0DDFC0021012000F04B
:10058000D9FC10BD2DE9F0410246002500260020CF
:1005900000230024002791F803C00CF00F0591F808
:1005A00003C00CF0100CBCF1000F03D091F802C096
:1005B0004CEA050591F800C0BCF1000F31D0146879
:1005C00000202BE04FF0010C0CFA00F3B1F800C052
:1005D0000CEA03069E4220D183004FF00F0C0CFA68
:1005E00003F7BC4305FA03FC4CEA040491F803C08A
:1005F000BCF1280F06D14FF0010C0CFA00FCC2F838
:1006000014C00AE091F803C0BCF1480F05D14FF0C7
:10061000010C0CFA00FCC2F810C0401C0828D1D311
:100620001460B1F800C0BCF1FF0F34DD5468002045
:100630002EE000F1080C4FF0010808FA0CF3B1F8B5
:1006400000C00CEA03069E4221D183004FF00F0C3C
:100650000CFA03F7BC4305FA03FC4CEA040491F8D6
:1006600003C0BCF1280F05D100F1080C08FA0CF802
:10067000C2F8148091F803C0BCF1480F07D100F113
:10068000080C4FF0010808FA0CF8C2F81080401C62
:100690000828CED35460BDE8F0814FF6FF71018089
:1006A000022181700421C1707047024600209368C6
:1006B0000B400BB1012000E0002070470146886824
:1006C00080B2704702460020D3680B400BB1012076
:1006D00000E0002070470146C86880B270470161A1
:1006E0007047416170470AB1016100E041617047A4
:1006F000C16070474FF480320A4382618161826138
:1007000082698269704702460020434B18684FF6A1
:100710008073184040EA021008433F4B186070474E
:100720003E49C8617047F0B50A4600230024002105
:10073000002500F00046B6F1004F02D1364EF169B7
:1007400001E0354E7168C0F3034583B200F44016F2
:10075000B6F5401F08D121F070612F4E766826F063
:1007600070662D4F7E6012E000F48016B6F5801F93
:1007700006D1032606FA05F4A14341F0706106E0B4
:10078000460D360103FA06F6B14341F0706122B11D
:10079000460D360103FA06F6314300F00046B6F185
:1007A000004F02D11C4EF16101E01B4E7160F0BDA3
:1007B00030B500228B071C0F0F2303FA04F2164BEF
:1007C00008338C1053F824309343134C08348D10A5
:1007D00044F8253023468C1053F824308C07240F1E
:1007E00000FA04F423430C4C08348D1044F82530EF
:1007F00030BD0A49DC310860704700000008014044
:10080000000C01400010014000140140001801409C
:10081000001C014000200140000001400000204277
:1008200010B50446F748844209D10121480500F07B
:100830008EFB00214FF4001000F089FB08E001213D
:10084000880500F084FB00214FF4800000F07FFB5E
:1008500010BD2DE9F04385B004460D460026B14693
:100860000427DFF8A483A6884FF6C07006406846C8
:1008700000F0D9FADDF80880E448B8FBF0F01FFA80
:1008800080F946EA0906A68020884FF6FE710840E6
:1008900020800026DE49286888420CD8286840005D
:1008A000B8FBF0F087B2042F00DA04273E4309F1C9
:1008B0000100208427E0E8884BF6FF71884206D1CA
:1008C000286800EB4000B8FBF0F087B209E0286828
:1008D00000EBC00101EB0010B8FBF0F087B247F469
:1008E0008047C7F30B0008B947F0010747F4004001
:1008F00006434FF4967009FB00F04FF47A7190FBB9
:10090000F1F0401C2084A683208840F00100208064
:1009100026884FF6F5300640A888698908430643C3
:100920002680A88929890843208105B0BDE8F08385
:1009300041F288310160002181804BF6FF71C18056
:100940000021018141814FF480418181704721B1B3
:10095000028842F00102028004E002884FF6FE7332
:100960001A400280704721B1828842F4006282807E
:1009700004E082884FF2FF731A408280704721B1F1
:10098000828842F48052828004E082884EF6FF73AF
:100990001A408280704721B1028842F4807202803E
:1009A00004E002884FF6FF631A400280704721B1CD
:1009B000028842F40072028004E002884FF6FF537E
:1009C0001A400280704721B1028842F4806202809E
:1009D00004E002884FF6FF331A40028070470A464F
:1009E000002181894FF60173194002F0FE0319437B
:1009F0008181704721B1828942F00102828104E045
:100A000082894FF6FE731A408281704721B10288B5
:100A100042F04002028004E002884FF6BF731A40A1
:100A2000028070471AB183880B43838002E0838879
:100A30008B4383807047018270470146088AC0B2A9
:100A4000704712B141F0010102E04FF6FE73194008
:100A50000182704708B5024600200090009200987D
:100A6000084400900098008808BD21B1028842F433
:100A70000042028003E00288C2F30E020280704747
:100A8000B1F5006F04D1028842F40062028004E0F4
:100A900002884FF2FF731A4002807047B1F5005F81
:100AA00004D1028842F40052028004E002884DF62C
:100AB000FF731A400280704721B1028842F48052CD
:100AC000028004E002884EF6FF731A4002807047ED
:100AD000B1F5006F04D1028842F40062028004E0A4
:100AE00002884FF2FF731A400280704721B10288DA
:100AF00042F02002028004E002884FF6DF731A40C1
:100B0000028070470146088B0012704721B10288AD
:100B100042F01002028004E002884FF6EF731A40A0
:100B20000280704721B9028842F08002028004E00E
:100B300002884FF67F731A4002807047B1F5804FEC
:100B400005D0828B4BF6FF731A40828303E0828BC1
:100B500042F480428283704770B50246002400252B
:100B600000230020958A138B1B0445EA030626F018
:100B70007F4404EA01068E4201D1012000E00020FA
:100B800070BD10B501460020002300228B8A0A8B1D
:100B9000120443EA020424F07F4010BD0CB5024663
:100BA000002000230193009300920B0F019321F08A
:100BB0007F41019B1BB1009B1433009303E0090CA0
:100BC000009B18330093009B1B680B400BB1012066
:100BD00000E000200CBD002221F07F42D34383823D
:100BE000704730B5024600200023948801F0E0658C
:100BF00004EA154321F07F41948A0C4054B14BB173
:100C0000012008E00054004000127A0040420F002A
:100C1000A0860100002030BD002221F07F42D34396
:100C200083827047DF48006840F00100DD490860BA
:100C300008464068DC490840DA49486008460068D0
:100C4000DA490840D74908600846006820F4802047
:100C500008600846406820F4FE0048604FF41F001A
:100C600088607047CF49096821F48031CD4A11600E
:100C70001146096821F480211160B0F5803F03D04E
:100C8000B0F5802F0ED106E0C649096841F48031E5
:100C9000C44A116007E0C349096841F4A021C14A70
:100CA000116000E000BF00BF704710B50146002290
:100CB000002300204A11012A02D1BA4C236806E021
:100CC000022A02D1B74C236A01E0B64C636A01F0F4
:100CD0001F02012494401C400CB1012000E00020C0
:100CE00010BD38B5002000900024002500BF312041
:100CF000FFF7DBFF05460098401C00900098B0F518
:100D0000A06F01D0002DF2D03120FFF7CEFF08B147
:100D1000012400E00024204638BD01460020A14AFD
:100D2000106820F0F80040EAC10010607047A04948
:100D300008607047024600209A4B586820F47C10E7
:100D400042EA01031843974B586070479849086678
:100D5000704701460020934A506820F00300084382
:100D6000506070478F48406800F00C0070470146A3
:100D700000208C4A506820F0F00008435060704713
:100D800001460020874A506820F4E0600843506024
:100D9000704701460020834A506820F4605040EAC2
:100DA000C1005060704729B17E4A527A02437D4BA0
:100DB0005A7204E07B4A527A82437A4B5A727047E5
:100DC0007B49D8310860704701460020754A506859
:100DD00020F440400843506070470021714A20329F
:100DE0001170704A82F82010012802D004280AD11C
:100DF00004E001216B4A2032117005E00521694AA7
:100E00002032117000E000BF00BF704769490860E0
:100E100070476449096A0143624A11627047654933
:100E200044390860704730B50021002200240023B7
:100E30005C4D6D6805F00C0121B1042905D008292D
:100E400023D105E05C4D056022E05B4D05601FE0AD
:100E5000544D6D6805F47012524D6D6805F4803480
:100E6000022505EB92421CB9544D554305600BE039
:100E70004C4D6D6805F400351DB1504D554305606E
:100E800002E04D4D5543056002E04B4D056000BF4B
:100E900000BF444D6D6805F0F0010909484D6B5CD9
:100EA0000568DD4045603F4D6D6805F4E061090A65
:100EB000434D6B5C4568DD4085603A4D6D6805F4D7
:100EC0006051C90A3E4D6B5C4568DD40C560354DDB
:100ED0006D6805F44041890B3A4D6B5CC568B5FB04
:100EE000F3F5056130BD29B12E4A526902432D4BFD
:100EF0005A6104E02B4A526982432A4B5A61704777
:100F000029B1284A92690243264B9A6104E0254A96
:100F100092698243234B9A61704729B1214AD26971
:100F20000243204BDA6104E01E4AD26982431D4B22
:100F3000DA61704729B11B4AD2680243194BDA6063
:100F400004E0184AD2688243164BDA60704729B130
:100F5000144A12690243134B1A6104E0114A1269E0
:100F60008243104B1A61704712494039086070473C
:100F70000F49C86470470B49C87170470948406AF7
:100F800040F0807007494862704701460020054ADA
:100F900092680A400AB1012000E000207047014930
:100FA00088727047001002400000FFF8FFFFF6FE55
:100FB000000042428004424200127A0000093D00D3
:100FC000140000202400002010B50446FB48844291
:100FD00009D101218803FFF7ADFF00214FF48040C4
:100FE000FFF7A8FF32E0F648844209D10121480406
:100FF000FFF7ADFF00214FF40030FFF7A8FF25E019
:10100000F048844209D101218804FFF7A0FF0021A4
:101010004FF48020FFF79BFF18E0EB48844209D192
:101020000121C804FFF793FF00214FF40020FFF7D0
:101030008EFF0BE0E548844208D101210805FFF747
:1010400086FF00214FF48010FFF781FF10BD2DE9CE
:10105000F04786B005460E460024A24600BFA146D2
:101060000027B08900B100BF2F462C8A4CF6FF70D4
:101070000440F08804432C82AC894EF6F3100440FF
:10108000B08831890843718908430443AC81AC8A34
:101090004FF6FF400440B0890443AC8201A8FFF73B
:1010A000C2FEC648874202D1DDF810A001E0DDF89B
:1010B0000CA0A88900F4004040B10AEBCA0000EB84
:1010C0000A1031684900B0FBF1F807E00AEBCA00EA
:1010D00000EB0A1031688900B0FBF1F86420B8FB1E
:1010E000F0F004012009642101FB1089A88900F4B3
:1010F000004040B1322000EBC900B0FBF1F000F03D
:101100000700044308E0322000EB09106421B0FB23
:10111000F1F000F00F0004432C8106B0BDE8F08729
:101120004FF41651016000218180C18001810C21A2
:10113000418100218181704710B502460020108A4C
:101140004FF2FF0318400B884C8823438C882343BD
:10115000CC8823431843108210BD002101804180B8
:101160008180C180704721B1828942F4005282811E
:1011700004E082894DF6FF731A4082817047F0B512
:101180000346002400260025002040F66A17B942D5
:1011900000D100BF1846C1F3421401F01F06012719
:1011A00007FA06F5012C01D10C3004E0022C01D124
:1011B000103000E014301AB107682F43076002E0D6
:1011C0000768AF430760F0BD1AB1838A0B4383827F
:1011D00002E0838A8B4383827047028A4FF6F07362
:1011E0001A400282028A0A430282704782894FF2C1
:1011F000FF731A40828182890A438281704721B13C
:10120000828942F00202828104E082894FF6FD73F6
:101210001A4082817047028A4FF6DF731A400282B9
:10122000028A0A430282704721B1028A42F4804254
:10123000028204E0028A4BF6FF731A400282704772
:10124000C1F308028280704701468888C0F3080015
:101250007047818941F0010181817047028BD2B2D0
:101260000283028B42EA012202837047028B02F45E
:101270007F420283028B0A430283704721B1828A34
:1012800042F02002828204E0828A4FF6DF731A4025
:101290008282704721B1828A42F01002828204E089
:1012A000828A4FF6EF731A408282704721B1828A98
:1012B00042F00802828204E0828A4FF6F7731A40F5
:1012C0008282704721B1828942F40042828103E028
:1012D0008289C2F30E028281704721B1828A42F470
:1012E0000062828204E0828A4FF2FF731A40828297
:1012F0007047828A4FF6FB731A408282828A0A43C1
:101300008282704721B1828A42F00202828204E026
:10131000828A4FF6FD731A4082827047024600208F
:10132000B1F5007F00D100BF13880B400BB1012045
:1013300000E00020704701F40072B2F5007F00D198
:1013400000BFCA430280704770B5024600240023E4
:101350000025002040F66A16B14200D100BFC1F35B
:10136000421501F01F03012606FA03F3012D02D1F5
:101370009689334006E0022D02D1168A334001E0FF
:10138000968A33400C12012606FA04F4168834407B
:1013900013B10CB1012000E0002070BD10B5002297
:1013A000002340F66A14A14200D100BF0A120124B2
:1013B0009440A3B2DC43048010BD0000003801401B
:1013C0000044004000480040004C004000500040F5
:1013D00010B500F05CF800F013F800F09DFA00F092
:1013E000B4FC00F04FFB102304A20021084600F0DB
:1013F00023FC642000F013F910BD00004D4357009A
:1014000008B501211020FFF77BFD4FF40050ADF827
:10141000000010208DF8030003208DF802006946BB
:101420000F48FFF7AFF808BD70B504460D480068D7
:10143000401C0C490860A04210D14FF400510848EC
:10144000FFF733F9C0F10100C5B22A464FF400514D
:101450000348FFF748F900200249086070BD00000A
:10146000001001402800002008B54FF4E060FEF7AE
:10147000BBFF19208DF8000001208DF801008DF8C8
:1014800002008DF803006846FEF7B3FF08BD10B5F3
:10149000FFF7EAFF10BD000010B586B00446012139
:1014A00044F20400FFF72CFD4FF40070ADF8140077
:1014B00018208DF8170003208DF8160005A94C4858
:1014C000FFF760F84FF48060ADF8140004208DF849
:1014D000170005A94648FFF755F801940020ADF81C
:1014E0000800ADF80A00ADF80C00ADF810000C20B3
:1014F000ADF80E0001A93F48FFF7A9FD012240F217
:1015000025513C48FFF73BFE01213A48FFF72BFEEF
:1015100006B010BD70B504460D46E1B23548FFF780
:101520008FFE00BF80213348FFF7F8FE0028F9D076
:10153000204670BD10B5044600BF20212D48FFF79E
:10154000EDFE0028F9D02B48FFF77EFE10BD70B5E8
:1015500004460D4640212748FFF7EDFE802125482F
:10156000FFF71CFF13E021782248FFF769FE00BF58
:1015700040212048FFF7D2FE0128F9D140211D4823
:10158000FFF7D9FE80211B48FFF708FF641C281EC7
:10159000A5F10105E7D170BD0022174B1A60174A6B
:1015A0001160174A1060704710B540F2255111487C
:1015B000FFF7CAFED8B10F48FFF746FEC4B20F4886
:1015C00000680D49096888420CD90D48006804700C
:1015D0000B480068401C0A49086007480068401C26
:1015E0000549086040F225510248FFF7D7FE10BDBB
:1015F0000008014000380140300000203400002085
:101600002C000020002105E00A2100BF0A1EA1F1E4
:101610000101FBD1021EA0F10100F5D170470021AC
:1016200006E042F6E06100BF0A1EA1F10101FBD114
:10163000021EA0F1010398B2F3D170472DE9F041E9
:101640000746884615461C46069E00BF4FF40031EB
:101650003846FFF7A3FA0028F8D101213846FFF7F2
:101660009AF900BFC9493846FFF776FA0028F9D041
:10167000002241463846FFF7E4F900BFC449384626
:10168000FFF76AFA0028F9D029463846FFF7D3F960
:1016900000BFBF49891C3846FFF75EFA0028F8D022
:1016A00001213846FFF777F900BFB8493846FFF700
:1016B00053FA0028F9D0012241463846FFF7C1F914
:1016C00000BFB249491C3846FFF746FA0028F8D057
:1016D00001213846FFF777F90EE000BFAB493F31F3
:1016E0003846FFF739FA0028F8D03846FFF7A5F951
:1016F0002070701E86B2641C012EEEDC002138467C
:10170000FFF761F901213846FFF751F900BF9F4902
:101710003F313846FFF720FA0028F8D03846FFF767
:101720008CF92070BDE8F0812DE9F041074688462C
:1017300015461C46069E00BF4FF400313846FFF7A1
:101740002DFA0028F8D101213846FFF724F900BF0F
:101750008E493846FFF700FA0028F9D000224146AA
:101760003846FFF76EF900BF89493846FFF7F4F9AC
:101770000028F9D029463846FFF75DF900BF8449B3
:10178000891E3846FFF7E8F90028F8D00EE02178E6
:101790003846FFF750F900BF7D49891E3846FFF7EC
:1017A000DBF90028F8D0701E86B2641C012EEEDC36
:1017B00021783846FFF73FF900BF7549891C384644
:1017C000FFF7CAF90028F8D001213846FFF7EFF8F3
:1017D000BDE8F0812DE9F04106460F4614461D464E
:1017E00000BF4FF400313046FFF7D8F90028F8D198
:1017F00001213046FFF7CFF800BF64493046FFF7BC
:10180000ABF90028F9D0002239463046FFF719F924
:1018100000BF5F493046FFF79FF90028F9D0214605
:101820003046FFF708F900BF5949891C3046FFF7D9
:1018300093F90028F8D001213046FFF7ACF800BF3B
:1018400052493046FFF788F90028F9D0012239467D
:101850003046FFF7F6F800BF4C49491C3046FFF709
:101860007BF90028F8D000213046FFF7ACF80121C1
:101870003046FFF79CF800BF44493F313046FFF740
:101880006BF90028F8D03046FFF7D7F82870BDE88C
:10189000F0812DE9F04106460F4614461D4600BF73
:1018A0004FF400313046FFF779F90028F8D10121D3
:1018B0003046FFF770F800BF34493046FFF74CF967
:1018C0000028F9D0002239463046FFF7BAF800BFA9
:1018D0002F493046FFF740F90028F9D0214630461D
:1018E000FFF7A9F800BF2A49891E3046FFF734F9EF
:1018F0000028F8D029463046FFF79DF800BF24495C
:10190000891C3046FFF728F90028F8D0012130461D
:10191000FFF74DF8BDE8F08100B585B001218805DD
:10192000FFF7FBFA01210820FFF7EAFA4FF44060C5
:10193000ADF810001C208DF8130003208DF8120064
:1019400004A91448FEF71EFE4FF440611148FEF74B
:10195000C6FE114800900020ADF804004BF6FF7061
:10196000ADF806004FF48060ADF80A000001ADF854
:101970000C000A20ADF8080069460848FEF769FF28
:1019800001210648FEF7E3FF05B000BD010003009A
:1019900082000700000C0140801A06000058004039
:1019A00070B504460D46E3B2EAB27821FE48FFF76F
:1019B00070FF70BD70B50646002418E004F1B00059
:1019C0000021FFF7EDFF00210846FFF7E9FF0021A6
:1019D0001020FFF7E5FF002505E001213046FFF765
:1019E000DFFF681CC5B2802DF7DB601CC4B2082C79
:1019F000E4DB70BD06E041F6650100E0491E002908
:101A0000FCD1401E0028F6D17047014605E00020B9
:101A100001E0421CD0B27B28FBDB0A1EA1F10101D0
:101A2000F5D1704770B504460D4605F1B0000021B0
:101A3000FFF7B6FF102141EA14100021FFF7B0FFB5
:101A400004F00F000021FFF7ABFF70BD10B50021BF
:101A50008D20FFF7A5FF00211420FFF7A1FF002133
:101A6000AF20FFF79DFF10BD10B500218D20FFF7BF
:101A700097FF00211020FFF793FF0021AE20FFF712
:101A80008FFF10BD70B5002418E004F1B0000021F4
:101A9000FFF786FF00210846FFF782FF0021102094
:101AA000FFF77EFF002505E040210020FFF778FFCB
:101AB000681CC5B2802DF7DB601CC4B2082CE4DBC7
:101AC00070BD70B5002418E004F1B0000021FFF7EC
:101AD00067FF00210846FFF763FF00211020FFF792
:101AE0005FFF002505E040210120FFF759FF681C3A
:101AF000C5B2802DF7DB601CC4B2082CE4DB70BDDE
:101B00002DE9F04707460E469046994600250024E9
:101B1000A8F12000C5B27F2F02DD0027B01CC6B29D
:101B2000B9F1100F24D131463846FFF77BFF00246E
:101B300008E004EB05119D4A505C4021FFF730FF9F
:101B4000601CC4B2082CF4DB701CC1B23846FFF72D
:101B500069FF002409E004EB05110831934A505C49
:101B60004021FFF71DFF601CC4B2082CF3DB12E01C
:101B700031463846FFF756FF00240AE005EB4501E1
:101B80008B4A02EB4101085D4021FFF709FF601C11
:101B9000C4B2062CF2DBBDE8F08710B50246012086
:101BA00000E050430B1EA1F10104E1B2F9D110BDD8
:101BB0002DE9FF5F074691461E460E9D4FF0000A35
:101BC000002435E0301B401EC1B20A20FFF7E5FFBC
:101BD000B9FBF0F00A21B0FBF1F201FB1208BAF1F7
:101BE000000F14D1701EA04211DDB8F1000F0CD10E
:101BF000AB4605EBDB71491001FB0471C8B22B4603
:101C000020220199FFF77CFF10E04FF0010AAB465C
:101C100005EBDB71491001FB0471C8B208F130011A
:101C2000CAB22B460199FFF76BFF00BF601CC4B21C
:101C3000B442C7DBBDE8FF9F2DE9F04104460F46E3
:101C40001546984600260FE0AA5D434639462046D1
:101C5000FFF756FF04F10800C4B2782C02DD00241F
:101C6000B81CC7B2701CC6B2A85D0028ECD1BDE894
:101C7000F0812DE9F04180460E4615460027314699
:101C80004046FFF7CFFE00240AE04A4A02EB8511E6
:101C9000085D4021FFF784FE781CC7B2601CC4B207
:101CA000102CF2DB701CC1B24046FFF7BBFE0024D3
:101CB0000CE06900491C3F4A02EB4111085D4021DC
:101CC000FFF76EFE781CC7B2601CC4B2102CF0DBAC
:101CD000BDE8F0812DE9F05F06460F4690461C46B0
:101CE000DDF828A04FF0000BE11704EB5171C9108B
:101CF000A4EBC10131B92046E11704EB5171C1F3E6
:101D0000C70506E02046E11704EB5171C910491CD4
:101D1000CDB23D4615E029463046FFF783FEB14679
:101D20000BE059460BF1010B1AF801004021FFF7B7
:101D300037FE09F1010000F0FF09C145F1DB681C25
:101D4000C5B2A542E7DBBDE8F09F10B5FFF7E4FDA3
:101D50006420FFF764FC0021AE20FFF721FE002184
:101D60000846FFF71DFE00211020FFF719FE002195
:101D70004020FFF715FE0021B020FFF711FE0021E3
:101D80008120FFF70DFE0021FF20FFF709FE002153
:101D9000A120FFF705FE0021A620FFF701FE00218C
:101DA000A820FFF7FDFD07E0005800400E210008C5
:101DB000E61E00083800002000213F20FFF7F0FD5C
:101DC0000021C820FFF7ECFD0021D320FFF7E8FD3C
:101DD00000210846FFF7E4FD0021D520FFF7E0FDD4
:101DE00000218020FFF7DCFD0021D820FFF7D8FD7F
:101DF00000210520FFF7D4FD0021D920FFF7D0FDF9
:101E00000021F120FFF7CCFD0021DA20FFF7C8FD0B
:101E100000211220FFF7C4FD0021DB20FFF7C0FDE9
:101E200000213020FFF7BCFD00218D20FFF7B8FD19
:101E300000211420FFF7B4FD0021AF20FFF7B0FD13
:101E400010BDFFF7C5FA05E00520FFF7EDFA6420A5
:101E5000FFF7E5FBF8E7704700BFFEE700BFFEE7CE
:101E600000BFFEE700BFFEE770477047704770474E
:101E700070477047754600F02BF8AE46050069467E
:101E8000534620F00700854618B020B5FEF7AAF9A2
:101E9000BDE820404FF000064FF000074FF000086B
:101EA0004FF0000B21F00701AC46ACE8C009ACE8EC
:101EB000C009ACE8C009ACE8C0098D46704710B550
:101EC0000446AFF300802046BDE81040FEF775B928
:101ED000004870473802002001491820ABBEFEE7D9
:101EE0002600020070470000000000000000002FE4
:101EF000000000000700070000147F147F14002476
:101F00002A7F2A12006264081323003649552250A2
:101F100000000503000000001C22410000004122D7
:101F20001C000014083E08140008083E08080000C1
:101F300000A06000000808080808000060600000B9
:101F4000002010080402003E5149453E0000427F37
:101F50004000004261514946002141454B31001883
:101F600014127F10002745454539003C4A49493045
:101F700000017109050300364949493600064949FF
:101F8000291E00003636000000005636000000080A
:101F900014224100001414141414000041221408E7
:101FA00000020151090600324959513E007C1211CC
:101FB000127C007F49494936003E41414122007F61
:101FC0004141221C007F49494941007F090909011B
:101FD000003E4149497A007F0808087F0000417FA0
:101FE0004100002040413F01007F08142241007F52
:101FF00040404040007F020C027F007F0408107FB9
:10200000003E4141413E007F09090906003E415121
:10201000215E007F091929460046494949310001DE
:10202000017F0101003F4040403F001F2040201F32
:10203000003F4038403F00631408146300070870F5
:10204000080700615149454300007F4141000055A8
:102050002A552A55000041417F0000040201020474
:102060000040404040400000010204000020545461
:102070005478007F484444380038444444200038B1
:102080004444487F00385454541800087E09010223
:102090000018A4A4A47C007F080404780000447DF8
:1020A0004000004080847D00007F10284400000034
:1020B000417F4000007C04180478007C0804047808
:1020C00000384444443800FC2424241800182424F4
:1020D00018FC007C080404080048545454200004F0
:1020E0003F444020003C4040207C001C2040201CFD
:1020F000003C4030403C004428102844001CA0A074
:10210000A07C004464544C441414141414140000AF
:1021100000000000000000000000000000000000BF
:1021200000F8000000000000003330000000001044
:102130000C06100C0600000000000000000040C06B
:102140007840C0784000043F04043F04040000705D
:1021500088FC08300000001820FF211E0000F00855
:10216000F000E018000000211C031E211E0000F0FA
:102170000888700000001E21232419272110101642
:102180000E00000000000000000000000000000041
:1021900000E01804020000000007182040000002C0
:1021A0000418E00000000040201807000000404034
:1021B00080F0804040000202010F01020200000096
:1021C00000F0000000000101011F010101000000FA
:1021D00000000000000080B070000000000000005F
:1021E00000000000000000010101010101010000E8
:1021F000000000000000003030000000000000007F
:10220000000080601804006018060100000000E073
:1022100010080810E000000F102020100F00001020
:1022200010F8000000000020203F20200000007077
:10223000080808887000003028242221300000306F
:102240000888884830000018202020110E00000067
:10225000C02010F8000000070424243F240000F8E8
:102260000888880808000019212020110E0000E0CD
:10227000108888180000000F112020110E0000386F
:102280000808C83808000000003F00000000007087
:10229000880808887000001C222121221C0000E010
:1022A00010080810E0000000312222110F00000089
:1022B00000C0C0000000000000303000000000003E
:1022C00000800000000000008060000000000000AE
:1022D0008040201008000001020408102000404047
:1022E000404040404000040404040404040000088A
:1022F000102040800000002010080402010000703F
:1023000048080808F0000000003036010000C03026
:10231000C828E810E0000718272423140B00000049
:10232000C038E0000000203C23020227382008F8D3
:10233000888888700000203F202020110E00C030C7
:10234000080808083800071820202010080008F89E
:1023500008080810E000203F202020100F0008F897
:102360008888E8081000203F20202320180008F863
:102370008888E8081000203F200003000000C030DB
:1023800008080838000007182020221E020008F85C
:1023900008000008F808203F210101213F20000823
:1023A00008F8080800000020203F2020000000005E
:1023B0000808F8080800C08080807F00000008F846
:1023C00088C028180800203F20012638200008F87F
:1023D000080000000000203F20202020300008F8E6
:1023E000F800F8F80800203F003F003F200008F800
:1023F00030C00008F808203F200007183F00E01018
:1024000008080810E0000F10202020100F0008F826
:1024100008080808F000203F210101010000E01039
:1024200008080810E0000F18242438504F0008F85E
:10243000888888887000203F2000030C30200070BE
:102440008808080838000038202121221C001808BC
:1024500008F8080818000000203F2000000008F8D5
:1024600008000008F808001F202020201F0008781E
:10247000880000C83808000007380E010000F8087E
:1024800000F80008F800033C0700073C03000818A8
:1024900068808068180820302C03032C302008380E
:1024A000C800C83808000000203F200000001008C5
:1024B0000808C8380800203826212020180000000D
:1024C00000FE020202000000007F40404000000CBD
:1024D00030C000000000000000010638C00000020B
:1024E0000202FE000000004040407F0000000000AB
:1024F00004020202040000000000000000000000CE
:1025000000000000000080808080808080800002C9
:1025100002040000000000000000000000000000B5
:102520008080808000000019242222223F2008F8A9
:10253000008080000000003F112020110E000000EC
:10254000008080800000000E11202020110000007B
:1025500000808088F800000E112020103F2000002D
:10256000808080800000001F222222221300008031
:1025700080F0888888180020203F2020000000007C
:10258000808080808000006B94949493600008F8B1
:10259000008080800000203F210000203F2000803C
:1025A0009898000000000020203F2020000000003C
:1025B00000809898000000C08080807F000008F8AC
:1025C000000080808000203F24022D302000000881
:1025D00008F8000000000020203F2020000080803C
:1025E000808080808000203F20003F20003F80804E
:1025F000008080800000203F210000203F2000005C
:10260000808080800000001F202020201F0080800C
:1026100000808000000080FFA12020110E0000003B
:10262000008080808000000E112020A0FF8080802C
:1026300080008080800020203F21200001000000D9
:1026400080808080800000332424242419000080AE
:1026500080E0808000000000001F202000008080BB
:10266000000000808000001F202020103F2080807C
:1026700080000080808000010E300806010080800C
:102680000080008080800F300C030C300F00008031
:102690008000808080000020312E0E31200080805C
:1026A00080000080808080818E701806010000808C
:1026B0008080808080000021302C222130000000AA
:1026C0000000807C020200000000003F404000004B
:1026D0000000FF00000000000000FF0000000002FA
:1026E000027C800000000040403F00000000000627
:1026F00001010202040400000000000000000000CC
:1027000020270008000000203802000028010008EF
:102710001828000838020020600600008401000824
:102720001184A24A04680901020304060708090C7F
:10273000691005100204060815404042CC000B1435
:1027400040A09E8282829EA02020000D113F908892
:1027500040432C1028464180801C100C44012B451E
:10276000C606041144140C38098040201E20404045
:102770007F2003124040380908884828180FE808CD
:102780000109111F2B0809013AFF0609112139C05F
:10279000000A1304F49494FF9494F404080E104077
:1027A000201F20484442415F414244488029764CE2
:1027B00088780F7F0911601E2010484641012A7F4A
:1027C000050911C029350B18C838402E080402012C
:1027D000FF3C19010213FF080E12C8B88FE888C821
:1027E00020900C030C902060161808FF04041A3F78
:1027F000C204144040702809FC242424FC2526240B
:102800000802110400101140308F80844C5525259A
:0828100025554C80808000007A
:04000005080000ED02
:00000001FF
